{
  "address": "0xda6b4597e9590098dE01197e958a8C639687682A",
  "abi": [
    {
      "inputs": [
        {
          "internalType": "address",
          "name": "sequencerOracle_",
          "type": "address"
        },
        {
          "internalType": "uint256",
          "name": "timeout_",
          "type": "uint256"
        },
        {
          "internalType": "uint256",
          "name": "gracePeriod_",
          "type": "uint256"
        },
        {
          "internalType": "address",
          "name": "initialOwner",
          "type": "address"
        }
      ],
      "stateMutability": "nonpayable",
      "type": "constructor"
    },
    {
      "inputs": [],
      "name": "InvalidGracePeriod",
      "type": "error"
    },
    {
      "inputs": [],
      "name": "InvalidTimeout",
      "type": "error"
    },
    {
      "inputs": [],
      "name": "LengthMismatch",
      "type": "error"
    },
    {
      "inputs": [
        {
          "internalType": "address",
          "name": "owner",
          "type": "address"
        }
      ],
      "name": "OwnableInvalidOwner",
      "type": "error"
    },
    {
      "inputs": [
        {
          "internalType": "address",
          "name": "account",
          "type": "address"
        }
      ],
      "name": "OwnableUnauthorizedAccount",
      "type": "error"
    },
    {
      "anonymous": false,
      "inputs": [
        {
          "indexed": true,
          "internalType": "address",
          "name": "previousOwner",
          "type": "address"
        },
        {
          "indexed": true,
          "internalType": "address",
          "name": "newOwner",
          "type": "address"
        }
      ],
      "name": "OwnershipTransferStarted",
      "type": "event"
    },
    {
      "anonymous": false,
      "inputs": [
        {
          "indexed": true,
          "internalType": "address",
          "name": "previousOwner",
          "type": "address"
        },
        {
          "indexed": true,
          "internalType": "address",
          "name": "newOwner",
          "type": "address"
        }
      ],
      "name": "OwnershipTransferred",
      "type": "event"
    },
    {
      "anonymous": false,
      "inputs": [
        {
          "indexed": true,
          "internalType": "address",
          "name": "newFallbackOracle",
          "type": "address"
        }
      ],
      "name": "SetFallbackOracle",
      "type": "event"
    },
    {
      "anonymous": false,
      "inputs": [
        {
          "indexed": true,
          "internalType": "address",
          "name": "asset",
          "type": "address"
        },
        {
          "indexed": false,
          "internalType": "address[]",
          "name": "feeds",
          "type": "address[]"
        }
      ],
      "name": "SetFeed",
      "type": "event"
    },
    {
      "anonymous": false,
      "inputs": [
        {
          "indexed": false,
          "internalType": "uint256",
          "name": "newGracePeriod",
          "type": "uint256"
        }
      ],
      "name": "SetGracePeriod",
      "type": "event"
    },
    {
      "anonymous": false,
      "inputs": [
        {
          "indexed": true,
          "internalType": "address",
          "name": "newSequencerOracle",
          "type": "address"
        }
      ],
      "name": "SetSequencerOracle",
      "type": "event"
    },
    {
      "anonymous": false,
      "inputs": [
        {
          "indexed": false,
          "internalType": "uint256",
          "name": "newTimeout",
          "type": "uint256"
        }
      ],
      "name": "SetTimeout",
      "type": "event"
    },
    {
      "inputs": [],
      "name": "acceptOwnership",
      "outputs": [],
      "stateMutability": "nonpayable",
      "type": "function"
    },
    {
      "inputs": [],
      "name": "decimals",
      "outputs": [
        {
          "internalType": "uint8",
          "name": "",
          "type": "uint8"
        }
      ],
      "stateMutability": "pure",
      "type": "function"
    },
    {
      "inputs": [],
      "name": "fallbackOracle",
      "outputs": [
        {
          "internalType": "address",
          "name": "",
          "type": "address"
        }
      ],
      "stateMutability": "view",
      "type": "function"
    },
    {
      "inputs": [
        {
          "internalType": "address",
          "name": "asset",
          "type": "address"
        }
      ],
      "name": "getAssetPrice",
      "outputs": [
        {
          "internalType": "uint256",
          "name": "",
          "type": "uint256"
        }
      ],
      "stateMutability": "view",
      "type": "function"
    },
    {
      "inputs": [
        {
          "internalType": "address[]",
          "name": "assets",
          "type": "address[]"
        }
      ],
      "name": "getAssetsPrices",
      "outputs": [
        {
          "internalType": "uint256[]",
          "name": "prices",
          "type": "uint256[]"
        }
      ],
      "stateMutability": "view",
      "type": "function"
    },
    {
      "inputs": [
        {
          "internalType": "address",
          "name": "asset",
          "type": "address"
        }
      ],
      "name": "getFeeds",
      "outputs": [
        {
          "internalType": "address[]",
          "name": "",
          "type": "address[]"
        }
      ],
      "stateMutability": "view",
      "type": "function"
    },
    {
      "inputs": [],
      "name": "gracePeriod",
      "outputs": [
        {
          "internalType": "uint256",
          "name": "",
          "type": "uint256"
        }
      ],
      "stateMutability": "view",
      "type": "function"
    },
    {
      "inputs": [],
      "name": "isSequencerValid",
      "outputs": [
        {
          "internalType": "bool",
          "name": "",
          "type": "bool"
        }
      ],
      "stateMutability": "view",
      "type": "function"
    },
    {
      "inputs": [],
      "name": "owner",
      "outputs": [
        {
          "internalType": "address",
          "name": "",
          "type": "address"
        }
      ],
      "stateMutability": "view",
      "type": "function"
    },
    {
      "inputs": [],
      "name": "pendingOwner",
      "outputs": [
        {
          "internalType": "address",
          "name": "",
          "type": "address"
        }
      ],
      "stateMutability": "view",
      "type": "function"
    },
    {
      "inputs": [],
      "name": "renounceOwnership",
      "outputs": [],
      "stateMutability": "nonpayable",
      "type": "function"
    },
    {
      "inputs": [],
      "name": "sequencerOracle",
      "outputs": [
        {
          "internalType": "address",
          "name": "",
          "type": "address"
        }
      ],
      "stateMutability": "view",
      "type": "function"
    },
    {
      "inputs": [
        {
          "internalType": "address",
          "name": "newFallbackOracle",
          "type": "address"
        }
      ],
      "name": "setFallbackOracle",
      "outputs": [],
      "stateMutability": "nonpayable",
      "type": "function"
    },
    {
      "inputs": [
        {
          "internalType": "address[]",
          "name": "assets",
          "type": "address[]"
        },
        {
          "internalType": "address[][]",
          "name": "feeds",
          "type": "address[][]"
        }
      ],
      "name": "setFeeds",
      "outputs": [],
      "stateMutability": "nonpayable",
      "type": "function"
    },
    {
      "inputs": [
        {
          "internalType": "uint256",
          "name": "newGracePeriod",
          "type": "uint256"
        }
      ],
      "name": "setGracePeriod",
      "outputs": [],
      "stateMutability": "nonpayable",
      "type": "function"
    },
    {
      "inputs": [
        {
          "internalType": "address",
          "name": "newSequencerOracle",
          "type": "address"
        }
      ],
      "name": "setSequencerOracle",
      "outputs": [],
      "stateMutability": "nonpayable",
      "type": "function"
    },
    {
      "inputs": [
        {
          "internalType": "uint256",
          "name": "newTimeout",
          "type": "uint256"
        }
      ],
      "name": "setTimeout",
      "outputs": [],
      "stateMutability": "nonpayable",
      "type": "function"
    },
    {
      "inputs": [],
      "name": "timeout",
      "outputs": [
        {
          "internalType": "uint256",
          "name": "",
          "type": "uint256"
        }
      ],
      "stateMutability": "view",
      "type": "function"
    },
    {
      "inputs": [
        {
          "internalType": "address",
          "name": "newOwner",
          "type": "address"
        }
      ],
      "name": "transferOwnership",
      "outputs": [],
      "stateMutability": "nonpayable",
      "type": "function"
    }
  ],
  "transactionHash": "0x972207531e1b75dd3f1e8bbcbe4669ed8942f15501c4de6536fba158ee3c993f",
  "args": [
    "0x8B0f27aDf87E037B53eF1AADB96bE629Be37CeA8",
    86400,
    3600,
    "0x8381c90a455c162E0aCA3cBE80e7cE5D590C7703"
  ],
  "numDeployments": 1,
  "solcInputHash": "79e4972a50d3f8124dae78977c03276f",
  "bytecode": "0x608060405234801562000010575f80fd5b50604051620014d0380380620014d0833981016040819052620000339162000241565b806001600160a01b0381166200006257604051631e4fbdf760e01b81525f600482015260240160405180910390fd5b6200006d8162000099565b506200007984620000b7565b620000848362000100565b6200008f826200016e565b5050505062000289565b600180546001600160a01b0319169055620000b481620001d6565b50565b600380546001600160a01b0319166001600160a01b0383169081179091556040517f73ae4ce26eec2f4ea96b861b67192be67911288f8eb274c2fa6630e8deefab8e905f90a250565b6104b08110806200011357506201518081115b156200013257604051631ffb86f160e21b815260040160405180910390fd5b60028190556040518181527f9a3851f0de50087a4045a25c045b5b3db04b32773b44996506ff6dca26c783af906020015b60405180910390a150565b6104b08110806200018157506201518081115b15620001a05760405163d7c43e0f60e01b815260040160405180910390fd5b60048190556040518181527f848ba7852320e491d84ddc22f1f12fe48672aa22757fc4452703c9046d9982d79060200162000163565b5f80546001600160a01b038381166001600160a01b0319831681178455604051919092169283917f8be0079c531659141344cd1fd0a4f28419497f9722a3daafe3b4186f6b6457e09190a35050565b80516001600160a01b03811681146200023c575f80fd5b919050565b5f805f806080858703121562000255575f80fd5b620002608562000225565b935060208501519250604085015191506200027e6060860162000225565b905092959194509250565b61123980620002975f395ff3fe608060405234801561000f575f80fd5b5060043610610149575f3560e01c80639d23d9f2116100c7578063c58a34cc1161007d578063f0aef31c11610063578063f0aef31c14610296578063f2f65960146102a9578063f2fde38b146102bc575f80fd5b8063c58a34cc14610272578063e30c397814610285575f80fd5b8063ac77f572116100ad578063ac77f5721461022c578063acbb4c1e1461024c578063b3596f071461025f575f80fd5b80639d23d9f214610203578063a06db7dc14610223575f80fd5b8063715018a61161011c57806379ba50971161010257806379ba5097146101d85780638da5cb5b146101e05780638fadac78146101f0575f80fd5b8063715018a6146101b85780637194ed42146101c0575f80fd5b8063170aee731461014d578063313ce56714610162578063629838e51461017657806370dea79a146101a1575b5f80fd5b61016061015b366004610d2b565b6102cf565b005b604051600881526020015b60405180910390f35b600554610189906001600160a01b031681565b6040516001600160a01b03909116815260200161016d565b6101aa60025481565b60405190815260200161016d565b610160610320565b6101c8610333565b604051901515815260200161016d565b610160610341565b5f546001600160a01b0316610189565b6101606101fe366004610d8c565b61038a565b610216610211366004610e07565b6105ce565b60405161016d9190610ec7565b6101aa60045481565b61023f61023a366004610d2b565b61066e565b60405161016d9190610f0a565b600354610189906001600160a01b031681565b6101aa61026d366004610d2b565b6106e1565b610160610280366004610f4a565b6109d8565b6001546001600160a01b0316610189565b6101606102a4366004610d2b565b6109e9565b6101606102b7366004610f4a565b6109fa565b6101606102ca366004610d2b565b610a0b565b6102d7610a7b565b600580546001600160a01b0319166001600160a01b0383169081179091556040517f9a248ffd42eb7f1580b27272ef0a5911b2835eb6fb9951d6fd1b6e3264b9e6e0905f90a250565b610328610a7b565b6103315f610aa7565b565b5f61033c610ac0565b905090565b60015433906001600160a01b0316811461037e5760405163118cdaa760e01b81526001600160a01b03821660048201526024015b60405180910390fd5b61038781610aa7565b50565b610392610a7b565b8281146103cb576040517fff633a3800000000000000000000000000000000000000000000000000000000815260040160405180910390fd5b5f5b838110156105c7578282828181106103e7576103e7610f61565b90506020028101906103f99190610f75565b90505f03610433576040517fff633a3800000000000000000000000000000000000000000000000000000000815260040160405180910390fd5b5f60065f87878581811061044957610449610f61565b905060200201602081019061045e9190610d2b565b6001600160a01b03166001600160a01b031681526020019081526020015f2090505f81555f5b84848481811061049657610496610f61565b90506020028101906104a89190610f75565b905081101561053257818585858181106104c4576104c4610f61565b90506020028101906104d69190610f75565b838181106104e6576104e6610f61565b90506020020160208101906104fb9190610d2b565b8154600180820184555f93845260209093200180546001600160a01b0319166001600160a01b039290921691909117905501610484565b5085858381811061054557610545610f61565b905060200201602081019061055a9190610d2b565b6001600160a01b03167fcbf64f4858c251e8a5e4b58489643fd6e0255b237e6e022318293b7fc43bb4f885858581811061059657610596610f61565b90506020028101906105a89190610f75565b6040516105b6929190610fbb565b60405180910390a2506001016103cd565b5050505050565b6060815167ffffffffffffffff8111156105ea576105ea610df3565b604051908082528060200260200182016040528015610613578160200160208202803683370190505b5090505f5b82518110156106685761064383828151811061063657610636610f61565b60200260200101516106e1565b82828151811061065557610655610f61565b6020908102919091010152600101610618565b50919050565b6001600160a01b0381165f908152600660209081526040918290208054835181840281018401909452808452606093928301828280156106d557602002820191905f5260205f20905b81546001600160a01b031681526001909101906020018083116106b7575b50505050509050919050565b6001600160a01b0381165f9081526006602090815260408083208054825181850281018501909352808352849383018282801561074557602002820191905f5260205f20905b81546001600160a01b03168152600190910190602001808311610727575b5050505050905080515f036107c75760055460405163b3596f0760e01b81526001600160a01b0385811660048301529091169063b3596f0790602401602060405180830381865afa15801561079c573d5f803e3d5ffd5b505050506040513d601f19601f820116820180604052508101906107c09190611006565b9392505050565b6305f5e1005f5b82518110156109d0578281815181106107e9576107e9610f61565b60200260200101516001600160a01b031663feaf968c6040518163ffffffff1660e01b815260040160a060405180830381865afa92505050801561084a575060408051601f3d908101601f1916820190925261084791810190611036565b60015b156109535769ffffffffffffffffffff85161580159061086a57505f8412155b80156108765750428211155b801561088e575060025461088a9083611096565b4211155b801561089d575061089d610ac0565b1561094d575f8887815181106108b5576108b5610f61565b60200260200101516001600160a01b031663313ce5676040518163ffffffff1660e01b8152600401602060405180830381865afa1580156108f8573d5f803e3d5ffd5b505050506040513d601f19601f8201168201806040525081019061091c91906110af565b60ff16905061092c81600a6111af565b610936868a6111ba565b61094091906111d1565b97505050505050506109c8565b50505050505b60055460405163b3596f0760e01b81526001600160a01b0387811660048301529091169063b3596f0790602401602060405180830381865afa15801561099b573d5f803e3d5ffd5b505050506040513d601f19601f820116820180604052508101906109bf9190611006565b95945050505050565b6001016107ce565b509392505050565b6109e0610a7b565b61038781610b75565b6109f1610a7b565b61038781610bfa565b610a02610a7b565b61038781610c43565b610a13610a7b565b600180546001600160a01b0383166001600160a01b03199091168117909155610a435f546001600160a01b031690565b6001600160a01b03167f38d16b8cac22d99fc7c124b9cd0de2d3fa1faef420bfe791d8c362d765e2270060405160405180910390a350565b5f546001600160a01b031633146103315760405163118cdaa760e01b8152336004820152602401610375565b600180546001600160a01b031916905561038781610cc1565b6003545f906001600160a01b0316610ad85750600190565b5f8060035f9054906101000a90046001600160a01b03166001600160a01b031663feaf968c6040518163ffffffff1660e01b815260040160a060405180830381865afa158015610b2a573d5f803e3d5ffd5b505050506040513d601f19601f82011682018060405250810190610b4e9190611036565b50935050925050815f148015610b6e5750600454610b6c82426111f0565b115b9250505090565b6104b0811080610b8757506201518081115b15610bbe576040517f7fee1bc400000000000000000000000000000000000000000000000000000000815260040160405180910390fd5b60028190556040518181527f9a3851f0de50087a4045a25c045b5b3db04b32773b44996506ff6dca26c783af906020015b60405180910390a150565b600380546001600160a01b0319166001600160a01b0383169081179091556040517f73ae4ce26eec2f4ea96b861b67192be67911288f8eb274c2fa6630e8deefab8e905f90a250565b6104b0811080610c5557506201518081115b15610c8c576040517fd7c43e0f00000000000000000000000000000000000000000000000000000000815260040160405180910390fd5b60048190556040518181527f848ba7852320e491d84ddc22f1f12fe48672aa22757fc4452703c9046d9982d790602001610bef565b5f80546001600160a01b038381166001600160a01b0319831681178455604051919092169283917f8be0079c531659141344cd1fd0a4f28419497f9722a3daafe3b4186f6b6457e09190a35050565b80356001600160a01b0381168114610d26575f80fd5b919050565b5f60208284031215610d3b575f80fd5b6107c082610d10565b5f8083601f840112610d54575f80fd5b50813567ffffffffffffffff811115610d6b575f80fd5b6020830191508360208260051b8501011115610d85575f80fd5b9250929050565b5f805f8060408587031215610d9f575f80fd5b843567ffffffffffffffff80821115610db6575f80fd5b610dc288838901610d44565b90965094506020870135915080821115610dda575f80fd5b50610de787828801610d44565b95989497509550505050565b634e487b7160e01b5f52604160045260245ffd5b5f6020808385031215610e18575f80fd5b823567ffffffffffffffff80821115610e2f575f80fd5b818501915085601f830112610e42575f80fd5b813581811115610e5457610e54610df3565b8060051b604051601f19603f83011681018181108582111715610e7957610e79610df3565b604052918252848201925083810185019188831115610e96575f80fd5b938501935b82851015610ebb57610eac85610d10565b84529385019392850192610e9b565b98975050505050505050565b602080825282518282018190525f9190848201906040850190845b81811015610efe57835183529284019291840191600101610ee2565b50909695505050505050565b602080825282518282018190525f9190848201906040850190845b81811015610efe5783516001600160a01b031683529284019291840191600101610f25565b5f60208284031215610f5a575f80fd5b5035919050565b634e487b7160e01b5f52603260045260245ffd5b5f808335601e19843603018112610f8a575f80fd5b83018035915067ffffffffffffffff821115610fa4575f80fd5b6020019150600581901b3603821315610d85575f80fd5b60208082528181018390525f908460408401835b86811015610ffb576001600160a01b03610fe884610d10565b1682529183019190830190600101610fcf565b509695505050505050565b5f60208284031215611016575f80fd5b5051919050565b805169ffffffffffffffffffff81168114610d26575f80fd5b5f805f805f60a0868803121561104a575f80fd5b6110538661101d565b94506020860151935060408601519250606086015191506110766080870161101d565b90509295509295909350565b634e487b7160e01b5f52601160045260245ffd5b808201808211156110a9576110a9611082565b92915050565b5f602082840312156110bf575f80fd5b815160ff811681146107c0575f80fd5b600181815b8085111561110957815f19048211156110ef576110ef611082565b808516156110fc57918102915b93841c93908002906110d4565b509250929050565b5f8261111f575060016110a9565b8161112b57505f6110a9565b8160018114611141576002811461114b57611167565b60019150506110a9565b60ff84111561115c5761115c611082565b50506001821b6110a9565b5060208310610133831016604e8410600b841016171561118a575081810a6110a9565b61119483836110cf565b805f19048211156111a7576111a7611082565b029392505050565b5f6107c08383611111565b80820281158282048414176110a9576110a9611082565b5f826111eb57634e487b7160e01b5f52601260045260245ffd5b500490565b818103818111156110a9576110a961108256fea26469706673582212206e862dc70862cb6c88e1a7cda6000e79ac18d681ad89e4d084f772b8dd5963e364736f6c63430008180033",
  "devdoc": {
    "errors": {
      "OwnableInvalidOwner(address)": [
        {
          "details": "The owner is not a valid owner account. (eg. `address(0)`)"
        }
      ],
      "OwnableUnauthorizedAccount(address)": [
        {
          "details": "The caller account is not authorized to perform an operation."
        }
      ]
    },
    "kind": "dev",
    "methods": {
      "acceptOwnership()": {
        "details": "The new owner accepts the ownership transfer."
      },
      "decimals()": {
        "returns": {
          "_0": "The number of decimals."
        }
      },
      "getAssetPrice(address)": {
        "params": {
          "asset": "The address of the asset."
        },
        "returns": {
          "_0": "The price of the asset."
        }
      },
      "getAssetsPrices(address[])": {
        "params": {
          "assets": "The list of asset addresses."
        },
        "returns": {
          "prices": "The list of prices for the specified assets."
        }
      },
      "owner()": {
        "details": "Returns the address of the current owner."
      },
      "pendingOwner()": {
        "details": "Returns the address of the pending owner."
      },
      "renounceOwnership()": {
        "details": "Leaves the contract without owner. It will not be possible to call `onlyOwner` functions. Can only be called by the current owner. NOTE: Renouncing ownership will leave the contract without an owner, thereby disabling any functionality that is only available to the owner."
      },
      "transferOwnership(address)": {
        "details": "Starts the ownership transfer of the contract to a new account. Replaces the pending transfer if there is one. Can only be called by the current owner. Setting `newOwner` to the zero address is allowed; this can be used to cancel an initiated ownership transfer."
      }
    },
    "version": 1
  },
  "userdoc": {
    "kind": "user",
    "methods": {
      "decimals()": {
        "notice": "Retrieves the number of decimals used by the oracle."
      },
      "getAssetPrice(address)": {
        "notice": "Retrieves the price of a specified asset."
      },
      "getAssetsPrices(address[])": {
        "notice": "Retrieves the prices of a list of specified assets."
      }
    },
    "version": 1
  },
  "storageLayout": {
    "storage": [
      {
        "astId": 8,
        "contract": "src/oracle/ChainlinkOracle.sol:ChainlinkOracle",
        "label": "_owner",
        "offset": 0,
        "slot": "0",
        "type": "t_address"
      },
      {
        "astId": 156,
        "contract": "src/oracle/ChainlinkOracle.sol:ChainlinkOracle",
        "label": "_pendingOwner",
        "offset": 0,
        "slot": "1",
        "type": "t_address"
      },
      {
        "astId": 15061,
        "contract": "src/oracle/ChainlinkOracle.sol:ChainlinkOracle",
        "label": "timeout",
        "offset": 0,
        "slot": "2",
        "type": "t_uint256"
      },
      {
        "astId": 15064,
        "contract": "src/oracle/ChainlinkOracle.sol:ChainlinkOracle",
        "label": "sequencerOracle",
        "offset": 0,
        "slot": "3",
        "type": "t_address"
      },
      {
        "astId": 15067,
        "contract": "src/oracle/ChainlinkOracle.sol:ChainlinkOracle",
        "label": "gracePeriod",
        "offset": 0,
        "slot": "4",
        "type": "t_uint256"
      },
      {
        "astId": 15070,
        "contract": "src/oracle/ChainlinkOracle.sol:ChainlinkOracle",
        "label": "fallbackOracle",
        "offset": 0,
        "slot": "5",
        "type": "t_address"
      },
      {
        "astId": 15075,
        "contract": "src/oracle/ChainlinkOracle.sol:ChainlinkOracle",
        "label": "_feeds",
        "offset": 0,
        "slot": "6",
        "type": "t_mapping(t_address,t_array(t_address)dyn_storage)"
      }
    ],
    "types": {
      "t_address": {
        "encoding": "inplace",
        "label": "address",
        "numberOfBytes": "20"
      },
      "t_array(t_address)dyn_storage": {
        "base": "t_address",
        "encoding": "dynamic_array",
        "label": "address[]",
        "numberOfBytes": "32"
      },
      "t_mapping(t_address,t_array(t_address)dyn_storage)": {
        "encoding": "mapping",
        "key": "t_address",
        "label": "mapping(address => address[])",
        "numberOfBytes": "32",
        "value": "t_array(t_address)dyn_storage"
      },
      "t_uint256": {
        "encoding": "inplace",
        "label": "uint256",
        "numberOfBytes": "32"
      }
    }
  }
}