{
  "address": "0x9C69182CCb09b022bbDFb78532a0Ae7c4F1a0EC6",
  "abi": [
    {
      "inputs": [
        {
          "internalType": "address",
          "name": "verifier_",
          "type": "address"
        }
      ],
      "stateMutability": "nonpayable",
      "type": "constructor"
    },
    {
      "inputs": [
        {
          "internalType": "address",
          "name": "target",
          "type": "address"
        }
      ],
      "name": "AddressEmptyCode",
      "type": "error"
    },
    {
      "inputs": [],
      "name": "AlreadySetFeed",
      "type": "error"
    },
    {
      "inputs": [
        {
          "internalType": "address",
          "name": "implementation",
          "type": "address"
        }
      ],
      "name": "ERC1967InvalidImplementation",
      "type": "error"
    },
    {
      "inputs": [],
      "name": "ERC1967NonPayable",
      "type": "error"
    },
    {
      "inputs": [],
      "name": "FailedCall",
      "type": "error"
    },
    {
      "inputs": [],
      "name": "InvalidForwarder",
      "type": "error"
    },
    {
      "inputs": [],
      "name": "InvalidInitialization",
      "type": "error"
    },
    {
      "inputs": [],
      "name": "InvalidReport",
      "type": "error"
    },
    {
      "inputs": [],
      "name": "NotInitializing",
      "type": "error"
    },
    {
      "inputs": [],
      "name": "NotOperator",
      "type": "error"
    },
    {
      "inputs": [
        {
          "internalType": "address",
          "name": "owner",
          "type": "address"
        }
      ],
      "name": "OwnableInvalidOwner",
      "type": "error"
    },
    {
      "inputs": [
        {
          "internalType": "address",
          "name": "account",
          "type": "address"
        }
      ],
      "name": "OwnableUnauthorizedAccount",
      "type": "error"
    },
    {
      "inputs": [
        {
          "internalType": "string",
          "name": "feedParamKey",
          "type": "string"
        },
        {
          "internalType": "string[]",
          "name": "feeds",
          "type": "string[]"
        },
        {
          "internalType": "string",
          "name": "timeParamKey",
          "type": "string"
        },
        {
          "internalType": "uint256",
          "name": "time",
          "type": "uint256"
        },
        {
          "internalType": "bytes",
          "name": "extraData",
          "type": "bytes"
        }
      ],
      "name": "StreamsLookup",
      "type": "error"
    },
    {
      "inputs": [
        {
          "internalType": "uint256",
          "name": "value",
          "type": "uint256"
        },
        {
          "internalType": "uint256",
          "name": "length",
          "type": "uint256"
        }
      ],
      "name": "StringsInsufficientHexLength",
      "type": "error"
    },
    {
      "inputs": [],
      "name": "UUPSUnauthorizedCallContext",
      "type": "error"
    },
    {
      "inputs": [
        {
          "internalType": "bytes32",
          "name": "slot",
          "type": "bytes32"
        }
      ],
      "name": "UUPSUnsupportedProxiableUUID",
      "type": "error"
    },
    {
      "anonymous": false,
      "inputs": [
        {
          "indexed": false,
          "internalType": "uint64",
          "name": "version",
          "type": "uint64"
        }
      ],
      "name": "Initialized",
      "type": "event"
    },
    {
      "anonymous": false,
      "inputs": [
        {
          "indexed": true,
          "internalType": "address",
          "name": "previousOwner",
          "type": "address"
        },
        {
          "indexed": true,
          "internalType": "address",
          "name": "newOwner",
          "type": "address"
        }
      ],
      "name": "OwnershipTransferStarted",
      "type": "event"
    },
    {
      "anonymous": false,
      "inputs": [
        {
          "indexed": true,
          "internalType": "address",
          "name": "previousOwner",
          "type": "address"
        },
        {
          "indexed": true,
          "internalType": "address",
          "name": "newOwner",
          "type": "address"
        }
      ],
      "name": "OwnershipTransferred",
      "type": "event"
    },
    {
      "anonymous": false,
      "inputs": [
        {
          "indexed": true,
          "internalType": "address",
          "name": "requester",
          "type": "address"
        },
        {
          "indexed": false,
          "internalType": "uint256",
          "name": "bitmap",
          "type": "uint256"
        }
      ],
      "name": "Request",
      "type": "event"
    },
    {
      "anonymous": false,
      "inputs": [
        {
          "indexed": true,
          "internalType": "address",
          "name": "newFallbackOracle",
          "type": "address"
        }
      ],
      "name": "SetFallbackOracle",
      "type": "event"
    },
    {
      "anonymous": false,
      "inputs": [
        {
          "indexed": true,
          "internalType": "address",
          "name": "asset",
          "type": "address"
        },
        {
          "indexed": false,
          "internalType": "bytes32",
          "name": "feedId",
          "type": "bytes32"
        },
        {
          "indexed": false,
          "internalType": "uint256",
          "name": "index",
          "type": "uint256"
        }
      ],
      "name": "SetFeed",
      "type": "event"
    },
    {
      "anonymous": false,
      "inputs": [
        {
          "indexed": true,
          "internalType": "address",
          "name": "forwarder",
          "type": "address"
        }
      ],
      "name": "SetForwarder",
      "type": "event"
    },
    {
      "anonymous": false,
      "inputs": [
        {
          "indexed": true,
          "internalType": "address",
          "name": "operator",
          "type": "address"
        },
        {
          "indexed": false,
          "internalType": "bool",
          "name": "status",
          "type": "bool"
        }
      ],
      "name": "SetOperator",
      "type": "event"
    },
    {
      "anonymous": false,
      "inputs": [
        {
          "indexed": true,
          "internalType": "address",
          "name": "asset",
          "type": "address"
        },
        {
          "indexed": false,
          "internalType": "uint256",
          "name": "price",
          "type": "uint256"
        }
      ],
      "name": "SetPrice",
      "type": "event"
    },
    {
      "anonymous": false,
      "inputs": [
        {
          "indexed": true,
          "internalType": "address",
          "name": "implementation",
          "type": "address"
        }
      ],
      "name": "Upgraded",
      "type": "event"
    },
    {
      "inputs": [],
      "name": "STRING_DATASTREAMS_FEEDLABEL",
      "outputs": [
        {
          "internalType": "string",
          "name": "",
          "type": "string"
        }
      ],
      "stateMutability": "view",
      "type": "function"
    },
    {
      "inputs": [],
      "name": "STRING_DATASTREAMS_QUERYLABEL",
      "outputs": [
        {
          "internalType": "string",
          "name": "",
          "type": "string"
        }
      ],
      "stateMutability": "view",
      "type": "function"
    },
    {
      "inputs": [],
      "name": "UPGRADE_INTERFACE_VERSION",
      "outputs": [
        {
          "internalType": "string",
          "name": "",
          "type": "string"
        }
      ],
      "stateMutability": "view",
      "type": "function"
    },
    {
      "inputs": [
        {
          "internalType": "bytes32",
          "name": "",
          "type": "bytes32"
        }
      ],
      "name": "_feedData",
      "outputs": [
        {
          "internalType": "address",
          "name": "asset",
          "type": "address"
        },
        {
          "internalType": "uint96",
          "name": "index",
          "type": "uint96"
        }
      ],
      "stateMutability": "view",
      "type": "function"
    },
    {
      "inputs": [],
      "name": "acceptOwnership",
      "outputs": [],
      "stateMutability": "nonpayable",
      "type": "function"
    },
    {
      "inputs": [
        {
          "internalType": "bytes[]",
          "name": "values",
          "type": "bytes[]"
        },
        {
          "internalType": "bytes",
          "name": "extraData",
          "type": "bytes"
        }
      ],
      "name": "checkCallback",
      "outputs": [
        {
          "internalType": "bool",
          "name": "",
          "type": "bool"
        },
        {
          "internalType": "bytes",
          "name": "",
          "type": "bytes"
        }
      ],
      "stateMutability": "pure",
      "type": "function"
    },
    {
      "inputs": [
        {
          "internalType": "uint256",
          "name": "",
          "type": "uint256"
        },
        {
          "internalType": "bytes",
          "name": "",
          "type": "bytes"
        }
      ],
      "name": "checkErrorHandler",
      "outputs": [
        {
          "internalType": "bool",
          "name": "",
          "type": "bool"
        },
        {
          "internalType": "bytes",
          "name": "",
          "type": "bytes"
        }
      ],
      "stateMutability": "pure",
      "type": "function"
    },
    {
      "inputs": [
        {
          "components": [
            {
              "internalType": "uint256",
              "name": "index",
              "type": "uint256"
            },
            {
              "internalType": "uint256",
              "name": "timestamp",
              "type": "uint256"
            },
            {
              "internalType": "bytes32",
              "name": "txHash",
              "type": "bytes32"
            },
            {
              "internalType": "uint256",
              "name": "blockNumber",
              "type": "uint256"
            },
            {
              "internalType": "bytes32",
              "name": "blockHash",
              "type": "bytes32"
            },
            {
              "internalType": "address",
              "name": "source",
              "type": "address"
            },
            {
              "internalType": "bytes32[]",
              "name": "topics",
              "type": "bytes32[]"
            },
            {
              "internalType": "bytes",
              "name": "data",
              "type": "bytes"
            }
          ],
          "internalType": "struct Log",
          "name": "log",
          "type": "tuple"
        },
        {
          "internalType": "bytes",
          "name": "",
          "type": "bytes"
        }
      ],
      "name": "checkLog",
      "outputs": [
        {
          "internalType": "bool",
          "name": "",
          "type": "bool"
        },
        {
          "internalType": "bytes",
          "name": "",
          "type": "bytes"
        }
      ],
      "stateMutability": "view",
      "type": "function"
    },
    {
      "inputs": [],
      "name": "decimals",
      "outputs": [
        {
          "internalType": "uint8",
          "name": "",
          "type": "uint8"
        }
      ],
      "stateMutability": "pure",
      "type": "function"
    },
    {
      "inputs": [],
      "name": "fallbackOracle",
      "outputs": [
        {
          "internalType": "address",
          "name": "",
          "type": "address"
        }
      ],
      "stateMutability": "view",
      "type": "function"
    },
    {
      "inputs": [],
      "name": "feeBalance",
      "outputs": [
        {
          "internalType": "uint256",
          "name": "",
          "type": "uint256"
        }
      ],
      "stateMutability": "view",
      "type": "function"
    },
    {
      "inputs": [],
      "name": "feeToken",
      "outputs": [
        {
          "internalType": "address",
          "name": "",
          "type": "address"
        }
      ],
      "stateMutability": "view",
      "type": "function"
    },
    {
      "inputs": [
        {
          "internalType": "bytes32",
          "name": "feedId",
          "type": "bytes32"
        }
      ],
      "name": "feedData",
      "outputs": [
        {
          "components": [
            {
              "internalType": "address",
              "name": "asset",
              "type": "address"
            },
            {
              "internalType": "uint96",
              "name": "index",
              "type": "uint96"
            }
          ],
          "internalType": "struct IDatastreamOracle.FeedData",
          "name": "",
          "type": "tuple"
        }
      ],
      "stateMutability": "view",
      "type": "function"
    },
    {
      "inputs": [],
      "name": "forwarder",
      "outputs": [
        {
          "internalType": "address",
          "name": "",
          "type": "address"
        }
      ],
      "stateMutability": "view",
      "type": "function"
    },
    {
      "inputs": [],
      "name": "getAllFeedData",
      "outputs": [
        {
          "internalType": "bytes32[]",
          "name": "feedIds",
          "type": "bytes32[]"
        },
        {
          "components": [
            {
              "internalType": "address",
              "name": "asset",
              "type": "address"
            },
            {
              "internalType": "uint96",
              "name": "index",
              "type": "uint96"
            }
          ],
          "internalType": "struct IDatastreamOracle.FeedData[]",
          "name": "data",
          "type": "tuple[]"
        }
      ],
      "stateMutability": "view",
      "type": "function"
    },
    {
      "inputs": [
        {
          "internalType": "address",
          "name": "asset",
          "type": "address"
        }
      ],
      "name": "getAssetPrice",
      "outputs": [
        {
          "internalType": "uint256",
          "name": "price",
          "type": "uint256"
        }
      ],
      "stateMutability": "view",
      "type": "function"
    },
    {
      "inputs": [
        {
          "internalType": "address[]",
          "name": "assets",
          "type": "address[]"
        }
      ],
      "name": "getAssetsPrices",
      "outputs": [
        {
          "internalType": "uint256[]",
          "name": "prices",
          "type": "uint256[]"
        }
      ],
      "stateMutability": "view",
      "type": "function"
    },
    {
      "inputs": [],
      "name": "getFeedIds",
      "outputs": [
        {
          "internalType": "bytes32[]",
          "name": "",
          "type": "bytes32[]"
        }
      ],
      "stateMutability": "view",
      "type": "function"
    },
    {
      "inputs": [
        {
          "internalType": "address",
          "name": "owner_",
          "type": "address"
        }
      ],
      "name": "initialize",
      "outputs": [],
      "stateMutability": "nonpayable",
      "type": "function"
    },
    {
      "inputs": [
        {
          "internalType": "address",
          "name": "",
          "type": "address"
        }
      ],
      "name": "isOperator",
      "outputs": [
        {
          "internalType": "bool",
          "name": "",
          "type": "bool"
        }
      ],
      "stateMutability": "view",
      "type": "function"
    },
    {
      "inputs": [],
      "name": "owner",
      "outputs": [
        {
          "internalType": "address",
          "name": "",
          "type": "address"
        }
      ],
      "stateMutability": "view",
      "type": "function"
    },
    {
      "inputs": [],
      "name": "pendingOwner",
      "outputs": [
        {
          "internalType": "address",
          "name": "",
          "type": "address"
        }
      ],
      "stateMutability": "view",
      "type": "function"
    },
    {
      "inputs": [
        {
          "internalType": "bytes",
          "name": "performData",
          "type": "bytes"
        }
      ],
      "name": "performUpkeep",
      "outputs": [],
      "stateMutability": "nonpayable",
      "type": "function"
    },
    {
      "inputs": [],
      "name": "proxiableUUID",
      "outputs": [
        {
          "internalType": "bytes32",
          "name": "",
          "type": "bytes32"
        }
      ],
      "stateMutability": "view",
      "type": "function"
    },
    {
      "inputs": [],
      "name": "renounceOwnership",
      "outputs": [],
      "stateMutability": "nonpayable",
      "type": "function"
    },
    {
      "inputs": [
        {
          "internalType": "uint256",
          "name": "bitmap",
          "type": "uint256"
        }
      ],
      "name": "request",
      "outputs": [],
      "stateMutability": "nonpayable",
      "type": "function"
    },
    {
      "inputs": [],
      "name": "requestBitmap",
      "outputs": [
        {
          "internalType": "uint256",
          "name": "",
          "type": "uint256"
        }
      ],
      "stateMutability": "view",
      "type": "function"
    },
    {
      "inputs": [
        {
          "internalType": "address",
          "name": "newFallbackOracle",
          "type": "address"
        }
      ],
      "name": "setFallbackOracle",
      "outputs": [],
      "stateMutability": "nonpayable",
      "type": "function"
    },
    {
      "inputs": [
        {
          "internalType": "bytes32",
          "name": "feedId",
          "type": "bytes32"
        },
        {
          "internalType": "address",
          "name": "asset",
          "type": "address"
        }
      ],
      "name": "setFeed",
      "outputs": [],
      "stateMutability": "nonpayable",
      "type": "function"
    },
    {
      "inputs": [
        {
          "internalType": "address",
          "name": "newForwarder",
          "type": "address"
        }
      ],
      "name": "setForwarder",
      "outputs": [],
      "stateMutability": "nonpayable",
      "type": "function"
    },
    {
      "inputs": [
        {
          "internalType": "address",
          "name": "operator",
          "type": "address"
        },
        {
          "internalType": "bool",
          "name": "status",
          "type": "bool"
        }
      ],
      "name": "setOperator",
      "outputs": [],
      "stateMutability": "nonpayable",
      "type": "function"
    },
    {
      "inputs": [
        {
          "internalType": "address",
          "name": "newOwner",
          "type": "address"
        }
      ],
      "name": "transferOwnership",
      "outputs": [],
      "stateMutability": "nonpayable",
      "type": "function"
    },
    {
      "inputs": [
        {
          "internalType": "address",
          "name": "newImplementation",
          "type": "address"
        },
        {
          "internalType": "bytes",
          "name": "data",
          "type": "bytes"
        }
      ],
      "name": "upgradeToAndCall",
      "outputs": [],
      "stateMutability": "payable",
      "type": "function"
    },
    {
      "inputs": [],
      "name": "verifier",
      "outputs": [
        {
          "internalType": "contract IVerifierProxy",
          "name": "",
          "type": "address"
        }
      ],
      "stateMutability": "view",
      "type": "function"
    }
  ],
  "transactionHash": "0x53770036ab47462d6b415f4bc1cd07ed31f979c1960f9c9173e8e3bd2f7f273a",
  "args": [
    "0x2ff010debc1297f19579b4246cad07bd24f2488a"
  ],
  "numDeployments": 1,
  "solcInputHash": "79e4972a50d3f8124dae78977c03276f",
  "bytecode": "0x60c06040523060805234801562000014575f80fd5b5060405162002b6238038062002b628339810160408190526200003791620000e8565b33806200005d57604051631e4fbdf760e01b81525f600482015260240160405180910390fd5b62000068816200007b565b506001600160a01b031660a05262000117565b600180546001600160a01b0319169055620000968162000099565b50565b5f80546001600160a01b038381166001600160a01b0319831681178455604051919092169283917f8be0079c531659141344cd1fd0a4f28419497f9722a3daafe3b4186f6b6457e09190a35050565b5f60208284031215620000f9575f80fd5b81516001600160a01b038116811462000110575f80fd5b9392505050565b60805160a051612a066200015c5f395f818161029c015281816109ea01528181610c6c015261101601525f818161197c015281816119a50152611b280152612a065ff3fe60806040526004361061020f575f3560e01c80636d70f7ae11610117578063ad3cb1cc116100ac578063c4d66de81161007c578063e30c397811610062578063e30c397814610718578063f2fde38b14610735578063f645d4f914610754575f80fd5b8063c4d66de8146106da578063d845a4b3146106f9575f80fd5b8063ad3cb1cc146105d7578063b3596f071461061f578063b9998a241461063e578063bb8ae5cf1461065d575f80fd5b80638da5cb5b116100e75780638da5cb5b1461054e57806396bfcddd1461056a5780639d23d9f21461058c578063a510d17a146105b8575f80fd5b80636d70f7ae14610471578063715018a6146104af57806379ba5097146104c357806382fd00af146104d7575f80fd5b8063459d6e2f116101a7578063558a729711610177578063629838e51161015d578063629838e5146104295780636404131e14610448578063647846a51461045d575f80fd5b8063558a7297146103f657806360b71d4e14610415575f80fd5b8063459d6e2f1461036e5780634b56a42e146103a25780634f1ef286146103c157806352d1902d146103d4575f80fd5b8063313ce567116101e2578063313ce567146102d65780633ced145b146102f157806340691db4146103305780634585e33b1461034f575f80fd5b80630c518dce146102135780630fb172fb1461023d578063170aee731461026a5780632b7ac3f31461028b575b5f80fd5b34801561021e575f80fd5b50610227610773565b6040516102349190611e37565b60405180910390f35b348015610248575f80fd5b5061025c610257366004611f31565b6107c9565b604051610234929190611fc2565b348015610275575f80fd5b50610289610284366004611ff0565b6107eb565b005b348015610296575f80fd5b506102be7f000000000000000000000000000000000000000000000000000000000000000081565b6040516001600160a01b039091168152602001610234565b3480156102e1575f80fd5b5060405160128152602001610234565b3480156102fc575f80fd5b50610323604051806040016040528060078152602001666665656449447360c81b81525081565b604051610234919061200b565b34801561033b575f80fd5b5061025c61034a36600461201d565b61083c565b34801561035a575f80fd5b506102896103693660046120b9565b610993565b348015610379575f80fd5b5061032360405180604001604052806009815260200168074696d657374616d760bc1b81525081565b3480156103ad575f80fd5b5061025c6103bc3660046120f8565b610e99565b6102896103cf36600461218a565b610ed1565b3480156103df575f80fd5b506103e8610ef0565b604051908152602001610234565b348015610401575f80fd5b506102896104103660046121ce565b610f1e565b348015610420575f80fd5b506103e8610f84565b348015610434575f80fd5b506005546102be906001600160a01b031681565b348015610453575f80fd5b506103e860085481565b348015610468575f80fd5b506102be611013565b34801561047c575f80fd5b5061049f61048b366004611ff0565b60076020525f908152604090205460ff1681565b6040519015158152602001610234565b3480156104ba575f80fd5b506102896110f3565b3480156104ce575f80fd5b50610289611106565b3480156104e2575f80fd5b506105226104f1366004612205565b60036020525f90815260409020546001600160a01b03811690600160a01b90046bffffffffffffffffffffffff1682565b604080516001600160a01b0390931683526bffffffffffffffffffffffff909116602083015201610234565b348015610559575f80fd5b505f546001600160a01b03166102be565b348015610575575f80fd5b5061057e61114a565b60405161023492919061221c565b348015610597575f80fd5b506105ab6105a63660046122be565b61129b565b6040516102349190612353565b3480156105c3575f80fd5b506102896105d2366004612396565b61133b565b3480156105e2575f80fd5b506103236040518060400160405280600581526020017f352e302e3000000000000000000000000000000000000000000000000000000081525081565b34801561062a575f80fd5b506103e8610639366004611ff0565b611458565b348015610649575f80fd5b50610289610658366004611ff0565b611508565b348015610668575f80fd5b506106cd610677366004612205565b604080518082019091525f8082526020820152505f908152600360209081526040918290208251808401909352546001600160a01b0381168352600160a01b90046bffffffffffffffffffffffff169082015290565b60405161023491906123b9565b3480156106e5575f80fd5b506102896106f4366004611ff0565b611559565b348015610704575f80fd5b50610289610713366004612205565b611694565b348015610723575f80fd5b506001546001600160a01b03166102be565b348015610740575f80fd5b5061028961074f366004611ff0565b611719565b34801561075f575f80fd5b506006546102be906001600160a01b031681565b606060028054806020026020016040519081016040528092919081815260200182805480156107bf57602002820191905f5260205f20905b8154815260200190600101908083116107ab575b5050505050905090565b604080518082019091526001808252600360fc1b6020830152905b9250929050565b6107f3611789565b600580546001600160a01b0319166001600160a01b0383169081179091556040517f9a248ffd42eb7f1580b27272ef0a5911b2835eb6fb9951d6fd1b6e3264b9e6e0905f90a250565b6002545f90606090828167ffffffffffffffff81111561085e5761085e611e49565b60405190808252806020026020018201604052801561089157816020015b606081526020019060019003908161087c5790505b506008549091505f805b8481101561090857600183821c1615610900576108d6600282815481106108c4576108c46123e7565b905f5260205f2001545f1c60206117b5565b8483815181106108e8576108e86123e7565b6020026020010181905250816108fd9061240f565b91505b60010161089b565b50808352604051806040016040528060078152602001666665656449447360c81b8152508360405180604001604052806009815260200168074696d657374616d760bc1b8152508a602001356040517ff055e4a200000000000000000000000000000000000000000000000000000000815260040161098a9493929190612427565b60405180910390fd5b6006546001600160a01b031633146109d7576040517f5666e12100000000000000000000000000000000000000000000000000000000815260040160405180910390fd5b5f6109e4828401846124bd565b5090505f7f00000000000000000000000000000000000000000000000000000000000000006001600160a01b03166338416b5b6040518163ffffffff1660e01b8152600401602060405180830381865afa158015610a44573d5f803e3d5ffd5b505050506040513d601f19601f82011682018060405250810190610a689190612572565b90505f816001600160a01b0316633aa5ac076040518163ffffffff1660e01b8152600401602060405180830381865afa158015610aa7573d5f803e3d5ffd5b505050506040513d601f19601f82011682018060405250810190610acb9190612572565b90505f826001600160a01b031663ea4b861b6040518163ffffffff1660e01b8152600401602060405180830381865afa158015610b0a573d5f803e3d5ffd5b505050506040513d601f19601f82011682018060405250810190610b2e9190612572565b90505f5b8451811015610e20575f858281518110610b4e57610b4e6123e7565b602002602001015190505f81806020019051810190610b6d91906125cf565b9150505f866001600160a01b031663e03dab1a3084886040518463ffffffff1660e01b8152600401610ba193929190612662565b60a0604051808303815f875af1158015610bbd573d5f803e3d5ffd5b505050506040513d601f19601f82011682018060405250810190610be191906126f0565b5050602081015190915015610c6957602081015160405163095ea7b360e01b81526001600160a01b03888116600483015260248201929092529086169063095ea7b3906044016020604051808303815f875af1158015610c43573d5f803e3d5ffd5b505050506040513d601f19601f82011682018060405250810190610c67919061272b565b505b5f7f00000000000000000000000000000000000000000000000000000000000000006001600160a01b031663f7e83aee8588604051602001610cba91906001600160a01b0391909116815260200190565b6040516020818303038152906040526040518363ffffffff1660e01b8152600401610ce6929190612746565b5f604051808303815f875af1158015610d01573d5f803e3d5ffd5b505050506040513d5f823e601f3d908101601f19168201604052610d28919081019061276a565b90505f81806020019051810190610d3f91906127e7565b80515f9081526003602052604081205460c08301519293506001600160a01b03169160170b1215610d9c576040517fb55ac75400000000000000000000000000000000000000000000000000000000815260040160405180910390fd5b60c0820180516001600160a01b0383165f8181526004602090815260409182902077ffffffffffffffffffffffffffffffffffffffffffffffff94851690559351905192168252917f95dce27040c59c8b1c445b284f81a3aaae6eecd7d08d5c7684faee64cdb514a1910160405180910390a2505050505050806001019050610b32565b5060405163095ea7b360e01b81526001600160a01b0383811660048301525f602483015282169063095ea7b3906044016020604051808303815f875af1158015610e6c573d5f803e3d5ffd5b505050506040513d601f19601f82011682018060405250810190610e90919061272b565b50505050505050565b5f6060600186868686604051602001610eb594939291906128bc565b6040516020818303038152906040529150915094509492505050565b610ed9611971565b610ee282611a28565b610eec8282611a30565b5050565b5f610ef9611b1d565b507f360894a13ba1a3210667c828492db98dca3e2076cc3735a920a3ca505d382bbc90565b610f26611789565b6001600160a01b0382165f81815260076020908152604091829020805460ff191685151590811790915591519182527f1618a22a3b00b9ac70fd5a82f1f5cdd8cb272bd0f1b740ddf7c26ab05881dd5b910160405180910390a25050565b5f610f8d611013565b6040517f70a082310000000000000000000000000000000000000000000000000000000081523060048201526001600160a01b0391909116906370a0823190602401602060405180830381865afa158015610fea573d5f803e3d5ffd5b505050506040513d601f19601f8201168201806040525081019061100e919061295f565b905090565b5f7f00000000000000000000000000000000000000000000000000000000000000006001600160a01b03166338416b5b6040518163ffffffff1660e01b8152600401602060405180830381865afa158015611070573d5f803e3d5ffd5b505050506040513d601f19601f820116820180604052508101906110949190612572565b6001600160a01b031663ea4b861b6040518163ffffffff1660e01b8152600401602060405180830381865afa1580156110cf573d5f803e3d5ffd5b505050506040513d601f19601f8201168201806040525081019061100e9190612572565b6110fb611789565b6111045f611b66565b565b60015433906001600160a01b0316811461113e5760405163118cdaa760e01b81526001600160a01b038216600482015260240161098a565b61114781611b66565b50565b606080600280548060200260200160405190810160405280929190818152602001828054801561119757602002820191905f5260205f20905b815481526020019060010190808311611183575b50508351939550839250505067ffffffffffffffff8111156111bb576111bb611e49565b6040519080825280602002602001820160405280156111ff57816020015b604080518082019091525f80825260208201528152602001906001900390816111d95790505b5091505f5b818110156112955760035f858381518110611221576112216123e7565b60209081029190910181015182528181019290925260409081015f208151808301909252546001600160a01b0381168252600160a01b90046bffffffffffffffffffffffff16918101919091528351849083908110611282576112826123e7565b6020908102919091010152600101611204565b50509091565b6060815167ffffffffffffffff8111156112b7576112b7611e49565b6040519080825280602002602001820160405280156112e0578160200160208202803683370190505b5090505f5b825181101561133557611310838281518110611303576113036123e7565b6020026020010151611458565b828281518110611322576113226123e7565b60209081029190910101526001016112e5565b50919050565b611343611789565b5f828152600360209081526040808320815180830190925254600160a01b90046bffffffffffffffffffffffff169181018290526001600160a01b038416815291036113df57600254611397906001612976565b6bffffffffffffffffffffffff166020820152600280546001810182555f919091527f405787fa12a823e0f2b7631cc41b3ba8828b3321ca811111fa75cd3aa3bb5ace018390555b5f838152600360209081526040918290208351848301516001600160a01b03909116600160a01b6bffffffffffffffffffffffff9092169182028117909255835187815292830152917f60ff6cb5e63d361e394c82c20168c77145922ca5277d462db0ca260206dcdaee910160405180910390a2505050565b6001600160a01b0381165f9081526004602052604081205490819003611503576005546040517fb3596f070000000000000000000000000000000000000000000000000000000081526001600160a01b0384811660048301529091169063b3596f0790602401602060405180830381865afa1580156114d9573d5f803e3d5ffd5b505050506040513d601f19601f820116820180604052508101906114fd919061295f565b92915050565b919050565b611510611789565b600680546001600160a01b0319166001600160a01b0383169081179091556040517ffb0221b96db51b2e96e4e932300bfb257eb484b8b2e75a4f6961b0bab51a024d905f90a250565b7ff0c57e16840df040f15088dc2f81fe391c3923bec73e23a9662efc9c229c6a00805468010000000000000000810460ff16159067ffffffffffffffff165f811580156115a35750825b90505f8267ffffffffffffffff1660011480156115bf5750303b155b9050811580156115cd575080155b15611604576040517ff92ee8a900000000000000000000000000000000000000000000000000000000815260040160405180910390fd5b845467ffffffffffffffff19166001178555831561163857845468ff00000000000000001916680100000000000000001785555b61164186611b66565b831561168c57845468ff000000000000000019168555604051600181527fc7f505b2f371ae2175ee4913f4499e1f2633a7b5936321eed1cdaeb6115181d29060200160405180910390a15b505050505050565b335f9081526007602052604090205460ff166116dc576040517f7c214f0400000000000000000000000000000000000000000000000000000000815260040160405180910390fd5b600881905560405181815233907fe31c60e37ab1301f69f01b436a1d13486e6c16cc22c888a08c0e64a39230b6ac9060200160405180910390a250565b611721611789565b600180546001600160a01b0383166001600160a01b031990911681179091556117515f546001600160a01b031690565b6001600160a01b03167f38d16b8cac22d99fc7c124b9cd0de2d3fa1faef420bfe791d8c362d765e2270060405160405180910390a350565b5f546001600160a01b031633146111045760405163118cdaa760e01b815233600482015260240161098a565b6060825f6117c4846002612989565b6117cf906002612976565b67ffffffffffffffff8111156117e7576117e7611e49565b6040519080825280601f01601f191660200182016040528015611811576020820181803683370190505b509050600360fc1b815f8151811061182b5761182b6123e7565b60200101906001600160f81b03191690815f1a9053507f780000000000000000000000000000000000000000000000000000000000000081600181518110611875576118756123e7565b60200101906001600160f81b03191690815f1a9053505f611897856002612989565b6118a2906001612976565b90505b6001811115611926577f303132333435363738396162636465660000000000000000000000000000000083600f16601081106118e3576118e36123e7565b1a60f81b8282815181106118f9576118f96123e7565b60200101906001600160f81b03191690815f1a90535060049290921c9161191f816129a0565b90506118a5565b508115611969576040517fe22e27eb000000000000000000000000000000000000000000000000000000008152600481018690526024810185905260440161098a565b949350505050565b306001600160a01b037f0000000000000000000000000000000000000000000000000000000000000000161480611a0a57507f00000000000000000000000000000000000000000000000000000000000000006001600160a01b03166119fe7f360894a13ba1a3210667c828492db98dca3e2076cc3735a920a3ca505d382bbc546001600160a01b031690565b6001600160a01b031614155b156111045760405163703e46dd60e11b815260040160405180910390fd5b611147611789565b816001600160a01b03166352d1902d6040518163ffffffff1660e01b8152600401602060405180830381865afa925050508015611a8a575060408051601f3d908101601f19168201909252611a879181019061295f565b60015b611ab257604051634c9c8ce360e01b81526001600160a01b038316600482015260240161098a565b7f360894a13ba1a3210667c828492db98dca3e2076cc3735a920a3ca505d382bbc8114611b0e576040517faa1d49a40000000000000000000000000000000000000000000000000000000081526004810182905260240161098a565b611b188383611b7f565b505050565b306001600160a01b037f000000000000000000000000000000000000000000000000000000000000000016146111045760405163703e46dd60e11b815260040160405180910390fd5b600180546001600160a01b031916905561114781611bd4565b611b8882611c23565b6040516001600160a01b038316907fbc7cd75a20ee27fd9adebab32041f755214dbc6bffa90cc0225b39da2e5c2d3b905f90a2805115611bcc57611b188282611c99565b610eec611d0b565b5f80546001600160a01b038381166001600160a01b0319831681178455604051919092169283917f8be0079c531659141344cd1fd0a4f28419497f9722a3daafe3b4186f6b6457e09190a35050565b806001600160a01b03163b5f03611c5857604051634c9c8ce360e01b81526001600160a01b038216600482015260240161098a565b7f360894a13ba1a3210667c828492db98dca3e2076cc3735a920a3ca505d382bbc80546001600160a01b0319166001600160a01b0392909216919091179055565b60605f80846001600160a01b031684604051611cb591906129b5565b5f60405180830381855af49150503d805f8114611ced576040519150601f19603f3d011682016040523d82523d5f602084013e611cf2565b606091505b5091509150611d02858383611d43565b95945050505050565b3415611104576040517fb398979f00000000000000000000000000000000000000000000000000000000815260040160405180910390fd5b606082611d5857611d5382611dbb565b611db4565b8151158015611d6f57506001600160a01b0384163b155b15611db1576040517f9996b3150000000000000000000000000000000000000000000000000000000081526001600160a01b038516600482015260240161098a565b50805b9392505050565b805115611dcb5780518082602001fd5b6040517fd6bda27500000000000000000000000000000000000000000000000000000000815260040160405180910390fd5b5f815180845260208085019450602084015f5b83811015611e2c57815187529582019590820190600101611e10565b509495945050505050565b602081525f611db46020830184611dfd565b634e487b7160e01b5f52604160045260245ffd5b604051610120810167ffffffffffffffff81118282101715611e8157611e81611e49565b60405290565b604051601f8201601f1916810167ffffffffffffffff81118282101715611eb057611eb0611e49565b604052919050565b5f67ffffffffffffffff821115611ed157611ed1611e49565b50601f01601f191660200190565b5f82601f830112611eee575f80fd5b8135611f01611efc82611eb8565b611e87565b818152846020838601011115611f15575f80fd5b816020850160208301375f918101602001919091529392505050565b5f8060408385031215611f42575f80fd5b82359150602083013567ffffffffffffffff811115611f5f575f80fd5b611f6b85828601611edf565b9150509250929050565b5f5b83811015611f8f578181015183820152602001611f77565b50505f910152565b5f8151808452611fae816020860160208601611f75565b601f01601f19169290920160200192915050565b8215158152604060208201525f6119696040830184611f97565b6001600160a01b0381168114611147575f80fd5b5f60208284031215612000575f80fd5b8135611db481611fdc565b602081525f611db46020830184611f97565b5f806040838503121561202e575f80fd5b823567ffffffffffffffff80821115612045575f80fd5b908401906101008287031215612059575f80fd5b9092506020840135908082111561206e575f80fd5b50611f6b85828601611edf565b5f8083601f84011261208b575f80fd5b50813567ffffffffffffffff8111156120a2575f80fd5b6020830191508360208285010111156107e4575f80fd5b5f80602083850312156120ca575f80fd5b823567ffffffffffffffff8111156120e0575f80fd5b6120ec8582860161207b565b90969095509350505050565b5f805f806040858703121561210b575f80fd5b843567ffffffffffffffff80821115612122575f80fd5b818701915087601f830112612135575f80fd5b813581811115612143575f80fd5b8860208260051b8501011115612157575f80fd5b602092830196509450908601359080821115612171575f80fd5b5061217e8782880161207b565b95989497509550505050565b5f806040838503121561219b575f80fd5b82356121a681611fdc565b9150602083013567ffffffffffffffff811115611f5f575f80fd5b8015158114611147575f80fd5b5f80604083850312156121df575f80fd5b82356121ea81611fdc565b915060208301356121fa816121c1565b809150509250929050565b5f60208284031215612215575f80fd5b5035919050565b5f604080835261222f6040840186611dfd565b8381036020858101919091528551808352868201928201905f5b8181101561228d5761227d83865180516001600160a01b031682526020908101516bffffffffffffffffffffffff16910152565b9383019391850191600101612249565b509098975050505050505050565b5f67ffffffffffffffff8211156122b4576122b4611e49565b5060051b60200190565b5f60208083850312156122cf575f80fd5b823567ffffffffffffffff8111156122e5575f80fd5b8301601f810185136122f5575f80fd5b8035612303611efc8261229b565b81815260059190911b82018301908381019087831115612321575f80fd5b928401925b8284101561234857833561233981611fdc565b82529284019290840190612326565b979650505050505050565b602080825282518282018190525f9190848201906040850190845b8181101561238a5783518352928401929184019160010161236e565b50909695505050505050565b5f80604083850312156123a7575f80fd5b8235915060208301356121fa81611fdc565b81516001600160a01b031681526020808301516bffffffffffffffffffffffff1690820152604081016114fd565b634e487b7160e01b5f52603260045260245ffd5b634e487b7160e01b5f52601160045260245ffd5b5f60018201612420576124206123fb565b5060010190565b60a081525f61243960a0830187611f97565b6020838203818501528187518084528284019150828160051b850101838a015f5b8381101561248857601f19878403018552612476838351611f97565b9486019492509085019060010161245a565b5050868103604088015261249c818a611f97565b9450505050508360608401528281036080840152612348815f815260200190565b5f80604083850312156124ce575f80fd5b823567ffffffffffffffff808211156124e5575f80fd5b818501915085601f8301126124f8575f80fd5b81356020612508611efc8361229b565b82815260059290921b84018101918181019089841115612526575f80fd5b8286015b8481101561255c57803586811115612540575f80fd5b61254e8c86838b0101611edf565b84525091830191830161252a565b509650508601359250508082111561206e575f80fd5b5f60208284031215612582575f80fd5b8151611db481611fdc565b5f82601f83011261259c575f80fd5b81516125aa611efc82611eb8565b8181528460208386010111156125be575f80fd5b611969826020830160208701611f75565b5f80608083850312156125e0575f80fd5b83601f8401126125ee575f80fd5b6040516060810167ffffffffffffffff828210818311171561261257612612611e49565b816040528291506060860187811115612629575f80fd5b865b8181101561264357805184526020938401930161262b565b505192945080831115612654575f80fd5b5050611f6b8582860161258d565b5f6001600160a01b038086168352606060208401526126846060840186611f97565b9150808416604084015250949350505050565b5f604082840312156126a7575f80fd5b6040516040810181811067ffffffffffffffff821117156126ca576126ca611e49565b806040525080915082516126dd81611fdc565b8152602092830151920191909152919050565b5f805f60a08486031215612702575f80fd5b61270c8585612697565b925061271b8560408601612697565b9150608084015190509250925092565b5f6020828403121561273b575f80fd5b8151611db4816121c1565b604081525f6127586040830185611f97565b8281036020840152611d028185611f97565b5f6020828403121561277a575f80fd5b815167ffffffffffffffff811115612790575f80fd5b6119698482850161258d565b805163ffffffff81168114611503575f80fd5b805177ffffffffffffffffffffffffffffffffffffffffffffffff81168114611503575f80fd5b8051601781900b8114611503575f80fd5b5f61012082840312156127f8575f80fd5b612800611e5d565b825181526128106020840161279c565b60208201526128216040840161279c565b6040820152612832606084016127af565b6060820152612843608084016127af565b608082015261285460a0840161279c565b60a082015261286560c084016127d6565b60c082015261287660e084016127d6565b60e08201526101006128898185016127d6565b908201529392505050565b81835281816020850137505f828201602090810191909152601f909101601f19169091010190565b604080825281018490525f6060600586901b8301810190830187835b8881101561294957858403605f190183528135368b9003601e190181126128fd575f80fd5b8a01602081810191359067ffffffffffffffff82111561291b575f80fd5b813603831315612929575f80fd5b612934878385612894565b965094850194939093019250506001016128d8565b5050508281036020840152612348818587612894565b5f6020828403121561296f575f80fd5b5051919050565b808201808211156114fd576114fd6123fb565b80820281158282048414176114fd576114fd6123fb565b5f816129ae576129ae6123fb565b505f190190565b5f82516129c6818460208701611f75565b919091019291505056fea2646970667358221220fec237f8fef044df4a163841addb51f71d6d63fe361db6b7a0728f51c5b418a264736f6c63430008180033",
  "devdoc": {
    "errors": {
      "AddressEmptyCode(address)": [
        {
          "details": "There's no code at `target` (it is not a contract)."
        }
      ],
      "ERC1967InvalidImplementation(address)": [
        {
          "details": "The `implementation` of the proxy is invalid."
        }
      ],
      "ERC1967NonPayable()": [
        {
          "details": "An upgrade function sees `msg.value > 0` that may be lost."
        }
      ],
      "FailedCall()": [
        {
          "details": "A call to an address target failed. The target may have reverted."
        }
      ],
      "InvalidInitialization()": [
        {
          "details": "The contract is already initialized."
        }
      ],
      "NotInitializing()": [
        {
          "details": "The contract is not initializing."
        }
      ],
      "OwnableInvalidOwner(address)": [
        {
          "details": "The owner is not a valid owner account. (eg. `address(0)`)"
        }
      ],
      "OwnableUnauthorizedAccount(address)": [
        {
          "details": "The caller account is not authorized to perform an operation."
        }
      ],
      "StringsInsufficientHexLength(uint256,uint256)": [
        {
          "details": "The `value` string doesn't fit in the specified `length`."
        }
      ],
      "UUPSUnauthorizedCallContext()": [
        {
          "details": "The call is from an unauthorized context."
        }
      ],
      "UUPSUnsupportedProxiableUUID(bytes32)": [
        {
          "details": "The storage `slot` is unsupported as a UUID."
        }
      ]
    },
    "events": {
      "Initialized(uint64)": {
        "details": "Triggered when the contract has been initialized or reinitialized."
      },
      "Upgraded(address)": {
        "details": "Emitted when the implementation is upgraded."
      }
    },
    "kind": "dev",
    "methods": {
      "acceptOwnership()": {
        "details": "The new owner accepts the ownership transfer."
      },
      "checkCallback(bytes[],bytes)": {
        "params": {
          "extraData": "context data from streams lookup process.",
          "values": "an array of bytes returned from data streams endpoint."
        },
        "returns": {
          "_0": "boolean to indicate whether the keeper should call performUpkeep or not.",
          "_1": "bytes that the keeper should call performUpkeep with, if upkeep is needed. If you would like to encode data to decode later, try `abi.encode`."
        }
      },
      "checkErrorHandler(uint256,bytes)": {
        "returns": {
          "_0": "upkeepNeeded boolean to indicate whether the keeper should call performUpkeep or not.",
          "_1": "performData bytes that the keeper should call performUpkeep with, if upkeep is needed. If you would like to encode data to decode later, try `abi.encode`."
        }
      },
      "decimals()": {
        "returns": {
          "_0": "The number of decimals."
        }
      },
      "getAssetPrice(address)": {
        "params": {
          "asset": "The address of the asset."
        },
        "returns": {
          "price": "The price of the asset."
        }
      },
      "getAssetsPrices(address[])": {
        "params": {
          "assets": "The list of asset addresses."
        },
        "returns": {
          "prices": "The list of prices for the specified assets."
        }
      },
      "owner()": {
        "details": "Returns the address of the current owner."
      },
      "pendingOwner()": {
        "details": "Returns the address of the pending owner."
      },
      "performUpkeep(bytes)": {
        "details": "The input to this method should not be trusted, and the caller of the method should not even be restricted to any single registry. Anyone should be able call it, and the input should be validated, there is no guarantee that the data passed in is the performData returned from checkUpkeep. This could happen due to malicious keepers, racing keepers, or simply a state change while the performUpkeep transaction is waiting for confirmation. Always validate the data passed in.",
        "params": {
          "performData": "is the data which was passed back from the checkData simulation. If it is encoded, it can easily be decoded into other types by calling `abi.decode`. This data should not be trusted, and should be validated against the contract's current state."
        }
      },
      "proxiableUUID()": {
        "details": "Implementation of the ERC-1822 {proxiableUUID} function. This returns the storage slot used by the implementation. It is used to validate the implementation's compatibility when performing an upgrade. IMPORTANT: A proxy pointing at a proxiable contract should not be considered proxiable itself, because this risks bricking a proxy that upgrades to it, by delegating to itself until out of gas. Thus it is critical that this function revert if invoked through a proxy. This is guaranteed by the `notDelegated` modifier."
      },
      "renounceOwnership()": {
        "details": "Leaves the contract without owner. It will not be possible to call `onlyOwner` functions. Can only be called by the current owner. NOTE: Renouncing ownership will leave the contract without an owner, thereby disabling any functionality that is only available to the owner."
      },
      "transferOwnership(address)": {
        "details": "Starts the ownership transfer of the contract to a new account. Replaces the pending transfer if there is one. Can only be called by the current owner. Setting `newOwner` to the zero address is allowed; this can be used to cancel an initiated ownership transfer."
      },
      "upgradeToAndCall(address,bytes)": {
        "custom:oz-upgrades-unsafe-allow-reachable": "delegatecall",
        "details": "Upgrade the implementation of the proxy to `newImplementation`, and subsequently execute the function call encoded in `data`. Calls {_authorizeUpgrade}. Emits an {Upgraded} event."
      }
    },
    "version": 1
  },
  "userdoc": {
    "kind": "user",
    "methods": {
      "checkCallback(bytes[],bytes)": {
        "notice": "any contract which wants to utilize StreamsLookup feature needs to implement this interface as well as the automation compatible interface."
      },
      "checkErrorHandler(uint256,bytes)": {
        "notice": "this is a new, optional function in streams lookup. It is meant to surface streams lookup errors."
      },
      "decimals()": {
        "notice": "Retrieves the number of decimals used by the oracle."
      },
      "getAssetPrice(address)": {
        "notice": "Retrieves the price of a specified asset."
      },
      "getAssetsPrices(address[])": {
        "notice": "Retrieves the prices of a list of specified assets."
      },
      "performUpkeep(bytes)": {
        "notice": "method that is actually executed by the keepers, via the registry. The data returned by the checkUpkeep simulation will be passed into this method to actually be executed."
      }
    },
    "version": 1
  },
  "storageLayout": {
    "storage": [
      {
        "astId": 8,
        "contract": "src/oracle/DatastreamOracle.sol:DatastreamOracle",
        "label": "_owner",
        "offset": 0,
        "slot": "0",
        "type": "t_address"
      },
      {
        "astId": 156,
        "contract": "src/oracle/DatastreamOracle.sol:DatastreamOracle",
        "label": "_pendingOwner",
        "offset": 0,
        "slot": "1",
        "type": "t_address"
      },
      {
        "astId": 15603,
        "contract": "src/oracle/DatastreamOracle.sol:DatastreamOracle",
        "label": "_feedIds",
        "offset": 0,
        "slot": "2",
        "type": "t_array(t_bytes32)dyn_storage"
      },
      {
        "astId": 15608,
        "contract": "src/oracle/DatastreamOracle.sol:DatastreamOracle",
        "label": "_feedData",
        "offset": 0,
        "slot": "3",
        "type": "t_mapping(t_bytes32,t_struct(FeedData)14113_storage)"
      },
      {
        "astId": 15612,
        "contract": "src/oracle/DatastreamOracle.sol:DatastreamOracle",
        "label": "_assetToPrice",
        "offset": 0,
        "slot": "4",
        "type": "t_mapping(t_address,t_uint256)"
      },
      {
        "astId": 15614,
        "contract": "src/oracle/DatastreamOracle.sol:DatastreamOracle",
        "label": "fallbackOracle",
        "offset": 0,
        "slot": "5",
        "type": "t_address"
      },
      {
        "astId": 15616,
        "contract": "src/oracle/DatastreamOracle.sol:DatastreamOracle",
        "label": "forwarder",
        "offset": 0,
        "slot": "6",
        "type": "t_address"
      },
      {
        "astId": 15620,
        "contract": "src/oracle/DatastreamOracle.sol:DatastreamOracle",
        "label": "isOperator",
        "offset": 0,
        "slot": "7",
        "type": "t_mapping(t_address,t_bool)"
      },
      {
        "astId": 15622,
        "contract": "src/oracle/DatastreamOracle.sol:DatastreamOracle",
        "label": "requestBitmap",
        "offset": 0,
        "slot": "8",
        "type": "t_uint256"
      }
    ],
    "types": {
      "t_address": {
        "encoding": "inplace",
        "label": "address",
        "numberOfBytes": "20"
      },
      "t_array(t_bytes32)dyn_storage": {
        "base": "t_bytes32",
        "encoding": "dynamic_array",
        "label": "bytes32[]",
        "numberOfBytes": "32"
      },
      "t_bool": {
        "encoding": "inplace",
        "label": "bool",
        "numberOfBytes": "1"
      },
      "t_bytes32": {
        "encoding": "inplace",
        "label": "bytes32",
        "numberOfBytes": "32"
      },
      "t_mapping(t_address,t_bool)": {
        "encoding": "mapping",
        "key": "t_address",
        "label": "mapping(address => bool)",
        "numberOfBytes": "32",
        "value": "t_bool"
      },
      "t_mapping(t_address,t_uint256)": {
        "encoding": "mapping",
        "key": "t_address",
        "label": "mapping(address => uint256)",
        "numberOfBytes": "32",
        "value": "t_uint256"
      },
      "t_mapping(t_bytes32,t_struct(FeedData)14113_storage)": {
        "encoding": "mapping",
        "key": "t_bytes32",
        "label": "mapping(bytes32 => struct IDatastreamOracle.FeedData)",
        "numberOfBytes": "32",
        "value": "t_struct(FeedData)14113_storage"
      },
      "t_struct(FeedData)14113_storage": {
        "encoding": "inplace",
        "label": "struct IDatastreamOracle.FeedData",
        "members": [
          {
            "astId": 14110,
            "contract": "src/oracle/DatastreamOracle.sol:DatastreamOracle",
            "label": "asset",
            "offset": 0,
            "slot": "0",
            "type": "t_address"
          },
          {
            "astId": 14112,
            "contract": "src/oracle/DatastreamOracle.sol:DatastreamOracle",
            "label": "index",
            "offset": 20,
            "slot": "0",
            "type": "t_uint96"
          }
        ],
        "numberOfBytes": "32"
      },
      "t_uint256": {
        "encoding": "inplace",
        "label": "uint256",
        "numberOfBytes": "32"
      },
      "t_uint96": {
        "encoding": "inplace",
        "label": "uint96",
        "numberOfBytes": "12"
      }
    }
  }
}