{
  "address": "0x5552C120f0dCb31D9849CF8FB4ED10F1aF771421",
  "abi": [
    {
      "inputs": [
        {
          "internalType": "address",
          "name": "target",
          "type": "address"
        }
      ],
      "name": "AddressEmptyCode",
      "type": "error"
    },
    {
      "inputs": [],
      "name": "FailedCall",
      "type": "error"
    },
    {
      "inputs": [
        {
          "internalType": "uint256",
          "name": "balance",
          "type": "uint256"
        },
        {
          "internalType": "uint256",
          "name": "needed",
          "type": "uint256"
        }
      ],
      "name": "InsufficientBalance",
      "type": "error"
    },
    {
      "inputs": [
        {
          "internalType": "address",
          "name": "token",
          "type": "address"
        }
      ],
      "name": "SafeERC20FailedOperation",
      "type": "error"
    },
    {
      "inputs": [
        {
          "internalType": "address",
          "name": "tokenIn",
          "type": "address"
        },
        {
          "internalType": "uint256",
          "name": "amountIn",
          "type": "uint256"
        },
        {
          "internalType": "address",
          "name": "tokenOut",
          "type": "address"
        },
        {
          "internalType": "uint256",
          "name": "amountOut",
          "type": "uint256"
        }
      ],
      "name": "swap",
      "outputs": [],
      "stateMutability": "nonpayable",
      "type": "function"
    },
    {
      "inputs": [
        {
          "internalType": "address",
          "name": "tokenOut",
          "type": "address"
        },
        {
          "internalType": "uint256",
          "name": "amountOut",
          "type": "uint256"
        }
      ],
      "name": "swapEthForToken",
      "outputs": [],
      "stateMutability": "payable",
      "type": "function"
    }
  ],
  "transactionHash": "0xf00aa90ca4a54503af38226989d6841d9c332f95d3fd702c7f9f0d67bfb27a37",
  "args": [],
  "numDeployments": 1,
  "solcInputHash": "c4f25011df42a1c51373f855a0b8193d",
  "bytecode": "0x6080604052348015600e575f80fd5b506104da8061001c5f395ff3fe608060405260043610610028575f3560e01c80631874d3bd1461002c5780638a0ccd5614610041575b5f80fd5b61003f61003a366004610406565b610060565b005b34801561004c575f80fd5b5061003f61005b36600461042e565b61010c565b5f34116100f4576040517f08c379a000000000000000000000000000000000000000000000000000000000815260206004820152602a60248201527f4d6f636b537761703a204554482076616c7565206d757374206265206772656160448201527f746572207468616e20300000000000000000000000000000000000000000000060648201526084015b60405180910390fd5b6101086001600160a01b038316338361013b565b5050565b6101216001600160a01b0385163330866101b4565b6101356001600160a01b038316338361013b565b50505050565b6040516001600160a01b038381166024830152604482018390526101af91859182169063a9059cbb906064015b604051602081830303815290604052915060e01b6020820180517bffffffffffffffffffffffffffffffffffffffffffffffffffffffff83818316178352505050506101ed565b505050565b6040516001600160a01b0384811660248301528381166044830152606482018390526101359186918216906323b872dd90608401610168565b5f6102016001600160a01b03841683610267565b905080515f14158015610225575080806020019051810190610223919061046f565b155b156101af576040517f5274afe70000000000000000000000000000000000000000000000000000000081526001600160a01b03841660048201526024016100eb565b606061027483835f61027b565b9392505050565b6060814710156102c0576040517fcf479181000000000000000000000000000000000000000000000000000000008152476004820152602481018390526044016100eb565b5f80856001600160a01b031684866040516102db919061048e565b5f6040518083038185875af1925050503d805f8114610315576040519150601f19603f3d011682016040523d82523d5f602084013e61031a565b606091505b509150915061032a868383610334565b9695505050505050565b60608261034957610344826103a9565b610274565b815115801561036057506001600160a01b0384163b155b156103a2576040517f9996b3150000000000000000000000000000000000000000000000000000000081526001600160a01b03851660048201526024016100eb565b5080610274565b8051156103b95780518082602001fd5b6040517fd6bda27500000000000000000000000000000000000000000000000000000000815260040160405180910390fd5b80356001600160a01b0381168114610401575f80fd5b919050565b5f8060408385031215610417575f80fd5b610420836103eb565b946020939093013593505050565b5f805f8060808587031215610441575f80fd5b61044a856103eb565b93506020850135925061045f604086016103eb565b9396929550929360600135925050565b5f6020828403121561047f575f80fd5b81518015158114610274575f80fd5b5f82518060208501845e5f92019182525091905056fea26469706673582212209e0cb0a7bbd51e70802f752440dcd976fe5d1613a008b29243744170093ffce864736f6c63430008190033",
  "devdoc": {
    "errors": {
      "AddressEmptyCode(address)": [
        {
          "details": "There's no code at `target` (it is not a contract)."
        }
      ],
      "FailedCall()": [
        {
          "details": "A call to an address target failed. The target may have reverted."
        }
      ],
      "InsufficientBalance(uint256,uint256)": [
        {
          "details": "The ETH balance of the account is not enough to perform the operation."
        }
      ],
      "SafeERC20FailedOperation(address)": [
        {
          "details": "An operation with an ERC-20 token failed."
        }
      ]
    },
    "kind": "dev",
    "methods": {},
    "version": 1
  },
  "userdoc": {
    "kind": "user",
    "methods": {},
    "version": 1
  },
  "storageLayout": {
    "storage": [],
    "types": null
  }
}