{
  "address": "0x9D9cdcD693bc9aC4EbbD2e190F3cd616Ede02061",
  "abi": [
    {
      "inputs": [
        {
          "internalType": "contract IOracle",
          "name": "referenceOracle_",
          "type": "address"
        },
        {
          "internalType": "contract IRebalancer",
          "name": "rebalancer_",
          "type": "address"
        },
        {
          "internalType": "contract IBookManager",
          "name": "bookManager_",
          "type": "address"
        },
        {
          "internalType": "address",
          "name": "initialOwner",
          "type": "address"
        }
      ],
      "stateMutability": "nonpayable",
      "type": "constructor"
    },
    {
      "inputs": [],
      "name": "ExceedsThreshold",
      "type": "error"
    },
    {
      "inputs": [],
      "name": "InvalidAccess",
      "type": "error"
    },
    {
      "inputs": [],
      "name": "InvalidConfig",
      "type": "error"
    },
    {
      "inputs": [],
      "name": "InvalidOraclePrice",
      "type": "error"
    },
    {
      "inputs": [],
      "name": "InvalidPrice",
      "type": "error"
    },
    {
      "inputs": [],
      "name": "InvalidTick",
      "type": "error"
    },
    {
      "inputs": [],
      "name": "InvalidValue",
      "type": "error"
    },
    {
      "inputs": [],
      "name": "NotOperator",
      "type": "error"
    },
    {
      "inputs": [
        {
          "internalType": "address",
          "name": "owner",
          "type": "address"
        }
      ],
      "name": "OwnableInvalidOwner",
      "type": "error"
    },
    {
      "inputs": [
        {
          "internalType": "address",
          "name": "account",
          "type": "address"
        }
      ],
      "name": "OwnableUnauthorizedAccount",
      "type": "error"
    },
    {
      "inputs": [],
      "name": "Paused",
      "type": "error"
    },
    {
      "inputs": [
        {
          "internalType": "uint8",
          "name": "bits",
          "type": "uint8"
        },
        {
          "internalType": "uint256",
          "name": "value",
          "type": "uint256"
        }
      ],
      "name": "SafeCastOverflowedUintDowncast",
      "type": "error"
    },
    {
      "anonymous": false,
      "inputs": [
        {
          "indexed": true,
          "internalType": "address",
          "name": "previousOwner",
          "type": "address"
        },
        {
          "indexed": true,
          "internalType": "address",
          "name": "newOwner",
          "type": "address"
        }
      ],
      "name": "OwnershipTransferStarted",
      "type": "event"
    },
    {
      "anonymous": false,
      "inputs": [
        {
          "indexed": true,
          "internalType": "address",
          "name": "previousOwner",
          "type": "address"
        },
        {
          "indexed": true,
          "internalType": "address",
          "name": "newOwner",
          "type": "address"
        }
      ],
      "name": "OwnershipTransferred",
      "type": "event"
    },
    {
      "anonymous": false,
      "inputs": [
        {
          "indexed": true,
          "internalType": "bytes32",
          "name": "key",
          "type": "bytes32"
        }
      ],
      "name": "Pause",
      "type": "event"
    },
    {
      "anonymous": false,
      "inputs": [
        {
          "indexed": true,
          "internalType": "address",
          "name": "operator",
          "type": "address"
        },
        {
          "indexed": false,
          "internalType": "bool",
          "name": "status",
          "type": "bool"
        }
      ],
      "name": "SetOperator",
      "type": "event"
    },
    {
      "anonymous": false,
      "inputs": [
        {
          "indexed": true,
          "internalType": "bytes32",
          "name": "key",
          "type": "bytes32"
        }
      ],
      "name": "Unpause",
      "type": "event"
    },
    {
      "anonymous": false,
      "inputs": [
        {
          "indexed": true,
          "internalType": "bytes32",
          "name": "key",
          "type": "bytes32"
        },
        {
          "components": [
            {
              "internalType": "uint24",
              "name": "referenceThreshold",
              "type": "uint24"
            },
            {
              "internalType": "uint24",
              "name": "rebalanceThreshold",
              "type": "uint24"
            },
            {
              "internalType": "uint24",
              "name": "rateA",
              "type": "uint24"
            },
            {
              "internalType": "uint24",
              "name": "rateB",
              "type": "uint24"
            },
            {
              "internalType": "uint24",
              "name": "minRateA",
              "type": "uint24"
            },
            {
              "internalType": "uint24",
              "name": "minRateB",
              "type": "uint24"
            },
            {
              "internalType": "uint24",
              "name": "priceThresholdA",
              "type": "uint24"
            },
            {
              "internalType": "uint24",
              "name": "priceThresholdB",
              "type": "uint24"
            }
          ],
          "indexed": false,
          "internalType": "struct ISimpleOracleStrategy.Config",
          "name": "config",
          "type": "tuple"
        }
      ],
      "name": "UpdateConfig",
      "type": "event"
    },
    {
      "anonymous": false,
      "inputs": [
        {
          "indexed": true,
          "internalType": "bytes32",
          "name": "key",
          "type": "bytes32"
        },
        {
          "indexed": false,
          "internalType": "uint256",
          "name": "oraclePrice",
          "type": "uint256"
        },
        {
          "indexed": false,
          "internalType": "Tick",
          "name": "tickA",
          "type": "int24"
        },
        {
          "indexed": false,
          "internalType": "Tick",
          "name": "tickB",
          "type": "int24"
        },
        {
          "indexed": false,
          "internalType": "uint256",
          "name": "rate",
          "type": "uint256"
        }
      ],
      "name": "UpdatePosition",
      "type": "event"
    },
    {
      "inputs": [],
      "name": "LAST_RAW_AMOUNT_MASK",
      "outputs": [
        {
          "internalType": "uint256",
          "name": "",
          "type": "uint256"
        }
      ],
      "stateMutability": "view",
      "type": "function"
    },
    {
      "inputs": [],
      "name": "RATE_PRECISION",
      "outputs": [
        {
          "internalType": "uint256",
          "name": "",
          "type": "uint256"
        }
      ],
      "stateMutability": "view",
      "type": "function"
    },
    {
      "inputs": [],
      "name": "acceptOwnership",
      "outputs": [],
      "stateMutability": "nonpayable",
      "type": "function"
    },
    {
      "inputs": [],
      "name": "bookManager",
      "outputs": [
        {
          "internalType": "contract IBookManager",
          "name": "",
          "type": "address"
        }
      ],
      "stateMutability": "view",
      "type": "function"
    },
    {
      "inputs": [
        {
          "internalType": "address",
          "name": "",
          "type": "address"
        },
        {
          "internalType": "bytes32",
          "name": "key",
          "type": "bytes32"
        },
        {
          "internalType": "uint256",
          "name": "burnAmount",
          "type": "uint256"
        },
        {
          "internalType": "uint256",
          "name": "lastTotalSupply",
          "type": "uint256"
        }
      ],
      "name": "burnHook",
      "outputs": [],
      "stateMutability": "nonpayable",
      "type": "function"
    },
    {
      "inputs": [
        {
          "internalType": "bytes32",
          "name": "key",
          "type": "bytes32"
        }
      ],
      "name": "computeOrders",
      "outputs": [
        {
          "components": [
            {
              "internalType": "Tick",
              "name": "tick",
              "type": "int24"
            },
            {
              "internalType": "uint64",
              "name": "rawAmount",
              "type": "uint64"
            }
          ],
          "internalType": "struct IStrategy.Order[]",
          "name": "ordersA",
          "type": "tuple[]"
        },
        {
          "components": [
            {
              "internalType": "Tick",
              "name": "tick",
              "type": "int24"
            },
            {
              "internalType": "uint64",
              "name": "rawAmount",
              "type": "uint64"
            }
          ],
          "internalType": "struct IStrategy.Order[]",
          "name": "ordersB",
          "type": "tuple[]"
        }
      ],
      "stateMutability": "view",
      "type": "function"
    },
    {
      "inputs": [
        {
          "internalType": "bytes32",
          "name": "key",
          "type": "bytes32"
        }
      ],
      "name": "getConfig",
      "outputs": [
        {
          "components": [
            {
              "internalType": "uint24",
              "name": "referenceThreshold",
              "type": "uint24"
            },
            {
              "internalType": "uint24",
              "name": "rebalanceThreshold",
              "type": "uint24"
            },
            {
              "internalType": "uint24",
              "name": "rateA",
              "type": "uint24"
            },
            {
              "internalType": "uint24",
              "name": "rateB",
              "type": "uint24"
            },
            {
              "internalType": "uint24",
              "name": "minRateA",
              "type": "uint24"
            },
            {
              "internalType": "uint24",
              "name": "minRateB",
              "type": "uint24"
            },
            {
              "internalType": "uint24",
              "name": "priceThresholdA",
              "type": "uint24"
            },
            {
              "internalType": "uint24",
              "name": "priceThresholdB",
              "type": "uint24"
            }
          ],
          "internalType": "struct ISimpleOracleStrategy.Config",
          "name": "",
          "type": "tuple"
        }
      ],
      "stateMutability": "view",
      "type": "function"
    },
    {
      "inputs": [
        {
          "internalType": "bytes32",
          "name": "key",
          "type": "bytes32"
        }
      ],
      "name": "getLastRawAmount",
      "outputs": [
        {
          "internalType": "uint256",
          "name": "",
          "type": "uint256"
        },
        {
          "internalType": "uint256",
          "name": "",
          "type": "uint256"
        }
      ],
      "stateMutability": "view",
      "type": "function"
    },
    {
      "inputs": [
        {
          "internalType": "bytes32",
          "name": "key",
          "type": "bytes32"
        }
      ],
      "name": "getPosition",
      "outputs": [
        {
          "components": [
            {
              "internalType": "bool",
              "name": "paused",
              "type": "bool"
            },
            {
              "internalType": "uint128",
              "name": "oraclePrice",
              "type": "uint128"
            },
            {
              "internalType": "uint24",
              "name": "rate",
              "type": "uint24"
            },
            {
              "internalType": "Tick",
              "name": "tickA",
              "type": "int24"
            },
            {
              "internalType": "Tick",
              "name": "tickB",
              "type": "int24"
            }
          ],
          "internalType": "struct ISimpleOracleStrategy.Position",
          "name": "",
          "type": "tuple"
        }
      ],
      "stateMutability": "view",
      "type": "function"
    },
    {
      "inputs": [
        {
          "internalType": "address",
          "name": "",
          "type": "address"
        }
      ],
      "name": "isOperator",
      "outputs": [
        {
          "internalType": "bool",
          "name": "",
          "type": "bool"
        }
      ],
      "stateMutability": "view",
      "type": "function"
    },
    {
      "inputs": [
        {
          "internalType": "bytes32",
          "name": "key",
          "type": "bytes32"
        }
      ],
      "name": "isOraclePriceValid",
      "outputs": [
        {
          "internalType": "bool",
          "name": "",
          "type": "bool"
        }
      ],
      "stateMutability": "view",
      "type": "function"
    },
    {
      "inputs": [
        {
          "internalType": "bytes32",
          "name": "key",
          "type": "bytes32"
        }
      ],
      "name": "isPaused",
      "outputs": [
        {
          "internalType": "bool",
          "name": "",
          "type": "bool"
        }
      ],
      "stateMutability": "view",
      "type": "function"
    },
    {
      "inputs": [
        {
          "internalType": "address",
          "name": "",
          "type": "address"
        },
        {
          "internalType": "bytes32",
          "name": "",
          "type": "bytes32"
        },
        {
          "internalType": "uint256",
          "name": "",
          "type": "uint256"
        },
        {
          "internalType": "uint256",
          "name": "",
          "type": "uint256"
        }
      ],
      "name": "mintHook",
      "outputs": [],
      "stateMutability": "view",
      "type": "function"
    },
    {
      "inputs": [],
      "name": "owner",
      "outputs": [
        {
          "internalType": "address",
          "name": "",
          "type": "address"
        }
      ],
      "stateMutability": "view",
      "type": "function"
    },
    {
      "inputs": [
        {
          "internalType": "bytes32",
          "name": "key",
          "type": "bytes32"
        }
      ],
      "name": "pause",
      "outputs": [],
      "stateMutability": "nonpayable",
      "type": "function"
    },
    {
      "inputs": [],
      "name": "pendingOwner",
      "outputs": [
        {
          "internalType": "address",
          "name": "",
          "type": "address"
        }
      ],
      "stateMutability": "view",
      "type": "function"
    },
    {
      "inputs": [
        {
          "internalType": "address",
          "name": "",
          "type": "address"
        },
        {
          "internalType": "bytes32",
          "name": "key",
          "type": "bytes32"
        },
        {
          "components": [
            {
              "internalType": "Tick",
              "name": "tick",
              "type": "int24"
            },
            {
              "internalType": "uint64",
              "name": "rawAmount",
              "type": "uint64"
            }
          ],
          "internalType": "struct IStrategy.Order[]",
          "name": "liquidityA",
          "type": "tuple[]"
        },
        {
          "components": [
            {
              "internalType": "Tick",
              "name": "tick",
              "type": "int24"
            },
            {
              "internalType": "uint64",
              "name": "rawAmount",
              "type": "uint64"
            }
          ],
          "internalType": "struct IStrategy.Order[]",
          "name": "liquidityB",
          "type": "tuple[]"
        }
      ],
      "name": "rebalanceHook",
      "outputs": [],
      "stateMutability": "nonpayable",
      "type": "function"
    },
    {
      "inputs": [],
      "name": "rebalancer",
      "outputs": [
        {
          "internalType": "contract IRebalancer",
          "name": "",
          "type": "address"
        }
      ],
      "stateMutability": "view",
      "type": "function"
    },
    {
      "inputs": [],
      "name": "referenceOracle",
      "outputs": [
        {
          "internalType": "contract IOracle",
          "name": "",
          "type": "address"
        }
      ],
      "stateMutability": "view",
      "type": "function"
    },
    {
      "inputs": [],
      "name": "renounceOwnership",
      "outputs": [],
      "stateMutability": "nonpayable",
      "type": "function"
    },
    {
      "inputs": [
        {
          "internalType": "bytes32",
          "name": "key",
          "type": "bytes32"
        },
        {
          "components": [
            {
              "internalType": "uint24",
              "name": "referenceThreshold",
              "type": "uint24"
            },
            {
              "internalType": "uint24",
              "name": "rebalanceThreshold",
              "type": "uint24"
            },
            {
              "internalType": "uint24",
              "name": "rateA",
              "type": "uint24"
            },
            {
              "internalType": "uint24",
              "name": "rateB",
              "type": "uint24"
            },
            {
              "internalType": "uint24",
              "name": "minRateA",
              "type": "uint24"
            },
            {
              "internalType": "uint24",
              "name": "minRateB",
              "type": "uint24"
            },
            {
              "internalType": "uint24",
              "name": "priceThresholdA",
              "type": "uint24"
            },
            {
              "internalType": "uint24",
              "name": "priceThresholdB",
              "type": "uint24"
            }
          ],
          "internalType": "struct ISimpleOracleStrategy.Config",
          "name": "config",
          "type": "tuple"
        }
      ],
      "name": "setConfig",
      "outputs": [],
      "stateMutability": "nonpayable",
      "type": "function"
    },
    {
      "inputs": [
        {
          "internalType": "address",
          "name": "operator",
          "type": "address"
        },
        {
          "internalType": "bool",
          "name": "status",
          "type": "bool"
        }
      ],
      "name": "setOperator",
      "outputs": [],
      "stateMutability": "nonpayable",
      "type": "function"
    },
    {
      "inputs": [
        {
          "internalType": "address",
          "name": "newOwner",
          "type": "address"
        }
      ],
      "name": "transferOwnership",
      "outputs": [],
      "stateMutability": "nonpayable",
      "type": "function"
    },
    {
      "inputs": [
        {
          "internalType": "bytes32",
          "name": "key",
          "type": "bytes32"
        }
      ],
      "name": "unpause",
      "outputs": [],
      "stateMutability": "nonpayable",
      "type": "function"
    },
    {
      "inputs": [
        {
          "internalType": "bytes32",
          "name": "key",
          "type": "bytes32"
        },
        {
          "internalType": "uint256",
          "name": "oraclePrice",
          "type": "uint256"
        },
        {
          "internalType": "Tick",
          "name": "tickA",
          "type": "int24"
        },
        {
          "internalType": "Tick",
          "name": "tickB",
          "type": "int24"
        },
        {
          "internalType": "uint24",
          "name": "rate",
          "type": "uint24"
        }
      ],
      "name": "updatePosition",
      "outputs": [],
      "stateMutability": "nonpayable",
      "type": "function"
    }
  ],
  "transactionHash": "0xcd580cb5853a6dfe8607898d19fe96e3ad496fe85c80c79c24fbba7b653e9544",
  "args": [
    "0xf488A6499259299d371B00a16C1e8FAFf8Ce5399",
    "0x704525EAB4C7A692c30A32AECe04f36AcfBA360A",
    "0xAA9575d63dFC224b9583fC303dB3188C08d5C85A",
    "0x5F79EE8f8fA862E98201120d83c4eC39D9468D49"
  ],
  "numDeployments": 1,
  "solcInputHash": "3211ad8134659acdd9c259be0939c590",
  "bytecode": "0x60e060405234801561000f575f80fd5b5060405161324538038061324583398101604081905261002e91610103565b806001600160a01b03811661005c57604051631e4fbdf760e01b81525f600482015260240160405180910390fd5b61006581610084565b50506001600160a01b0392831660805290821660a0521660c05261015f565b600180546001600160a01b031916905561009d816100a0565b50565b5f80546001600160a01b038381166001600160a01b0319831681178455604051919092169283917f8be0079c531659141344cd1fd0a4f28419497f9722a3daafe3b4186f6b6457e09190a35050565b6001600160a01b038116811461009d575f80fd5b5f805f8060808587031215610116575f80fd5b8451610121816100ef565b6020860151909450610132816100ef565b6040860151909350610143816100ef565b6060860151909250610154816100ef565b939692955090935050565b60805160a05160c0516130536101f25f395f818161039f01528181610b9a01528181610c2c01528181611426015261194201525f81816101a301528181610b0f01528181610ccf0152818161138a015281816118a6015281816119ea01528181611a390152611b7201525f8181610357015281816114e001528181611dc901528181611e6601526120bf01526130535ff3fe608060405234801561000f575f80fd5b506004361061019a575f3560e01c8063715018a6116100e8578063b5a562bd11610093578063ed56531a1161006e578063ed56531a14610574578063edffdaaf14610587578063f2fde38b1461059a578063f6389237146105ad575f80fd5b8063b5a562bd14610542578063db7c74b614610550578063e30c397814610563575f80fd5b8063a0f15331116100c3578063a0f1533114610509578063a30416d31461051c578063a3a36f551461052f575f80fd5b8063715018a6146104e957806379ba5097146104f15780638da5cb5b146104f9575f80fd5b8063337cceb911610148578063558a729711610123578063558a7297146103c15780636d70f7ae146103d45780636dd5b69d146103f6575f80fd5b8063337cceb9146103525780633b93fabc146103795780633f322bc91461039a575f80fd5b8063241b71bb11610178578063241b71bb146102f55780632b3ba681146103275780632f4dae9f1461033f575f80fd5b806301d22ccd1461019e578063063570bd146101e25780631928b3cb146101f7575b5f80fd5b6101c57f000000000000000000000000000000000000000000000000000000000000000081565b6040516001600160a01b0390911681526020015b60405180910390f35b6101f56101f03660046127c9565b6105f2565b005b61029e61020536600461288f565b6040805160a0810182525f80825260208201819052918101829052606081018290526080810191909152505f90815260046020908152604091829020825160a081018452905460ff8116151582526001600160801b036101008204169282019290925262ffffff600160881b83041692810192909252600160a01b8104600290810b6060840152600160b81b909104900b608082015290565b6040516101d991905f60a0820190508251151582526001600160801b03602084015116602083015262ffffff6040840151166040830152606083015160020b6060830152608083015160020b608083015292915050565b61031761030336600461288f565b5f9081526004602052604090205460ff1690565b60405190151581526020016101d9565b610331620f424081565b6040519081526020016101d9565b6101f561034d36600461288f565b6108ad565b6101c57f000000000000000000000000000000000000000000000000000000000000000081565b61038c61038736600461288f565b61091b565b6040516101d99291906128f8565b6101c57f000000000000000000000000000000000000000000000000000000000000000081565b6101f56103cf366004612939565b6110b9565b6103176103e2366004612974565b60026020525f908152604090205460ff1681565b6104dc61040436600461288f565b60408051610100810182525f80825260208201819052918101829052606081018290526080810182905260a0810182905260c0810182905260e0810191909152505f90815260036020908152604091829020825161010081018452905462ffffff808216835263010000008204811693830193909352660100000000000081048316938201939093526901000000000000000000830482166060820152600160601b830482166080820152600160781b8304821660a0820152600160901b8304821660c0820152600160a81b9092041660e082015290565b6040516101d99190612996565b6101f5611118565b6101f561112b565b5f546001600160a01b03166101c5565b6101f5610517366004612a2a565b611174565b61031761052a36600461288f565b611792565b6101f561053d366004612a81565b6119df565b6103316001600160801b0381565b6101f561055e366004612a81565b611a2e565b6001546001600160a01b03166101c5565b6101f561058236600461288f565b611ae9565b6101f5610595366004612b8b565b611b67565b6101f56105a8366004612974565b611c75565b6105dd6105bb36600461288f565b5f90815260056020526040902054608081901c916001600160801b0390911690565b604080519283526020830191909152016101d9565b6105fa611cf2565b620f4240815f015162ffffff16118061061e5750620f4240816020015162ffffff16115b806106345750620f4240816040015162ffffff16115b8061064a5750620f4240816060015162ffffff16115b806106605750620f4240816080015162ffffff16115b806106765750620f42408160a0015162ffffff16115b8061068c5750620f42408160c0015162ffffff16115b806106a25750620f42408160e0015162ffffff16115b156106c0576040516306b7c75960e31b815260040160405180910390fd5b806080015162ffffff16816040015162ffffff1610806106f157508060a0015162ffffff16816060015162ffffff16105b1561070f576040516306b7c75960e31b815260040160405180910390fd5b5f828152600360209081526040918290208351815492850151858501516060870151608088015160a089015160c08a015160e08b015162ffffff97881665ffffffffffff19909a1699909917630100000096881696909602959095176bffffffffffff00000000000019166601000000000000948716949094026bffffff000000000000000000191693909317690100000000000000000092861692909202919091177fffffffffffffffffffffffffffff000000000000ffffffffffffffffffffffff16600160601b918516919091027fffffffffffffffffffffffffffff000000ffffffffffffffffffffffffffffff1617600160781b91841691909102177fffffffffffffffff000000000000ffffffffffffffffffffffffffffffffffff16600160901b918316919091027fffffffffffffffff000000ffffffffffffffffffffffffffffffffffffffffff1617600160a81b91909316029190911790555182907fa6796aaa3e8df6d8ed1c3d26d8a54828d50465a6b4151685c28954b40e3be4c1906108a1908490612996565b60405180910390a25050565b335f9081526002602052604090205460ff166108dc57604051631f0853c160e21b815260040160405180910390fd5b5f81815260046020526040808220805460ff191690555182917fbd104d77fb864be973a9ad3964a3b186ad15178d292d6e9b0e6783e16162fd2291a250565b5f81815260046020908152604091829020825160a081018452905460ff811615801583526001600160801b036101008304169383019390935262ffffff600160881b82041693820193909352600160a01b8304600290810b606083810191909152600160b81b909404900b608082015282916109c3576040517f9e87fac800000000000000000000000000000000000000000000000000000000815260040160405180910390fd5b5f848152600360209081526040808320815161010081018352905462ffffff80821683526301000000820481168386015266010000000000008204811683850152690100000000000000000082048116606080850191909152600160601b83048216608080860191909152600160781b8404831660a080870191909152600160901b8504841660c080880191909152600160a81b90950490931660e086015285518085018752888152808801899052808701899052808301899052808201899052808401899052865194850187528885528488018990528487018990528483018990529084018890529183018790528451908101855286815294850186905292840194909452929091610aed60405180606001604052805f81526020015f81526020015f81525090565b60405163c630ed7d60e01b8152600481018a90525f9081906001600160a01b037f0000000000000000000000000000000000000000000000000000000000000000169063c630ed7d906024016040805180830381865afa158015610b53573d5f803e3d5ffd5b505050506040513d601f19601f82011682018060405250810190610b779190612c1c565b604051639b22917d60e01b81526001600160c01b038316600482015291935091507f00000000000000000000000000000000000000000000000000000000000000006001600160a01b031690639b22917d9060240160c060405180830381865afa158015610be7573d5f803e3d5ffd5b505050506040513d601f19601f82011682018060405250810190610c0b9190612c4d565b604051639b22917d60e01b81526001600160c01b03831660048201529096507f00000000000000000000000000000000000000000000000000000000000000006001600160a01b031690639b22917d9060240160c060405180830381865afa158015610c79573d5f803e3d5ffd5b505050506040513d601f19601f82011682018060405250810190610c9d9190612c4d565b6040517ffa6793d5000000000000000000000000000000000000000000000000000000008152600481018d90529095507f00000000000000000000000000000000000000000000000000000000000000006001600160a01b03169063fa6793d59060240160c060405180830381865afa158015610d1c573d5f803e3d5ffd5b505050506040513d601f19601f82011682018060405250810190610d409190612d50565b5f8d81526005602052604090205491955093508015801590610df55750620f4240886020015162ffffff16886020015167ffffffffffffffff16608084901c610d899190612d8e565b610d939190612d8e565b610d9d9190612da5565b85604001511180610df55750620f4240886020015162ffffff16876020015167ffffffffffffffff166001600160801b038416610dda9190612d8e565b610de49190612d8e565b610dee9190612da5565b8460400151115b15610e0857505050505050505050915091565b610e3089602001516001600160801b0316895f015162ffffff1689604001518a5f0151611d1e565b610e66576040517f1f8f95a000000000000000000000000000000000000000000000000000000000815260040160405180910390fd5b5050505f80610edc84602001518560400151865f0151610e869190612dc4565b610e909190612dc4565b602085015160408601518651610ea69190612dc4565b610eb09190612dc4565b8a602001516001600160801b0316610ecb8a60400151611f8e565b8a51610ed690611f8e565b8c61200c565b91509150610ef3866060015162ffffff1660171c90565b15610f10576060860151610f0d9062ffffff16835f6122ca565b91505b610f23856060015162ffffff1660171c90565b15610f40576060850151610f3d9062ffffff16825f6122ca565b90505b60408051600180825281830190925290816020015b604080518082019091525f8082526020820152815260200190600190039081610f55575050604080516001808252818301909252919b50602082015b604080518082019091525f8082526020820152815260200190600190039081610f915790505098506040518060400160405280896060015160020b8152602001611015620f4240896020015167ffffffffffffffff168c6040015162ffffff1687610ffc9190612d8e565b6110069190612da5565b6110109190612da5565b61230d565b67ffffffffffffffff168152508a5f8151811061103457611034612dd7565b60200260200101819052506040518060400160405280896080015160020b8152602001611082620f4240886020015167ffffffffffffffff168c6040015162ffffff1686610ffc9190612d8e565b67ffffffffffffffff16815250895f815181106110a1576110a1612dd7565b60200260200101819052505050505050505050915091565b6110c1611cf2565b6001600160a01b0382165f81815260026020908152604091829020805460ff191685151590811790915591519182527f1618a22a3b00b9ac70fd5a82f1f5cdd8cb272bd0f1b740ddf7c26ab05881dd5b91016108a1565b611120611cf2565b6111295f612347565b565b60015433906001600160a01b031681146111685760405163118cdaa760e01b81526001600160a01b03821660048201526024015b60405180910390fd5b61117181612347565b50565b335f9081526002602052604090205460ff166111a357604051631f0853c160e21b815260040160405180910390fd5b5f6111b08460020b61236d565b90505f6111c76111bf85612deb565b60020b61236d565b9050808210611201576040517ebfc92100000000000000000000000000000000000000000000000000000000815260040160405180910390fd5b620f42408362ffffff161115611243576040517faa7feadc00000000000000000000000000000000000000000000000000000000815260040160405180910390fd5b5f87815260036020908152604091829020825161010081018452905462ffffff808216835263010000008204811693830193909352660100000000000081048316938201939093526901000000000000000000830482166060820152600160601b830482166080820152600160781b8304821660a0820152600160901b8304821660c08201819052600160a81b90930490911660e0820152908390620f4240906112ed9082612dc4565b6112f7908a612d8e565b6113019190612da5565b108061133b575081620f42408260e0015162ffffff16620f42406113259190612e0b565b61132f908a612d8e565b6113399190612da5565b115b15611372576040517f107826c200000000000000000000000000000000000000000000000000000000815260040160405180910390fd5b60405163c630ed7d60e01b8152600481018990525f907f00000000000000000000000000000000000000000000000000000000000000006001600160a01b03169063c630ed7d906024016040805180830381865afa1580156113d6573d5f803e3d5ffd5b505050506040513d601f19601f820116820180604052508101906113fa9190612c1c565b50604051639b22917d60e01b81526001600160c01b03821660048201529091505f906001600160a01b037f00000000000000000000000000000000000000000000000000000000000000001690639b22917d9060240160c060405180830381865afa15801561146b573d5f803e3d5ffd5b505050506040513d601f19601f8201168201806040525081019061148f9190612c4d565b90505f61149f8260400151611f8e565b90505f6114ae835f0151611f8e565b90506114bb82600a612efe565b6114c682600a612efe565b6114d0908d612d8e565b6114da9190612da5565b9a5060607f00000000000000000000000000000000000000000000000000000000000000006001600160a01b031663313ce5676040518163ffffffff1660e01b8152600401602060405180830381865afa15801561153a573d5f803e3d5ffd5b505050506040513d601f19601f8201168201806040525081019061155e9190612f0c565b61156990600a612efe565b611573908d612d8e565b5f8e815260046020908152604091829020825160a081018452905460ff8116151582526001600160801b036101008204169282019290925262ffffff600160881b83041692810192909252600160a01b8104600290810b6060840152600160b81b909104900b6080820152911c9b506115eb8c61262c565b81602001906001600160801b031690816001600160801b0316815250508a816060019060020b908160020b8152505089816080019060020b908160020b8152505088816040019062ffffff16908162ffffff16815250508060045f8f81526020019081526020015f205f820151815f015f6101000a81548160ff0219169083151502179055506020820151815f0160016101000a8154816001600160801b0302191690836001600160801b031602179055506040820151815f0160116101000a81548162ffffff021916908362ffffff1602179055506060820151815f0160146101000a81548162ffffff021916908360020b62ffffff1602179055506080820151815f0160176101000a81548162ffffff021916908360020b62ffffff16021790555090505060055f8e81526020019081526020015f205f90558c7f6bfe82e0fc1c0e49aa5a610028c276fddb4bc3c4f8ae34f09277ce63597818f98d8d8d8d60405161177b9493929190938452600292830b6020850152910b604083015262ffffff16606082015260800190565b60405180910390a250505050505050505050505050565b5f81815260036020908152604080832081516101008082018452915462ffffff80821683526301000000820481168387015266010000000000008204811683860152690100000000000000000082048116606080850191909152600160601b83048216608080860191909152600160781b8404831660a080870191909152600160901b8504841660c0870152600160a81b909404831660e08601528989526004808952878a20885195860189525460ff8116151586529687046001600160801b031698850198909852600160881b860490921683870152600160a01b8504600290810b91840191909152600160b81b90940490930b92810192909252915163c630ed7d60e01b8152928301859052909183907f00000000000000000000000000000000000000000000000000000000000000006001600160a01b03169063c630ed7d906024016040805180830381865afa1580156118f2573d5f803e3d5ffd5b505050506040513d601f19601f820116820180604052508101906119169190612c1c565b50604051639b22917d60e01b81526001600160c01b03821660048201529091505f906001600160a01b037f00000000000000000000000000000000000000000000000000000000000000001690639b22917d9060240160c060405180830381865afa158015611987573d5f803e3d5ffd5b505050506040513d601f19601f820116820180604052508101906119ab9190612c4d565b90506119d583602001516001600160801b0316855f015162ffffff168360400151845f0151611d1e565b9695505050505050565b336001600160a01b037f00000000000000000000000000000000000000000000000000000000000000001614611a2857604051633006171960e21b815260040160405180910390fd5b50505050565b336001600160a01b037f00000000000000000000000000000000000000000000000000000000000000001614611a7757604051633006171960e21b815260040160405180910390fd5b5f8381526005602052604090205481611a99846001600160801b038416612d8e565b611aa39190612da5565b608083611ab28685841c612d8e565b611abc9190612da5565b611ac7911b83612e0b565b611ad19190612e0b565b5f948552600560205260409094209390935550505050565b335f9081526002602052604090205460ff16611b1857604051631f0853c160e21b815260040160405180910390fd5b5f8181526005602090815260408083208390556004909152808220805460ff191660011790555182917f6e78d720a83dbf19884c4e27501ba84a8a2e5ca1503419b03ee68d28d548e85791a250565b336001600160a01b037f00000000000000000000000000000000000000000000000000000000000000001614611bb057604051633006171960e21b815260040160405180910390fd5b5f805f5b8451811015611bff575f858281518110611bd057611bd0612dd7565b60200260200101519050806020015167ffffffffffffffff1684611bf49190612dc4565b935050600101611bb4565b505f5b8351811015611c4d575f848281518110611c1e57611c1e612dd7565b60200260200101519050806020015167ffffffffffffffff1683611c429190612dc4565b925050600101611c02565b50611c5c81608084901b612dc4565b5f95865260056020526040909520949094555050505050565b611c7d611cf2565b600180546001600160a01b03831673ffffffffffffffffffffffffffffffffffffffff199091168117909155611cba5f546001600160a01b031690565b6001600160a01b03167f38d16b8cac22d99fc7c124b9cd0de2d3fa1faef420bfe791d8c362d765e2270060405160405180910390a350565b5f546001600160a01b031633146111295760405163118cdaa760e01b815233600482015260240161115f565b6040805160028082526060820183525f9283928392909160208301908036833701905050905084815f81518110611d5757611d57612dd7565b60200260200101906001600160a01b031690816001600160a01b0316815250508381600181518110611d8b57611d8b612dd7565b6001600160a01b0392831660209182029290920101526040517f9d23d9f20000000000000000000000000000000000000000000000000000000081527f000000000000000000000000000000000000000000000000000000000000000090911690639d23d9f290611e00908490600401612f2c565b5f60405180830381865afa925050508015611e3c57506040513d5f823e601f3d908101601f19168201604052611e399190810190612f78565b60015b611e4a575f92505050611f86565b805f81518110611e5c57611e5c612dd7565b60200260200101517f00000000000000000000000000000000000000000000000000000000000000006001600160a01b031663313ce5676040518163ffffffff1660e01b8152600401602060405180830381865afa158015611ec0573d5f803e3d5ffd5b505050506040513d601f19601f82011682018060405250810190611ee49190612f0c565b611eef90600a612efe565b82600181518110611f0257611f02612dd7565b6020026020010151611f149190612d8e565b611f1e9190612da5565b92505086620f4240611f308882612dc4565b611f3a9085612d8e565b611f449190612da5565b1080611f70575086620f4240611f5a8882612e0b565b611f649085612d8e565b611f6e9190612da5565b115b15611f7f575f92505050611f86565b6001925050505b949350505050565b5f6001600160a01b0382161561200357816001600160a01b031663313ce5676040518163ffffffff1660e01b8152600401602060405180830381865afa158015611fda573d5f803e3d5ffd5b505050506040513d601f19601f82011682018060405250810190611ffe9190612f0c565b612006565b60125b92915050565b5f808360ff168560ff161115612042576120268486613004565b61203190600a612efe565b61203b9088612d8e565b9650612072565b8360ff168560ff1610156120725761205a8585613004565b61206590600a612efe565b61206f9089612d8e565b97505b620f4240836040015162ffffff168961208b9190612d8e565b6120959190612da5565b9150620f4240836060015162ffffff16886120b09190612d8e565b6120ba9190612da5565b90505f7f00000000000000000000000000000000000000000000000000000000000000006001600160a01b031663313ce5676040518163ffffffff1660e01b8152600401602060405180830381865afa158015612119573d5f803e3d5ffd5b505050506040513d601f19601f8201168201806040525081019061213d9190612f0c565b61214890600a612efe565b90505f6121558285612d8e565b90505f6121628985612d8e565b905080821115612189576121768382612da5565b94506121828386612d8e565b91506121a2565b6121938983612da5565b935061219f8985612d8e565b90505b82620f4240876080015162ffffff168d6121bc9190612d8e565b6121c69190612da5565b6121d09190612d8e565b8210156121fd57620f4240866080015162ffffff168c6121f09190612d8e565b6121fa9190612da5565b94505b88620f42408760a0015162ffffff168c6122179190612d8e565b6122219190612da5565b61222b9190612d8e565b81101561225857620f42408660a0015162ffffff168b61224b9190612d8e565b6122559190612da5565b93505b8660ff168860ff16111561228c576122708789613004565b61227b90600a612efe565b6122859085612da5565b93506122bc565b8660ff168860ff1610156122bc576122a48888613004565b6122af90600a612efe565b6122b99086612da5565b94505b505050965096945050505050565b5f6207a11f19627fffff8516018183156122e457815f0391505b81620f42400190506119d5620f4240866122fe9190612d8e565b82810615158616908390040190565b5f67ffffffffffffffff82111561234357604080516306dfcc6560e41b815260048101919091526024810183905260440161115f565b5090565b6001805473ffffffffffffffffffffffffffffffffffffffff191690556111718161265f565b5f612377826126bb565b815f600282900b811361238a5781612393565b61239382612deb565b62ffffff81169150600116156123b7576bfff97272373d413259a4699092506123bf565b600160601b92505b60028116156123de5760606bfff2e50f5f656932ef12357c8402901c92505b60048116156123fd5760606bffe5caca7e10e4e61c3624ea8402901c92505b600881161561241c5760606bffcb9843d60f6159c9db58838402901c92505b601081161561243b5760606bff973b41fa98c081472e68968402901c92505b602081161561245a5760606bff2ea16466c96a3843ec78b38402901c92505b60408116156124795760606bfe5dee046a99a2a811c461f18402901c92505b60808116156124985760606bfcbe86c7900a88aedcffc83b8402901c92505b6101008116156124b85760606bf987a7253ac413176f2b074c8402901c92505b6102008116156124d85760606bf3392b0822b70005940c7a398402901c92505b6104008116156124f85760606be7159475a2c29b7443b29c7f8402901c92505b6108008116156125185760606bd097f3bdfd2022b8845ad8f78402901c92505b6110008116156125385760606ba9f746462d870fdf8a65dc1f8402901c92505b6120008116156125585760606b70d869a156d2a1b890bb3df68402901c92505b6140008116156125785760606b31be135f97d08fd9812315058402901c92505b6180008116156125985760606b09aa508b5b7a84e1c677de548402901c92505b620100008116156125b85760606a5d6af8dedb81196699c3298402901c92505b620200008116156125d7576060692216e584f5fa1ea926048402901c92505b620400008116156125f457606067048a170391f7dc428402901c92505b5f8260020b131561262557612622837801000000000000000000000000000000000000000000000000612da5565b92505b5050919050565b5f6001600160801b03821115612343576040516306dfcc6560e41b8152608060048201526024810183905260440161115f565b5f80546001600160a01b0383811673ffffffffffffffffffffffffffffffffffffffff19831681178455604051919092169283917f8be0079c531659141344cd1fd0a4f28419497f9722a3daafe3b4186f6b6457e09190a35050565b6207ffff600282900b13806126e057506126d76207ffff612deb565b60020b8160020b125b15611171576040517fce8ef7fc00000000000000000000000000000000000000000000000000000000815260040160405180910390fd5b634e487b7160e01b5f52604160045260245ffd5b604051610100810167ffffffffffffffff8111828210171561274f5761274f612717565b60405290565b6040805190810167ffffffffffffffff8111828210171561274f5761274f612717565b604051601f8201601f1916810167ffffffffffffffff811182821017156127a1576127a1612717565b604052919050565b62ffffff81168114611171575f80fd5b80356127c4816127a9565b919050565b5f808284036101208112156127dc575f80fd5b8335925061010080601f19830112156127f3575f80fd5b6127fb61272b565b9150602085013561280b816127a9565b8252612819604086016127b9565b602083015261282a606086016127b9565b604083015261283b608086016127b9565b606083015261284c60a086016127b9565b608083015261285d60c086016127b9565b60a083015261286e60e086016127b9565b60c083015261287e8186016127b9565b60e083015250809150509250929050565b5f6020828403121561289f575f80fd5b5035919050565b5f815180845260208085019450602084015f5b838110156128ed578151805160020b885283015167ffffffffffffffff1683880152604090960195908201906001016128b9565b509495945050505050565b604081525f61290a60408301856128a6565b828103602084015261291c81856128a6565b95945050505050565b6001600160a01b0381168114611171575f80fd5b5f806040838503121561294a575f80fd5b823561295581612925565b915060208301358015158114612969575f80fd5b809150509250929050565b5f60208284031215612984575f80fd5b813561298f81612925565b9392505050565b5f6101008201905062ffffff8084511683528060208501511660208401528060408501511660408401528060608501511660608401528060808501511660808401528060a08501511660a08401525060c08301516129fb60c084018262ffffff169052565b5060e0830151612a1260e084018262ffffff169052565b5092915050565b8035600281900b81146127c4575f80fd5b5f805f805f60a08688031215612a3e575f80fd5b8535945060208601359350612a5560408701612a19565b9250612a6360608701612a19565b91506080860135612a73816127a9565b809150509295509295909350565b5f805f8060808587031215612a94575f80fd5b8435612a9f81612925565b966020860135965060408601359560600135945092505050565b5f67ffffffffffffffff821115612ad257612ad2612717565b5060051b60200190565b67ffffffffffffffff81168114611171575f80fd5b5f82601f830112612b00575f80fd5b81356020612b15612b1083612ab9565b612778565b82815260069290921b84018101918181019086841115612b33575f80fd5b8286015b84811015612b805760408189031215612b4e575f80fd5b612b56612755565b612b5f82612a19565b815284820135612b6e81612adc565b81860152835291830191604001612b37565b509695505050505050565b5f805f8060808587031215612b9e575f80fd5b8435612ba981612925565b935060208501359250604085013567ffffffffffffffff80821115612bcc575f80fd5b612bd888838901612af1565b93506060870135915080821115612bed575f80fd5b50612bfa87828801612af1565b91505092959194509250565b80516001600160c01b03811681146127c4575f80fd5b5f8060408385031215612c2d575f80fd5b612c3683612c06565b9150612c4460208401612c06565b90509250929050565b5f60c08284031215612c5d575f80fd5b60405160c0810181811067ffffffffffffffff82111715612c8057612c80612717565b6040528251612c8e81612925565b81526020830151612c9e81612adc565b60208201526040830151612cb181612925565b60408201526060830151612cc4816127a9565b60608201526080830151612cd781612925565b608082015260a0830151612cea816127a9565b60a08201529392505050565b5f60608284031215612d06575f80fd5b6040516060810181811067ffffffffffffffff82111715612d2957612d29612717565b80604052508091508251815260208301516020820152604083015160408201525092915050565b5f8060c08385031215612d61575f80fd5b612d6b8484612cf6565b9150612c448460608501612cf6565b634e487b7160e01b5f52601160045260245ffd5b808202811582820484141761200657612006612d7a565b5f82612dbf57634e487b7160e01b5f52601260045260245ffd5b500490565b8082018082111561200657612006612d7a565b634e487b7160e01b5f52603260045260245ffd5b5f8160020b627fffff198103612e0357612e03612d7a565b5f0392915050565b8181038181111561200657612006612d7a565b600181815b80851115612e5857815f1904821115612e3e57612e3e612d7a565b80851615612e4b57918102915b93841c9390800290612e23565b509250929050565b5f82612e6e57506001612006565b81612e7a57505f612006565b8160018114612e905760028114612e9a57612eb6565b6001915050612006565b60ff841115612eab57612eab612d7a565b50506001821b612006565b5060208310610133831016604e8410600b8410161715612ed9575081810a612006565b612ee38383612e1e565b805f1904821115612ef657612ef6612d7a565b029392505050565b5f61298f60ff841683612e60565b5f60208284031215612f1c575f80fd5b815160ff8116811461298f575f80fd5b602080825282518282018190525f9190848201906040850190845b81811015612f6c5783516001600160a01b031683529284019291840191600101612f47565b50909695505050505050565b5f6020808385031215612f89575f80fd5b825167ffffffffffffffff811115612f9f575f80fd5b8301601f81018513612faf575f80fd5b8051612fbd612b1082612ab9565b81815260059190911b82018301908381019087831115612fdb575f80fd5b928401925b82841015612ff957835182529284019290840190612fe0565b979650505050505050565b60ff828116828216039081111561200657612006612d7a56fea26469706673582212201cd27d4b8fa50b7e29c291e1acb7ea478e25e792fb49f52c9989b159deb10dbe64736f6c63430008190033",
  "devdoc": {
    "errors": {
      "OwnableInvalidOwner(address)": [
        {
          "details": "The owner is not a valid owner account. (eg. `address(0)`)"
        }
      ],
      "OwnableUnauthorizedAccount(address)": [
        {
          "details": "The caller account is not authorized to perform an operation."
        }
      ],
      "SafeCastOverflowedUintDowncast(uint8,uint256)": [
        {
          "details": "Value doesn't fit in an uint of `bits` size."
        }
      ]
    },
    "kind": "dev",
    "methods": {
      "acceptOwnership()": {
        "details": "The new owner accepts the ownership transfer."
      },
      "computeOrders(bytes32)": {
        "details": "Clears pool orders if an error occurs and retains current orders if the list is empty.",
        "params": {
          "key": "The key of the pool."
        },
        "returns": {
          "ordersA": "The orders for the first token.",
          "ordersB": "The orders for the second token."
        }
      },
      "owner()": {
        "details": "Returns the address of the current owner."
      },
      "pendingOwner()": {
        "details": "Returns the address of the pending owner."
      },
      "renounceOwnership()": {
        "details": "Leaves the contract without owner. It will not be possible to call `onlyOwner` functions. Can only be called by the current owner. NOTE: Renouncing ownership will leave the contract without an owner, thereby disabling any functionality that is only available to the owner."
      },
      "transferOwnership(address)": {
        "details": "Starts the ownership transfer of the contract to a new account. Replaces the pending transfer if there is one. Can only be called by the current owner."
      }
    },
    "version": 1
  },
  "userdoc": {
    "kind": "user",
    "methods": {
      "computeOrders(bytes32)": {
        "notice": "Retrieves the orders for a specified key."
      }
    },
    "version": 1
  },
  "storageLayout": {
    "storage": [
      {
        "astId": 8,
        "contract": "src/SimpleOracleStrategy.sol:SimpleOracleStrategy",
        "label": "_owner",
        "offset": 0,
        "slot": "0",
        "type": "t_address"
      },
      {
        "astId": 156,
        "contract": "src/SimpleOracleStrategy.sol:SimpleOracleStrategy",
        "label": "_pendingOwner",
        "offset": 0,
        "slot": "1",
        "type": "t_address"
      },
      {
        "astId": 5657,
        "contract": "src/SimpleOracleStrategy.sol:SimpleOracleStrategy",
        "label": "isOperator",
        "offset": 0,
        "slot": "2",
        "type": "t_mapping(t_address,t_bool)"
      },
      {
        "astId": 5662,
        "contract": "src/SimpleOracleStrategy.sol:SimpleOracleStrategy",
        "label": "_configs",
        "offset": 0,
        "slot": "3",
        "type": "t_mapping(t_bytes32,t_struct(Config)7280_storage)"
      },
      {
        "astId": 5667,
        "contract": "src/SimpleOracleStrategy.sol:SimpleOracleStrategy",
        "label": "_positions",
        "offset": 0,
        "slot": "4",
        "type": "t_mapping(t_bytes32,t_struct(Position)7293_storage)"
      },
      {
        "astId": 5671,
        "contract": "src/SimpleOracleStrategy.sol:SimpleOracleStrategy",
        "label": "_lastRawAmounts",
        "offset": 0,
        "slot": "5",
        "type": "t_mapping(t_bytes32,t_uint256)"
      }
    ],
    "types": {
      "t_address": {
        "encoding": "inplace",
        "label": "address",
        "numberOfBytes": "20"
      },
      "t_bool": {
        "encoding": "inplace",
        "label": "bool",
        "numberOfBytes": "1"
      },
      "t_bytes32": {
        "encoding": "inplace",
        "label": "bytes32",
        "numberOfBytes": "32"
      },
      "t_mapping(t_address,t_bool)": {
        "encoding": "mapping",
        "key": "t_address",
        "label": "mapping(address => bool)",
        "numberOfBytes": "32",
        "value": "t_bool"
      },
      "t_mapping(t_bytes32,t_struct(Config)7280_storage)": {
        "encoding": "mapping",
        "key": "t_bytes32",
        "label": "mapping(bytes32 => struct ISimpleOracleStrategy.Config)",
        "numberOfBytes": "32",
        "value": "t_struct(Config)7280_storage"
      },
      "t_mapping(t_bytes32,t_struct(Position)7293_storage)": {
        "encoding": "mapping",
        "key": "t_bytes32",
        "label": "mapping(bytes32 => struct ISimpleOracleStrategy.Position)",
        "numberOfBytes": "32",
        "value": "t_struct(Position)7293_storage"
      },
      "t_mapping(t_bytes32,t_uint256)": {
        "encoding": "mapping",
        "key": "t_bytes32",
        "label": "mapping(bytes32 => uint256)",
        "numberOfBytes": "32",
        "value": "t_uint256"
      },
      "t_struct(Config)7280_storage": {
        "encoding": "inplace",
        "label": "struct ISimpleOracleStrategy.Config",
        "members": [
          {
            "astId": 7265,
            "contract": "src/SimpleOracleStrategy.sol:SimpleOracleStrategy",
            "label": "referenceThreshold",
            "offset": 0,
            "slot": "0",
            "type": "t_uint24"
          },
          {
            "astId": 7267,
            "contract": "src/SimpleOracleStrategy.sol:SimpleOracleStrategy",
            "label": "rebalanceThreshold",
            "offset": 3,
            "slot": "0",
            "type": "t_uint24"
          },
          {
            "astId": 7269,
            "contract": "src/SimpleOracleStrategy.sol:SimpleOracleStrategy",
            "label": "rateA",
            "offset": 6,
            "slot": "0",
            "type": "t_uint24"
          },
          {
            "astId": 7271,
            "contract": "src/SimpleOracleStrategy.sol:SimpleOracleStrategy",
            "label": "rateB",
            "offset": 9,
            "slot": "0",
            "type": "t_uint24"
          },
          {
            "astId": 7273,
            "contract": "src/SimpleOracleStrategy.sol:SimpleOracleStrategy",
            "label": "minRateA",
            "offset": 12,
            "slot": "0",
            "type": "t_uint24"
          },
          {
            "astId": 7275,
            "contract": "src/SimpleOracleStrategy.sol:SimpleOracleStrategy",
            "label": "minRateB",
            "offset": 15,
            "slot": "0",
            "type": "t_uint24"
          },
          {
            "astId": 7277,
            "contract": "src/SimpleOracleStrategy.sol:SimpleOracleStrategy",
            "label": "priceThresholdA",
            "offset": 18,
            "slot": "0",
            "type": "t_uint24"
          },
          {
            "astId": 7279,
            "contract": "src/SimpleOracleStrategy.sol:SimpleOracleStrategy",
            "label": "priceThresholdB",
            "offset": 21,
            "slot": "0",
            "type": "t_uint24"
          }
        ],
        "numberOfBytes": "32"
      },
      "t_struct(Position)7293_storage": {
        "encoding": "inplace",
        "label": "struct ISimpleOracleStrategy.Position",
        "members": [
          {
            "astId": 7282,
            "contract": "src/SimpleOracleStrategy.sol:SimpleOracleStrategy",
            "label": "paused",
            "offset": 0,
            "slot": "0",
            "type": "t_bool"
          },
          {
            "astId": 7284,
            "contract": "src/SimpleOracleStrategy.sol:SimpleOracleStrategy",
            "label": "oraclePrice",
            "offset": 1,
            "slot": "0",
            "type": "t_uint128"
          },
          {
            "astId": 7286,
            "contract": "src/SimpleOracleStrategy.sol:SimpleOracleStrategy",
            "label": "rate",
            "offset": 17,
            "slot": "0",
            "type": "t_uint24"
          },
          {
            "astId": 7289,
            "contract": "src/SimpleOracleStrategy.sol:SimpleOracleStrategy",
            "label": "tickA",
            "offset": 20,
            "slot": "0",
            "type": "t_userDefinedValueType(Tick)4855"
          },
          {
            "astId": 7292,
            "contract": "src/SimpleOracleStrategy.sol:SimpleOracleStrategy",
            "label": "tickB",
            "offset": 23,
            "slot": "0",
            "type": "t_userDefinedValueType(Tick)4855"
          }
        ],
        "numberOfBytes": "32"
      },
      "t_uint128": {
        "encoding": "inplace",
        "label": "uint128",
        "numberOfBytes": "16"
      },
      "t_uint24": {
        "encoding": "inplace",
        "label": "uint24",
        "numberOfBytes": "3"
      },
      "t_uint256": {
        "encoding": "inplace",
        "label": "uint256",
        "numberOfBytes": "32"
      },
      "t_userDefinedValueType(Tick)4855": {
        "encoding": "inplace",
        "label": "Tick",
        "numberOfBytes": "3"
      }
    }
  }
}