{
  "address": "0x4Aa858BE58fa20Ba323224896c9909419a595A40",
  "abi": [
    {
      "inputs": [
        {
          "internalType": "address",
          "name": "verifier_",
          "type": "address"
        }
      ],
      "stateMutability": "nonpayable",
      "type": "constructor"
    },
    {
      "inputs": [
        {
          "internalType": "address",
          "name": "target",
          "type": "address"
        }
      ],
      "name": "AddressEmptyCode",
      "type": "error"
    },
    {
      "inputs": [],
      "name": "AlreadySetFeed",
      "type": "error"
    },
    {
      "inputs": [
        {
          "internalType": "address",
          "name": "implementation",
          "type": "address"
        }
      ],
      "name": "ERC1967InvalidImplementation",
      "type": "error"
    },
    {
      "inputs": [],
      "name": "ERC1967NonPayable",
      "type": "error"
    },
    {
      "inputs": [],
      "name": "FailedCall",
      "type": "error"
    },
    {
      "inputs": [],
      "name": "InvalidForwarder",
      "type": "error"
    },
    {
      "inputs": [],
      "name": "InvalidInitialization",
      "type": "error"
    },
    {
      "inputs": [],
      "name": "InvalidReport",
      "type": "error"
    },
    {
      "inputs": [],
      "name": "NotInitializing",
      "type": "error"
    },
    {
      "inputs": [
        {
          "internalType": "address",
          "name": "owner",
          "type": "address"
        }
      ],
      "name": "OwnableInvalidOwner",
      "type": "error"
    },
    {
      "inputs": [
        {
          "internalType": "address",
          "name": "account",
          "type": "address"
        }
      ],
      "name": "OwnableUnauthorizedAccount",
      "type": "error"
    },
    {
      "inputs": [
        {
          "internalType": "string",
          "name": "feedParamKey",
          "type": "string"
        },
        {
          "internalType": "string[]",
          "name": "feeds",
          "type": "string[]"
        },
        {
          "internalType": "string",
          "name": "timeParamKey",
          "type": "string"
        },
        {
          "internalType": "uint256",
          "name": "time",
          "type": "uint256"
        },
        {
          "internalType": "bytes",
          "name": "extraData",
          "type": "bytes"
        }
      ],
      "name": "StreamsLookup",
      "type": "error"
    },
    {
      "inputs": [
        {
          "internalType": "uint256",
          "name": "value",
          "type": "uint256"
        },
        {
          "internalType": "uint256",
          "name": "length",
          "type": "uint256"
        }
      ],
      "name": "StringsInsufficientHexLength",
      "type": "error"
    },
    {
      "inputs": [],
      "name": "UUPSUnauthorizedCallContext",
      "type": "error"
    },
    {
      "inputs": [
        {
          "internalType": "bytes32",
          "name": "slot",
          "type": "bytes32"
        }
      ],
      "name": "UUPSUnsupportedProxiableUUID",
      "type": "error"
    },
    {
      "anonymous": false,
      "inputs": [
        {
          "indexed": false,
          "internalType": "uint64",
          "name": "version",
          "type": "uint64"
        }
      ],
      "name": "Initialized",
      "type": "event"
    },
    {
      "anonymous": false,
      "inputs": [
        {
          "indexed": true,
          "internalType": "address",
          "name": "previousOwner",
          "type": "address"
        },
        {
          "indexed": true,
          "internalType": "address",
          "name": "newOwner",
          "type": "address"
        }
      ],
      "name": "OwnershipTransferStarted",
      "type": "event"
    },
    {
      "anonymous": false,
      "inputs": [
        {
          "indexed": true,
          "internalType": "address",
          "name": "previousOwner",
          "type": "address"
        },
        {
          "indexed": true,
          "internalType": "address",
          "name": "newOwner",
          "type": "address"
        }
      ],
      "name": "OwnershipTransferred",
      "type": "event"
    },
    {
      "anonymous": false,
      "inputs": [
        {
          "indexed": true,
          "internalType": "address",
          "name": "requester",
          "type": "address"
        }
      ],
      "name": "Request",
      "type": "event"
    },
    {
      "anonymous": false,
      "inputs": [
        {
          "indexed": true,
          "internalType": "address",
          "name": "newFallbackOracle",
          "type": "address"
        }
      ],
      "name": "SetFallbackOracle",
      "type": "event"
    },
    {
      "anonymous": false,
      "inputs": [
        {
          "indexed": true,
          "internalType": "address",
          "name": "asset",
          "type": "address"
        },
        {
          "indexed": false,
          "internalType": "bytes32",
          "name": "feedId",
          "type": "bytes32"
        },
        {
          "indexed": false,
          "internalType": "uint256",
          "name": "index",
          "type": "uint256"
        }
      ],
      "name": "SetFeed",
      "type": "event"
    },
    {
      "anonymous": false,
      "inputs": [
        {
          "indexed": true,
          "internalType": "address",
          "name": "forwarder",
          "type": "address"
        }
      ],
      "name": "SetForwarder",
      "type": "event"
    },
    {
      "anonymous": false,
      "inputs": [
        {
          "indexed": true,
          "internalType": "address",
          "name": "asset",
          "type": "address"
        },
        {
          "indexed": false,
          "internalType": "uint256",
          "name": "price",
          "type": "uint256"
        }
      ],
      "name": "SetPrice",
      "type": "event"
    },
    {
      "anonymous": false,
      "inputs": [
        {
          "indexed": true,
          "internalType": "address",
          "name": "implementation",
          "type": "address"
        }
      ],
      "name": "Upgraded",
      "type": "event"
    },
    {
      "inputs": [],
      "name": "STRING_DATASTREAMS_FEEDLABEL",
      "outputs": [
        {
          "internalType": "string",
          "name": "",
          "type": "string"
        }
      ],
      "stateMutability": "view",
      "type": "function"
    },
    {
      "inputs": [],
      "name": "STRING_DATASTREAMS_QUERYLABEL",
      "outputs": [
        {
          "internalType": "string",
          "name": "",
          "type": "string"
        }
      ],
      "stateMutability": "view",
      "type": "function"
    },
    {
      "inputs": [],
      "name": "UPGRADE_INTERFACE_VERSION",
      "outputs": [
        {
          "internalType": "string",
          "name": "",
          "type": "string"
        }
      ],
      "stateMutability": "view",
      "type": "function"
    },
    {
      "inputs": [
        {
          "internalType": "bytes32",
          "name": "",
          "type": "bytes32"
        }
      ],
      "name": "_feedData",
      "outputs": [
        {
          "internalType": "address",
          "name": "asset",
          "type": "address"
        },
        {
          "internalType": "uint96",
          "name": "index",
          "type": "uint96"
        }
      ],
      "stateMutability": "view",
      "type": "function"
    },
    {
      "inputs": [],
      "name": "acceptOwnership",
      "outputs": [],
      "stateMutability": "nonpayable",
      "type": "function"
    },
    {
      "inputs": [
        {
          "internalType": "bytes[]",
          "name": "values",
          "type": "bytes[]"
        },
        {
          "internalType": "bytes",
          "name": "extraData",
          "type": "bytes"
        }
      ],
      "name": "checkCallback",
      "outputs": [
        {
          "internalType": "bool",
          "name": "",
          "type": "bool"
        },
        {
          "internalType": "bytes",
          "name": "",
          "type": "bytes"
        }
      ],
      "stateMutability": "pure",
      "type": "function"
    },
    {
      "inputs": [
        {
          "internalType": "uint256",
          "name": "",
          "type": "uint256"
        },
        {
          "internalType": "bytes",
          "name": "",
          "type": "bytes"
        }
      ],
      "name": "checkErrorHandler",
      "outputs": [
        {
          "internalType": "bool",
          "name": "",
          "type": "bool"
        },
        {
          "internalType": "bytes",
          "name": "",
          "type": "bytes"
        }
      ],
      "stateMutability": "pure",
      "type": "function"
    },
    {
      "inputs": [
        {
          "components": [
            {
              "internalType": "uint256",
              "name": "index",
              "type": "uint256"
            },
            {
              "internalType": "uint256",
              "name": "timestamp",
              "type": "uint256"
            },
            {
              "internalType": "bytes32",
              "name": "txHash",
              "type": "bytes32"
            },
            {
              "internalType": "uint256",
              "name": "blockNumber",
              "type": "uint256"
            },
            {
              "internalType": "bytes32",
              "name": "blockHash",
              "type": "bytes32"
            },
            {
              "internalType": "address",
              "name": "source",
              "type": "address"
            },
            {
              "internalType": "bytes32[]",
              "name": "topics",
              "type": "bytes32[]"
            },
            {
              "internalType": "bytes",
              "name": "data",
              "type": "bytes"
            }
          ],
          "internalType": "struct Log",
          "name": "log",
          "type": "tuple"
        },
        {
          "internalType": "bytes",
          "name": "",
          "type": "bytes"
        }
      ],
      "name": "checkLog",
      "outputs": [
        {
          "internalType": "bool",
          "name": "",
          "type": "bool"
        },
        {
          "internalType": "bytes",
          "name": "",
          "type": "bytes"
        }
      ],
      "stateMutability": "view",
      "type": "function"
    },
    {
      "inputs": [],
      "name": "decimals",
      "outputs": [
        {
          "internalType": "uint8",
          "name": "",
          "type": "uint8"
        }
      ],
      "stateMutability": "pure",
      "type": "function"
    },
    {
      "inputs": [],
      "name": "fallbackOracle",
      "outputs": [
        {
          "internalType": "address",
          "name": "",
          "type": "address"
        }
      ],
      "stateMutability": "view",
      "type": "function"
    },
    {
      "inputs": [],
      "name": "feeBalance",
      "outputs": [
        {
          "internalType": "uint256",
          "name": "",
          "type": "uint256"
        }
      ],
      "stateMutability": "view",
      "type": "function"
    },
    {
      "inputs": [],
      "name": "feeToken",
      "outputs": [
        {
          "internalType": "address",
          "name": "",
          "type": "address"
        }
      ],
      "stateMutability": "view",
      "type": "function"
    },
    {
      "inputs": [
        {
          "internalType": "bytes32",
          "name": "feedId",
          "type": "bytes32"
        }
      ],
      "name": "feedData",
      "outputs": [
        {
          "components": [
            {
              "internalType": "address",
              "name": "asset",
              "type": "address"
            },
            {
              "internalType": "uint96",
              "name": "index",
              "type": "uint96"
            }
          ],
          "internalType": "struct IDatastreamOracle.FeedData",
          "name": "",
          "type": "tuple"
        }
      ],
      "stateMutability": "view",
      "type": "function"
    },
    {
      "inputs": [],
      "name": "forwarder",
      "outputs": [
        {
          "internalType": "address",
          "name": "",
          "type": "address"
        }
      ],
      "stateMutability": "view",
      "type": "function"
    },
    {
      "inputs": [
        {
          "internalType": "address",
          "name": "asset",
          "type": "address"
        }
      ],
      "name": "getAssetPrice",
      "outputs": [
        {
          "internalType": "uint256",
          "name": "price",
          "type": "uint256"
        }
      ],
      "stateMutability": "view",
      "type": "function"
    },
    {
      "inputs": [
        {
          "internalType": "address[]",
          "name": "assets",
          "type": "address[]"
        }
      ],
      "name": "getAssetsPrices",
      "outputs": [
        {
          "internalType": "uint256[]",
          "name": "prices",
          "type": "uint256[]"
        }
      ],
      "stateMutability": "view",
      "type": "function"
    },
    {
      "inputs": [],
      "name": "getFeedIds",
      "outputs": [
        {
          "internalType": "bytes32[]",
          "name": "",
          "type": "bytes32[]"
        }
      ],
      "stateMutability": "view",
      "type": "function"
    },
    {
      "inputs": [
        {
          "internalType": "address",
          "name": "owner_",
          "type": "address"
        }
      ],
      "name": "initialize",
      "outputs": [],
      "stateMutability": "nonpayable",
      "type": "function"
    },
    {
      "inputs": [],
      "name": "owner",
      "outputs": [
        {
          "internalType": "address",
          "name": "",
          "type": "address"
        }
      ],
      "stateMutability": "view",
      "type": "function"
    },
    {
      "inputs": [],
      "name": "pendingOwner",
      "outputs": [
        {
          "internalType": "address",
          "name": "",
          "type": "address"
        }
      ],
      "stateMutability": "view",
      "type": "function"
    },
    {
      "inputs": [
        {
          "internalType": "bytes",
          "name": "performData",
          "type": "bytes"
        }
      ],
      "name": "performUpkeep",
      "outputs": [],
      "stateMutability": "nonpayable",
      "type": "function"
    },
    {
      "inputs": [],
      "name": "proxiableUUID",
      "outputs": [
        {
          "internalType": "bytes32",
          "name": "",
          "type": "bytes32"
        }
      ],
      "stateMutability": "view",
      "type": "function"
    },
    {
      "inputs": [],
      "name": "renounceOwnership",
      "outputs": [],
      "stateMutability": "nonpayable",
      "type": "function"
    },
    {
      "inputs": [],
      "name": "request",
      "outputs": [],
      "stateMutability": "nonpayable",
      "type": "function"
    },
    {
      "inputs": [
        {
          "internalType": "address",
          "name": "newFallbackOracle",
          "type": "address"
        }
      ],
      "name": "setFallbackOracle",
      "outputs": [],
      "stateMutability": "nonpayable",
      "type": "function"
    },
    {
      "inputs": [
        {
          "internalType": "bytes32",
          "name": "feedId",
          "type": "bytes32"
        },
        {
          "internalType": "address",
          "name": "asset",
          "type": "address"
        }
      ],
      "name": "setFeed",
      "outputs": [],
      "stateMutability": "nonpayable",
      "type": "function"
    },
    {
      "inputs": [
        {
          "internalType": "address",
          "name": "newForwarder",
          "type": "address"
        }
      ],
      "name": "setForwarder",
      "outputs": [],
      "stateMutability": "nonpayable",
      "type": "function"
    },
    {
      "inputs": [
        {
          "internalType": "address",
          "name": "newOwner",
          "type": "address"
        }
      ],
      "name": "transferOwnership",
      "outputs": [],
      "stateMutability": "nonpayable",
      "type": "function"
    },
    {
      "inputs": [
        {
          "internalType": "address",
          "name": "newImplementation",
          "type": "address"
        },
        {
          "internalType": "bytes",
          "name": "data",
          "type": "bytes"
        }
      ],
      "name": "upgradeToAndCall",
      "outputs": [],
      "stateMutability": "payable",
      "type": "function"
    },
    {
      "inputs": [],
      "name": "verifier",
      "outputs": [
        {
          "internalType": "contract IVerifierProxy",
          "name": "",
          "type": "address"
        }
      ],
      "stateMutability": "view",
      "type": "function"
    }
  ],
  "transactionHash": "0xe07a5749e697ebffb213f961e3eeaa9dc29e2bb807fc0db6abe0902a3d45a1d8",
  "args": [
    "0xDE1A28D87Afd0f546505B28AB50410A5c3a7387a"
  ],
  "numDeployments": 1,
  "solcInputHash": "cd24c69f3351e6368b66bc5e4f58a11a",
  "bytecode": "0x60c060405230608052348015610013575f80fd5b50604051612741380380612741833981016040819052610032916100dd565b338061005757604051631e4fbdf760e01b81525f600482015260240160405180910390fd5b61006081610072565b506001600160a01b031660a05261010a565b600180546001600160a01b031916905561008b8161008e565b50565b5f80546001600160a01b038381166001600160a01b0319831681178455604051919092169283917f8be0079c531659141344cd1fd0a4f28419497f9722a3daafe3b4186f6b6457e09190a35050565b5f602082840312156100ed575f80fd5b81516001600160a01b0381168114610103575f80fd5b9392505050565b60805160a0516125f361014e5f395f81816102520152818161097201528181610bf40152610f3801525f81816116c8015281816116f1015261187401526125f35ff3fe6080604052600436106101c5575f3560e01c8063647846a5116100f2578063ad3cb1cc11610092578063c4d66de811610062578063c4d66de814610628578063e30c397814610647578063f2fde38b14610664578063f645d4f914610683575f80fd5b8063ad3cb1cc14610500578063b3596f0714610548578063b9998a2414610567578063bb8ae5cf14610586575f80fd5b806382fd00af116100cd57806382fd00af1461042f5780638da5cb5b146104a65780639d23d9f2146104c2578063a510d17a146104e1575f80fd5b8063647846a5146103f3578063715018a61461040757806379ba50971461041b575f80fd5b806340691db4116101685780634f1ef286116101385780634f1ef2861461038b57806352d1902d1461039e57806360b71d4e146103c0578063629838e5146103d4575f80fd5b806340691db4146102fa5780634585e33b14610319578063459d6e2f146103385780634b56a42e1461036c575f80fd5b80632b7ac3f3116101a35780632b7ac3f314610241578063313ce5671461028c578063338cdca1146102a75780633ced145b146102bb575f80fd5b80630c518dce146101c95780630fb172fb146101f3578063170aee7314610220575b5f80fd5b3480156101d4575f80fd5b506101dd6106a2565b6040516101ea9190611b49565b60405180910390f35b3480156101fe575f80fd5b5061021261020d366004611c74565b6106f8565b6040516101ea929190611ce6565b34801561022b575f80fd5b5061023f61023a366004611d14565b61071a565b005b34801561024c575f80fd5b506102747f000000000000000000000000000000000000000000000000000000000000000081565b6040516001600160a01b0390911681526020016101ea565b348015610297575f80fd5b50604051601281526020016101ea565b3480156102b2575f80fd5b5061023f61076b565b3480156102c6575f80fd5b506102ed604051806040016040528060078152602001666665656449447360c81b81525081565b6040516101ea9190611d2f565b348015610305575f80fd5b50610212610314366004611d41565b610797565b348015610324575f80fd5b5061023f610333366004611ddd565b61091b565b348015610343575f80fd5b506102ed60405180604001604052806009815260200168074696d657374616d760bc1b81525081565b348015610377575f80fd5b50610212610386366004611e1c565b610e21565b61023f610399366004611eae565b610e59565b3480156103a9575f80fd5b506103b2610e78565b6040519081526020016101ea565b3480156103cb575f80fd5b506103b2610ea6565b3480156103df575f80fd5b50600554610274906001600160a01b031681565b3480156103fe575f80fd5b50610274610f35565b348015610412575f80fd5b5061023f611015565b348015610426575f80fd5b5061023f611028565b34801561043a575f80fd5b5061047a610449366004611ee5565b60036020525f90815260409020546001600160a01b03811690600160a01b90046bffffffffffffffffffffffff1682565b604080516001600160a01b0390931683526bffffffffffffffffffffffff9091166020830152016101ea565b3480156104b1575f80fd5b505f546001600160a01b0316610274565b3480156104cd575f80fd5b506101dd6104dc366004611f1f565b61106c565b3480156104ec575f80fd5b5061023f6104fb366004611fb4565b61110c565b34801561050b575f80fd5b506102ed6040518060400160405280600581526020017f352e302e3000000000000000000000000000000000000000000000000000000081525081565b348015610553575f80fd5b506103b2610562366004611d14565b611229565b348015610572575f80fd5b5061023f610581366004611d14565b6112d9565b348015610591575f80fd5b506105f66105a0366004611ee5565b604080518082019091525f8082526020820152505f908152600360209081526040918290208251808401909352546001600160a01b0381168352600160a01b90046bffffffffffffffffffffffff169082015290565b6040805182516001600160a01b031681526020928301516bffffffffffffffffffffffff1692810192909252016101ea565b348015610633575f80fd5b5061023f610642366004611d14565b61132a565b348015610652575f80fd5b506001546001600160a01b0316610274565b34801561066f575f80fd5b5061023f61067e366004611d14565b611465565b34801561068e575f80fd5b50600654610274906001600160a01b031681565b606060028054806020026020016040519081016040528092919081815260200182805480156106ee57602002820191905f5260205f20905b8154815260200190600101908083116106da575b5050505050905090565b604080518082019091526001808252600360fc1b6020830152905b9250929050565b6107226114d5565b600580546001600160a01b0319166001600160a01b0383169081179091556040517f9a248ffd42eb7f1580b27272ef0a5911b2835eb6fb9951d6fd1b6e3264b9e6e0905f90a250565b60405133907f9a26a1f9def08abe958f09f08b27ca5d3dcc90dc0bd84ac65a66e096560f3071905f90a2565b5f60605f60028054806020026020016040519081016040528092919081815260200182805480156107e557602002820191905f5260205f20905b8154815260200190600101908083116107d1575b505050505090505f815167ffffffffffffffff81111561080757610807611b8c565b60405190808252806020026020018201604052801561083a57816020015b60608152602001906001900390816108255790505b5090505f5b82518110156108935761086e83828151811061085d5761085d611fe2565b60200260200101515f1c6020611501565b82828151811061088057610880611fe2565b602090810291909101015260010161083f565b50604051806040016040528060078152602001666665656449447360c81b8152508160405180604001604052806009815260200168074696d657374616d760bc1b81525088602001356040517ff055e4a20000000000000000000000000000000000000000000000000000000081526004016109129493929190611ff6565b60405180910390fd5b6006546001600160a01b0316331461095f576040517f5666e12100000000000000000000000000000000000000000000000000000000815260040160405180910390fd5b5f61096c8284018461208c565b5090505f7f00000000000000000000000000000000000000000000000000000000000000006001600160a01b03166338416b5b6040518163ffffffff1660e01b8152600401602060405180830381865afa1580156109cc573d5f803e3d5ffd5b505050506040513d601f19601f820116820180604052508101906109f09190612141565b90505f816001600160a01b0316633aa5ac076040518163ffffffff1660e01b8152600401602060405180830381865afa158015610a2f573d5f803e3d5ffd5b505050506040513d601f19601f82011682018060405250810190610a539190612141565b90505f826001600160a01b031663ea4b861b6040518163ffffffff1660e01b8152600401602060405180830381865afa158015610a92573d5f803e3d5ffd5b505050506040513d601f19601f82011682018060405250810190610ab69190612141565b90505f5b8451811015610da8575f858281518110610ad657610ad6611fe2565b602002602001015190505f81806020019051810190610af591906121a9565b9150505f866001600160a01b031663e03dab1a3084886040518463ffffffff1660e01b8152600401610b299392919061223c565b60a0604051808303815f875af1158015610b45573d5f803e3d5ffd5b505050506040513d601f19601f82011682018060405250810190610b6991906122ca565b5050602081015190915015610bf157602081015160405163095ea7b360e01b81526001600160a01b03888116600483015260248201929092529086169063095ea7b3906044016020604051808303815f875af1158015610bcb573d5f803e3d5ffd5b505050506040513d601f19601f82011682018060405250810190610bef9190612305565b505b5f7f00000000000000000000000000000000000000000000000000000000000000006001600160a01b031663f7e83aee8588604051602001610c4291906001600160a01b0391909116815260200190565b6040516020818303038152906040526040518363ffffffff1660e01b8152600401610c6e929190612324565b5f604051808303815f875af1158015610c89573d5f803e3d5ffd5b505050506040513d5f823e601f3d908101601f19168201604052610cb09190810190612348565b90505f81806020019051810190610cc791906123c5565b80515f9081526003602052604081205460c08301519293506001600160a01b03169160170b1215610d24576040517fb55ac75400000000000000000000000000000000000000000000000000000000815260040160405180910390fd5b60c0820180516001600160a01b0383165f8181526004602090815260409182902077ffffffffffffffffffffffffffffffffffffffffffffffff94851690559351905192168252917f95dce27040c59c8b1c445b284f81a3aaae6eecd7d08d5c7684faee64cdb514a1910160405180910390a2505050505050806001019050610aba565b5060405163095ea7b360e01b81526001600160a01b0383811660048301525f602483015282169063095ea7b3906044016020604051808303815f875af1158015610df4573d5f803e3d5ffd5b505050506040513d601f19601f82011682018060405250810190610e189190612305565b50505050505050565b5f6060600186868686604051602001610e3d949392919061249a565b6040516020818303038152906040529150915094509492505050565b610e616116bd565b610e6a82611774565b610e74828261177c565b5050565b5f610e81611869565b507f360894a13ba1a3210667c828492db98dca3e2076cc3735a920a3ca505d382bbc90565b5f610eaf610f35565b6040517f70a082310000000000000000000000000000000000000000000000000000000081523060048201526001600160a01b0391909116906370a0823190602401602060405180830381865afa158015610f0c573d5f803e3d5ffd5b505050506040513d601f19601f82011682018060405250810190610f30919061253d565b905090565b5f7f00000000000000000000000000000000000000000000000000000000000000006001600160a01b03166338416b5b6040518163ffffffff1660e01b8152600401602060405180830381865afa158015610f92573d5f803e3d5ffd5b505050506040513d601f19601f82011682018060405250810190610fb69190612141565b6001600160a01b031663ea4b861b6040518163ffffffff1660e01b8152600401602060405180830381865afa158015610ff1573d5f803e3d5ffd5b505050506040513d601f19601f82011682018060405250810190610f309190612141565b61101d6114d5565b6110265f6118b2565b565b60015433906001600160a01b031681146110605760405163118cdaa760e01b81526001600160a01b0382166004820152602401610912565b611069816118b2565b50565b6060815167ffffffffffffffff81111561108857611088611b8c565b6040519080825280602002602001820160405280156110b1578160200160208202803683370190505b5090505f5b8251811015611106576110e18382815181106110d4576110d4611fe2565b6020026020010151611229565b8282815181106110f3576110f3611fe2565b60209081029190910101526001016110b6565b50919050565b6111146114d5565b5f828152600360209081526040808320815180830190925254600160a01b90046bffffffffffffffffffffffff169181018290526001600160a01b038416815291036111b057600254611168906001612568565b6bffffffffffffffffffffffff166020820152600280546001810182555f919091527f405787fa12a823e0f2b7631cc41b3ba8828b3321ca811111fa75cd3aa3bb5ace018390555b5f838152600360209081526040918290208351848301516001600160a01b03909116600160a01b6bffffffffffffffffffffffff9092169182028117909255835187815292830152917f60ff6cb5e63d361e394c82c20168c77145922ca5277d462db0ca260206dcdaee910160405180910390a2505050565b6001600160a01b0381165f90815260046020526040812054908190036112d4576005546040517fb3596f070000000000000000000000000000000000000000000000000000000081526001600160a01b0384811660048301529091169063b3596f0790602401602060405180830381865afa1580156112aa573d5f803e3d5ffd5b505050506040513d601f19601f820116820180604052508101906112ce919061253d565b92915050565b919050565b6112e16114d5565b600680546001600160a01b0319166001600160a01b0383169081179091556040517ffb0221b96db51b2e96e4e932300bfb257eb484b8b2e75a4f6961b0bab51a024d905f90a250565b7ff0c57e16840df040f15088dc2f81fe391c3923bec73e23a9662efc9c229c6a00805468010000000000000000810460ff16159067ffffffffffffffff165f811580156113745750825b90505f8267ffffffffffffffff1660011480156113905750303b155b90508115801561139e575080155b156113d5576040517ff92ee8a900000000000000000000000000000000000000000000000000000000815260040160405180910390fd5b845467ffffffffffffffff19166001178555831561140957845468ff00000000000000001916680100000000000000001785555b611412866118b2565b831561145d57845468ff000000000000000019168555604051600181527fc7f505b2f371ae2175ee4913f4499e1f2633a7b5936321eed1cdaeb6115181d29060200160405180910390a15b505050505050565b61146d6114d5565b600180546001600160a01b0383166001600160a01b0319909116811790915561149d5f546001600160a01b031690565b6001600160a01b03167f38d16b8cac22d99fc7c124b9cd0de2d3fa1faef420bfe791d8c362d765e2270060405160405180910390a350565b5f546001600160a01b031633146110265760405163118cdaa760e01b8152336004820152602401610912565b6060825f61151084600261257b565b61151b906002612568565b67ffffffffffffffff81111561153357611533611b8c565b6040519080825280601f01601f19166020018201604052801561155d576020820181803683370190505b509050600360fc1b815f8151811061157757611577611fe2565b60200101906001600160f81b03191690815f1a9053507f7800000000000000000000000000000000000000000000000000000000000000816001815181106115c1576115c1611fe2565b60200101906001600160f81b03191690815f1a9053505f6115e385600261257b565b6115ee906001612568565b90505b6001811115611672577f303132333435363738396162636465660000000000000000000000000000000083600f166010811061162f5761162f611fe2565b1a60f81b82828151811061164557611645611fe2565b60200101906001600160f81b03191690815f1a90535060049290921c9161166b81612592565b90506115f1565b5081156116b5576040517fe22e27eb0000000000000000000000000000000000000000000000000000000081526004810186905260248101859052604401610912565b949350505050565b306001600160a01b037f000000000000000000000000000000000000000000000000000000000000000016148061175657507f00000000000000000000000000000000000000000000000000000000000000006001600160a01b031661174a7f360894a13ba1a3210667c828492db98dca3e2076cc3735a920a3ca505d382bbc546001600160a01b031690565b6001600160a01b031614155b156110265760405163703e46dd60e11b815260040160405180910390fd5b6110696114d5565b816001600160a01b03166352d1902d6040518163ffffffff1660e01b8152600401602060405180830381865afa9250505080156117d6575060408051601f3d908101601f191682019092526117d39181019061253d565b60015b6117fe57604051634c9c8ce360e01b81526001600160a01b0383166004820152602401610912565b7f360894a13ba1a3210667c828492db98dca3e2076cc3735a920a3ca505d382bbc811461185a576040517faa1d49a400000000000000000000000000000000000000000000000000000000815260048101829052602401610912565b61186483836118cb565b505050565b306001600160a01b037f000000000000000000000000000000000000000000000000000000000000000016146110265760405163703e46dd60e11b815260040160405180910390fd5b600180546001600160a01b031916905561106981611920565b6118d48261196f565b6040516001600160a01b038316907fbc7cd75a20ee27fd9adebab32041f755214dbc6bffa90cc0225b39da2e5c2d3b905f90a28051156119185761186482826119e5565b610e74611a57565b5f80546001600160a01b038381166001600160a01b0319831681178455604051919092169283917f8be0079c531659141344cd1fd0a4f28419497f9722a3daafe3b4186f6b6457e09190a35050565b806001600160a01b03163b5f036119a457604051634c9c8ce360e01b81526001600160a01b0382166004820152602401610912565b7f360894a13ba1a3210667c828492db98dca3e2076cc3735a920a3ca505d382bbc80546001600160a01b0319166001600160a01b0392909216919091179055565b60605f80846001600160a01b031684604051611a0191906125a7565b5f60405180830381855af49150503d805f8114611a39576040519150601f19603f3d011682016040523d82523d5f602084013e611a3e565b606091505b5091509150611a4e858383611a8f565b95945050505050565b3415611026576040517fb398979f00000000000000000000000000000000000000000000000000000000815260040160405180910390fd5b606082611aa457611a9f82611b07565b611b00565b8151158015611abb57506001600160a01b0384163b155b15611afd576040517f9996b3150000000000000000000000000000000000000000000000000000000081526001600160a01b0385166004820152602401610912565b50805b9392505050565b805115611b175780518082602001fd5b6040517fd6bda27500000000000000000000000000000000000000000000000000000000815260040160405180910390fd5b602080825282518282018190525f9190848201906040850190845b81811015611b8057835183529284019291840191600101611b64565b50909695505050505050565b634e487b7160e01b5f52604160045260245ffd5b604051610120810167ffffffffffffffff81118282101715611bc457611bc4611b8c565b60405290565b604051601f8201601f1916810167ffffffffffffffff81118282101715611bf357611bf3611b8c565b604052919050565b5f67ffffffffffffffff821115611c1457611c14611b8c565b50601f01601f191660200190565b5f82601f830112611c31575f80fd5b8135611c44611c3f82611bfb565b611bca565b818152846020838601011115611c58575f80fd5b816020850160208301375f918101602001919091529392505050565b5f8060408385031215611c85575f80fd5b82359150602083013567ffffffffffffffff811115611ca2575f80fd5b611cae85828601611c22565b9150509250929050565b5f81518084528060208401602086015e5f602082860101526020601f19601f83011685010191505092915050565b8215158152604060208201525f6116b56040830184611cb8565b6001600160a01b0381168114611069575f80fd5b5f60208284031215611d24575f80fd5b8135611b0081611d00565b602081525f611b006020830184611cb8565b5f8060408385031215611d52575f80fd5b823567ffffffffffffffff80821115611d69575f80fd5b908401906101008287031215611d7d575f80fd5b90925060208401359080821115611d92575f80fd5b50611cae85828601611c22565b5f8083601f840112611daf575f80fd5b50813567ffffffffffffffff811115611dc6575f80fd5b602083019150836020828501011115610713575f80fd5b5f8060208385031215611dee575f80fd5b823567ffffffffffffffff811115611e04575f80fd5b611e1085828601611d9f565b90969095509350505050565b5f805f8060408587031215611e2f575f80fd5b843567ffffffffffffffff80821115611e46575f80fd5b818701915087601f830112611e59575f80fd5b813581811115611e67575f80fd5b8860208260051b8501011115611e7b575f80fd5b602092830196509450908601359080821115611e95575f80fd5b50611ea287828801611d9f565b95989497509550505050565b5f8060408385031215611ebf575f80fd5b8235611eca81611d00565b9150602083013567ffffffffffffffff811115611ca2575f80fd5b5f60208284031215611ef5575f80fd5b5035919050565b5f67ffffffffffffffff821115611f1557611f15611b8c565b5060051b60200190565b5f6020808385031215611f30575f80fd5b823567ffffffffffffffff811115611f46575f80fd5b8301601f81018513611f56575f80fd5b8035611f64611c3f82611efc565b81815260059190911b82018301908381019087831115611f82575f80fd5b928401925b82841015611fa9578335611f9a81611d00565b82529284019290840190611f87565b979650505050505050565b5f8060408385031215611fc5575f80fd5b823591506020830135611fd781611d00565b809150509250929050565b634e487b7160e01b5f52603260045260245ffd5b60a081525f61200860a0830187611cb8565b6020838203818501528187518084528284019150828160051b850101838a015f5b8381101561205757601f19878403018552612045838351611cb8565b94860194925090850190600101612029565b5050868103604088015261206b818a611cb8565b9450505050508360608401528281036080840152611fa9815f815260200190565b5f806040838503121561209d575f80fd5b823567ffffffffffffffff808211156120b4575f80fd5b818501915085601f8301126120c7575f80fd5b813560206120d7611c3f83611efc565b82815260059290921b840181019181810190898411156120f5575f80fd5b8286015b8481101561212b5780358681111561210f575f80fd5b61211d8c86838b0101611c22565b8452509183019183016120f9565b5096505086013592505080821115611d92575f80fd5b5f60208284031215612151575f80fd5b8151611b0081611d00565b5f82601f83011261216b575f80fd5b8151612179611c3f82611bfb565b81815284602083860101111561218d575f80fd5b8160208501602083015e5f918101602001919091529392505050565b5f80608083850312156121ba575f80fd5b83601f8401126121c8575f80fd5b6040516060810167ffffffffffffffff82821081831117156121ec576121ec611b8c565b816040528291506060860187811115612203575f80fd5b865b8181101561221d578051845260209384019301612205565b50519294508083111561222e575f80fd5b5050611cae8582860161215c565b5f6001600160a01b0380861683526060602084015261225e6060840186611cb8565b9150808416604084015250949350505050565b5f60408284031215612281575f80fd5b6040516040810181811067ffffffffffffffff821117156122a4576122a4611b8c565b806040525080915082516122b781611d00565b8152602092830151920191909152919050565b5f805f60a084860312156122dc575f80fd5b6122e68585612271565b92506122f58560408601612271565b9150608084015190509250925092565b5f60208284031215612315575f80fd5b81518015158114611b00575f80fd5b604081525f6123366040830185611cb8565b8281036020840152611a4e8185611cb8565b5f60208284031215612358575f80fd5b815167ffffffffffffffff81111561236e575f80fd5b6116b58482850161215c565b805163ffffffff811681146112d4575f80fd5b805177ffffffffffffffffffffffffffffffffffffffffffffffff811681146112d4575f80fd5b8051601781900b81146112d4575f80fd5b5f61012082840312156123d6575f80fd5b6123de611ba0565b825181526123ee6020840161237a565b60208201526123ff6040840161237a565b60408201526124106060840161238d565b60608201526124216080840161238d565b608082015261243260a0840161237a565b60a082015261244360c084016123b4565b60c082015261245460e084016123b4565b60e08201526101006124678185016123b4565b908201529392505050565b81835281816020850137505f828201602090810191909152601f909101601f19169091010190565b604080825281018490525f6060600586901b8301810190830187835b8881101561252757858403605f190183528135368b9003601e190181126124db575f80fd5b8a01602081810191359067ffffffffffffffff8211156124f9575f80fd5b813603831315612507575f80fd5b612512878385612472565b965094850194939093019250506001016124b6565b5050508281036020840152611fa9818587612472565b5f6020828403121561254d575f80fd5b5051919050565b634e487b7160e01b5f52601160045260245ffd5b808201808211156112ce576112ce612554565b80820281158282048414176112ce576112ce612554565b5f816125a0576125a0612554565b505f190190565b5f82518060208501845e5f92019182525091905056fea2646970667358221220c3207100bfdddbf0182fb117e0f481c3aa611a9313d833f3529dc33172a705fa64736f6c63430008190033",
  "devdoc": {
    "errors": {
      "AddressEmptyCode(address)": [
        {
          "details": "There's no code at `target` (it is not a contract)."
        }
      ],
      "ERC1967InvalidImplementation(address)": [
        {
          "details": "The `implementation` of the proxy is invalid."
        }
      ],
      "ERC1967NonPayable()": [
        {
          "details": "An upgrade function sees `msg.value > 0` that may be lost."
        }
      ],
      "FailedCall()": [
        {
          "details": "A call to an address target failed. The target may have reverted."
        }
      ],
      "InvalidInitialization()": [
        {
          "details": "The contract is already initialized."
        }
      ],
      "NotInitializing()": [
        {
          "details": "The contract is not initializing."
        }
      ],
      "OwnableInvalidOwner(address)": [
        {
          "details": "The owner is not a valid owner account. (eg. `address(0)`)"
        }
      ],
      "OwnableUnauthorizedAccount(address)": [
        {
          "details": "The caller account is not authorized to perform an operation."
        }
      ],
      "StringsInsufficientHexLength(uint256,uint256)": [
        {
          "details": "The `value` string doesn't fit in the specified `length`."
        }
      ],
      "UUPSUnauthorizedCallContext()": [
        {
          "details": "The call is from an unauthorized context."
        }
      ],
      "UUPSUnsupportedProxiableUUID(bytes32)": [
        {
          "details": "The storage `slot` is unsupported as a UUID."
        }
      ]
    },
    "events": {
      "Initialized(uint64)": {
        "details": "Triggered when the contract has been initialized or reinitialized."
      },
      "Upgraded(address)": {
        "details": "Emitted when the implementation is upgraded."
      }
    },
    "kind": "dev",
    "methods": {
      "acceptOwnership()": {
        "details": "The new owner accepts the ownership transfer."
      },
      "checkCallback(bytes[],bytes)": {
        "params": {
          "extraData": "context data from streams lookup process.",
          "values": "an array of bytes returned from data streams endpoint."
        },
        "returns": {
          "_0": "boolean to indicate whether the keeper should call performUpkeep or not.",
          "_1": "bytes that the keeper should call performUpkeep with, if upkeep is needed. If you would like to encode data to decode later, try `abi.encode`."
        }
      },
      "checkErrorHandler(uint256,bytes)": {
        "returns": {
          "_0": "upkeepNeeded boolean to indicate whether the keeper should call performUpkeep or not.",
          "_1": "performData bytes that the keeper should call performUpkeep with, if upkeep is needed. If you would like to encode data to decode later, try `abi.encode`."
        }
      },
      "decimals()": {
        "returns": {
          "_0": "The number of decimals."
        }
      },
      "getAssetPrice(address)": {
        "params": {
          "asset": "The address of the asset."
        },
        "returns": {
          "price": "The price of the asset."
        }
      },
      "getAssetsPrices(address[])": {
        "params": {
          "assets": "The list of asset addresses."
        },
        "returns": {
          "prices": "The list of prices for the specified assets."
        }
      },
      "owner()": {
        "details": "Returns the address of the current owner."
      },
      "pendingOwner()": {
        "details": "Returns the address of the pending owner."
      },
      "performUpkeep(bytes)": {
        "details": "The input to this method should not be trusted, and the caller of the method should not even be restricted to any single registry. Anyone should be able call it, and the input should be validated, there is no guarantee that the data passed in is the performData returned from checkUpkeep. This could happen due to malicious keepers, racing keepers, or simply a state change while the performUpkeep transaction is waiting for confirmation. Always validate the data passed in.",
        "params": {
          "performData": "is the data which was passed back from the checkData simulation. If it is encoded, it can easily be decoded into other types by calling `abi.decode`. This data should not be trusted, and should be validated against the contract's current state."
        }
      },
      "proxiableUUID()": {
        "details": "Implementation of the ERC-1822 {proxiableUUID} function. This returns the storage slot used by the implementation. It is used to validate the implementation's compatibility when performing an upgrade. IMPORTANT: A proxy pointing at a proxiable contract should not be considered proxiable itself, because this risks bricking a proxy that upgrades to it, by delegating to itself until out of gas. Thus it is critical that this function revert if invoked through a proxy. This is guaranteed by the `notDelegated` modifier."
      },
      "renounceOwnership()": {
        "details": "Leaves the contract without owner. It will not be possible to call `onlyOwner` functions. Can only be called by the current owner. NOTE: Renouncing ownership will leave the contract without an owner, thereby disabling any functionality that is only available to the owner."
      },
      "transferOwnership(address)": {
        "details": "Starts the ownership transfer of the contract to a new account. Replaces the pending transfer if there is one. Can only be called by the current owner."
      },
      "upgradeToAndCall(address,bytes)": {
        "custom:oz-upgrades-unsafe-allow-reachable": "delegatecall",
        "details": "Upgrade the implementation of the proxy to `newImplementation`, and subsequently execute the function call encoded in `data`. Calls {_authorizeUpgrade}. Emits an {Upgraded} event."
      }
    },
    "version": 1
  },
  "userdoc": {
    "kind": "user",
    "methods": {
      "checkCallback(bytes[],bytes)": {
        "notice": "any contract which wants to utilize StreamsLookup feature needs to implement this interface as well as the automation compatible interface."
      },
      "checkErrorHandler(uint256,bytes)": {
        "notice": "this is a new, optional function in streams lookup. It is meant to surface streams lookup errors."
      },
      "decimals()": {
        "notice": "Retrieves the number of decimals used by the oracle."
      },
      "getAssetPrice(address)": {
        "notice": "Retrieves the price of a specified asset."
      },
      "getAssetsPrices(address[])": {
        "notice": "Retrieves the prices of a list of specified assets."
      },
      "performUpkeep(bytes)": {
        "notice": "method that is actually executed by the keepers, via the registry. The data returned by the checkUpkeep simulation will be passed into this method to actually be executed."
      }
    },
    "version": 1
  },
  "storageLayout": {
    "storage": [
      {
        "astId": 8,
        "contract": "src/oracle/DatastreamOracle.sol:DatastreamOracle",
        "label": "_owner",
        "offset": 0,
        "slot": "0",
        "type": "t_address"
      },
      {
        "astId": 156,
        "contract": "src/oracle/DatastreamOracle.sol:DatastreamOracle",
        "label": "_pendingOwner",
        "offset": 0,
        "slot": "1",
        "type": "t_address"
      },
      {
        "astId": 6096,
        "contract": "src/oracle/DatastreamOracle.sol:DatastreamOracle",
        "label": "_feedIds",
        "offset": 0,
        "slot": "2",
        "type": "t_array(t_bytes32)dyn_storage"
      },
      {
        "astId": 6101,
        "contract": "src/oracle/DatastreamOracle.sol:DatastreamOracle",
        "label": "_feedData",
        "offset": 0,
        "slot": "3",
        "type": "t_mapping(t_bytes32,t_struct(FeedData)5915_storage)"
      },
      {
        "astId": 6105,
        "contract": "src/oracle/DatastreamOracle.sol:DatastreamOracle",
        "label": "_assetToPrice",
        "offset": 0,
        "slot": "4",
        "type": "t_mapping(t_address,t_uint256)"
      },
      {
        "astId": 6107,
        "contract": "src/oracle/DatastreamOracle.sol:DatastreamOracle",
        "label": "fallbackOracle",
        "offset": 0,
        "slot": "5",
        "type": "t_address"
      },
      {
        "astId": 6109,
        "contract": "src/oracle/DatastreamOracle.sol:DatastreamOracle",
        "label": "forwarder",
        "offset": 0,
        "slot": "6",
        "type": "t_address"
      }
    ],
    "types": {
      "t_address": {
        "encoding": "inplace",
        "label": "address",
        "numberOfBytes": "20"
      },
      "t_array(t_bytes32)dyn_storage": {
        "base": "t_bytes32",
        "encoding": "dynamic_array",
        "label": "bytes32[]",
        "numberOfBytes": "32"
      },
      "t_bytes32": {
        "encoding": "inplace",
        "label": "bytes32",
        "numberOfBytes": "32"
      },
      "t_mapping(t_address,t_uint256)": {
        "encoding": "mapping",
        "key": "t_address",
        "label": "mapping(address => uint256)",
        "numberOfBytes": "32",
        "value": "t_uint256"
      },
      "t_mapping(t_bytes32,t_struct(FeedData)5915_storage)": {
        "encoding": "mapping",
        "key": "t_bytes32",
        "label": "mapping(bytes32 => struct IDatastreamOracle.FeedData)",
        "numberOfBytes": "32",
        "value": "t_struct(FeedData)5915_storage"
      },
      "t_struct(FeedData)5915_storage": {
        "encoding": "inplace",
        "label": "struct IDatastreamOracle.FeedData",
        "members": [
          {
            "astId": 5912,
            "contract": "src/oracle/DatastreamOracle.sol:DatastreamOracle",
            "label": "asset",
            "offset": 0,
            "slot": "0",
            "type": "t_address"
          },
          {
            "astId": 5914,
            "contract": "src/oracle/DatastreamOracle.sol:DatastreamOracle",
            "label": "index",
            "offset": 20,
            "slot": "0",
            "type": "t_uint96"
          }
        ],
        "numberOfBytes": "32"
      },
      "t_uint256": {
        "encoding": "inplace",
        "label": "uint256",
        "numberOfBytes": "32"
      },
      "t_uint96": {
        "encoding": "inplace",
        "label": "uint96",
        "numberOfBytes": "12"
      }
    }
  }
}