{
  "address": "0x3A46d45c36F5D3cEDf87B67E3A34F34aBe06AbA8",
  "abi": [
    {
      "inputs": [
        {
          "internalType": "address",
          "name": "_bookManager",
          "type": "address"
        },
        {
          "internalType": "address payable",
          "name": "_rebalancer",
          "type": "address"
        },
        {
          "internalType": "address",
          "name": "_router",
          "type": "address"
        }
      ],
      "stateMutability": "nonpayable",
      "type": "constructor"
    },
    {
      "inputs": [
        {
          "internalType": "address",
          "name": "target",
          "type": "address"
        }
      ],
      "name": "AddressEmptyCode",
      "type": "error"
    },
    {
      "inputs": [],
      "name": "ERC20TransferFailed",
      "type": "error"
    },
    {
      "inputs": [],
      "name": "FailedCall",
      "type": "error"
    },
    {
      "inputs": [
        {
          "internalType": "uint256",
          "name": "balance",
          "type": "uint256"
        },
        {
          "internalType": "uint256",
          "name": "needed",
          "type": "uint256"
        }
      ],
      "name": "InsufficientBalance",
      "type": "error"
    },
    {
      "inputs": [],
      "name": "NativeTransferFailed",
      "type": "error"
    },
    {
      "inputs": [
        {
          "internalType": "bytes",
          "name": "message",
          "type": "bytes"
        }
      ],
      "name": "RouterSwapFailed",
      "type": "error"
    },
    {
      "inputs": [
        {
          "internalType": "address",
          "name": "token",
          "type": "address"
        }
      ],
      "name": "SafeERC20FailedOperation",
      "type": "error"
    },
    {
      "inputs": [],
      "name": "bookManager",
      "outputs": [
        {
          "internalType": "contract IBookManager",
          "name": "",
          "type": "address"
        }
      ],
      "stateMutability": "view",
      "type": "function"
    },
    {
      "inputs": [
        {
          "internalType": "bytes32",
          "name": "key",
          "type": "bytes32"
        },
        {
          "internalType": "uint256",
          "name": "amountA",
          "type": "uint256"
        },
        {
          "internalType": "uint256",
          "name": "amountB",
          "type": "uint256"
        },
        {
          "internalType": "uint256",
          "name": "minLpAmount",
          "type": "uint256"
        },
        {
          "components": [
            {
              "internalType": "uint256",
              "name": "permitAmount",
              "type": "uint256"
            },
            {
              "components": [
                {
                  "internalType": "uint256",
                  "name": "deadline",
                  "type": "uint256"
                },
                {
                  "internalType": "uint8",
                  "name": "v",
                  "type": "uint8"
                },
                {
                  "internalType": "bytes32",
                  "name": "r",
                  "type": "bytes32"
                },
                {
                  "internalType": "bytes32",
                  "name": "s",
                  "type": "bytes32"
                }
              ],
              "internalType": "struct PermitSignature",
              "name": "signature",
              "type": "tuple"
            }
          ],
          "internalType": "struct ERC20PermitParams",
          "name": "currencyAPermitParams",
          "type": "tuple"
        },
        {
          "components": [
            {
              "internalType": "uint256",
              "name": "permitAmount",
              "type": "uint256"
            },
            {
              "components": [
                {
                  "internalType": "uint256",
                  "name": "deadline",
                  "type": "uint256"
                },
                {
                  "internalType": "uint8",
                  "name": "v",
                  "type": "uint8"
                },
                {
                  "internalType": "bytes32",
                  "name": "r",
                  "type": "bytes32"
                },
                {
                  "internalType": "bytes32",
                  "name": "s",
                  "type": "bytes32"
                }
              ],
              "internalType": "struct PermitSignature",
              "name": "signature",
              "type": "tuple"
            }
          ],
          "internalType": "struct ERC20PermitParams",
          "name": "currencyBPermitParams",
          "type": "tuple"
        },
        {
          "components": [
            {
              "internalType": "Currency",
              "name": "inCurrency",
              "type": "address"
            },
            {
              "internalType": "uint256",
              "name": "amount",
              "type": "uint256"
            },
            {
              "internalType": "bytes",
              "name": "data",
              "type": "bytes"
            }
          ],
          "internalType": "struct IMinter.SwapParams",
          "name": "swapParams",
          "type": "tuple"
        }
      ],
      "name": "mint",
      "outputs": [],
      "stateMutability": "payable",
      "type": "function"
    },
    {
      "inputs": [],
      "name": "rebalancer",
      "outputs": [
        {
          "internalType": "contract Rebalancer",
          "name": "",
          "type": "address"
        }
      ],
      "stateMutability": "view",
      "type": "function"
    },
    {
      "inputs": [],
      "name": "router",
      "outputs": [
        {
          "internalType": "address",
          "name": "",
          "type": "address"
        }
      ],
      "stateMutability": "view",
      "type": "function"
    },
    {
      "stateMutability": "payable",
      "type": "receive"
    }
  ],
  "transactionHash": "0xe26c380c9e9138448413e0be8798929cfc25b46256d440ecca34240a1627c2e5",
  "args": [
    "0x382CCccbD3b142D7DA063bF68cd0c89634767F76",
    "0x4C32e01aF452ED75f3e46B8BC2953798D092D905",
    "0x19ceead7105607cd444f5ad10dd51356436095a1"
  ],
  "numDeployments": 1,
  "solcInputHash": "5fe4f85ece4d0b1a3c8ce459272a7b17",
  "bytecode": "0x60e060405234801561000f575f80fd5b5060405161120f38038061120f83398101604081905261002e91610062565b6001600160a01b0392831660805290821660a0521660c0526100ac565b6001600160a01b038116811461005f575f80fd5b50565b5f805f60608486031215610074575f80fd5b835161007f8161004b565b60208501519093506100908161004b565b60408501519092506100a18161004b565b809150509250925092565b60805160a05160c0516110ef6101205f395f818160f40152818161055201528181610587015261065b01525f8181605d015281816101470152818161037a015281816106b1015281816106dc01528181610745015281816107c201526107ed01525f818160ac015261020d01526110ef5ff3fe608060405260043610610041575f3560e01c806301d22ccd1461004c5780633f322bc91461009b5780634f28185a146100ce578063f887ea40146100e3575f80fd5b3661004857005b5f80fd5b348015610057575f80fd5b5061007f7f000000000000000000000000000000000000000000000000000000000000000081565b6040516001600160a01b03909116815260200160405180910390f35b3480156100a6575f80fd5b5061007f7f000000000000000000000000000000000000000000000000000000000000000081565b6100e16100dc366004610d1a565b610116565b005b3480156100ee575f80fd5b5061007f7f000000000000000000000000000000000000000000000000000000000000000081565b6040517fc630ed7d000000000000000000000000000000000000000000000000000000008152600481018890525f907f00000000000000000000000000000000000000000000000000000000000000006001600160a01b03169063c630ed7d906024016040805180830381865afa158015610193573d5f803e3d5ffd5b505050506040513d601f19601f820116820180604052508101906101b79190610dcb565b506040517f9b22917d00000000000000000000000000000000000000000000000000000000815277ffffffffffffffffffffffffffffffffffffffffffffffff821660048201529091505f906001600160a01b037f00000000000000000000000000000000000000000000000000000000000000001690639b22917d9060240160c060405180830381865afa158015610252573d5f803e3d5ffd5b505050506040513d601f19601f820116820180604052508101906102769190610e62565b905061029b81604001513330888036038101906102939190610f1c565b929190610464565b5080516102b390333061029336899003890189610f1c565b5060408101516001600160a01b0316156102e15760408101516102e1906001600160a01b031633308b610482565b80516001600160a01b031615610308578051610308906001600160a01b031633308a610482565b5f6103166040850185610fc4565b905011156103275761032783610510565b5f61033b8a8360400151845f01518a610680565b6040517f095bcdb6000000000000000000000000000000000000000000000000000000008152336004820152602481018c9052604481018290529091507f00000000000000000000000000000000000000000000000000000000000000006001600160a01b03169063095bcdb6906064016020604051808303815f875af11580156103c8573d5f803e3d5ffd5b505050506040513d601f19601f820116820180604052508101906103ec919061100e565b505f61040483604001516001600160a01b031661081c565b90508015610425576040830151610425906001600160a01b031633836108bc565b8251610439906001600160a01b031661081c565b90508015610457578251610457906001600160a01b031633836108bc565b5050505050505050505050565b5f610479856020015185875f0151868661099e565b95945050505050565b604080516001600160a01b0385811660248301528416604482015260648082018490528251808303909101815260849091019091526020810180517bffffffffffffffffffffffffffffffffffffffffffffffffffffffff167f23b872dd0000000000000000000000000000000000000000000000000000000017905261050a908590610a66565b50505050565b5f61052e610521602084018461102d565b6001600160a01b03161590565b610538575f61053e565b81602001355b905061057b610550602084018461102d565b7f00000000000000000000000000000000000000000000000000000000000000008460200135610ae5565b5f806001600160a01b037f000000000000000000000000000000000000000000000000000000000000000016836105b56040870187610fc4565b6040516105c3929190611048565b5f6040518083038185875af1925050503d805f81146105fd576040519150601f19603f3d011682016040523d82523d5f602084013e610602565b606091505b50915091508161064957806040517f87a6c8900000000000000000000000000000000000000000000000000000000081526004016106409190611057565b60405180910390fd5b61050a610659602086018661102d565b7f00000000000000000000000000000000000000000000000000000000000000005f610ae5565b5f80610694856001600160a01b031661081c565b90505f6106a9856001600160a01b031661081c565b90506106d6867f000000000000000000000000000000000000000000000000000000000000000084610ae5565b610701857f000000000000000000000000000000000000000000000000000000000000000083610ae5565b6040517f09cb66c4000000000000000000000000000000000000000000000000000000008152600481018890526024810183905260448101829052606481018590527f00000000000000000000000000000000000000000000000000000000000000006001600160a01b0316906309cb66c490479060840160206040518083038185885af1158015610795573d5f803e3d5ffd5b50505050506040513d601f19601f820116820180604052508101906107ba919061108c565b92506107e7867f00000000000000000000000000000000000000000000000000000000000000005f610ae5565b610812857f00000000000000000000000000000000000000000000000000000000000000005f610ae5565b5050949350505050565b5f6001600160a01b038216610832575047919050565b6040517f70a082310000000000000000000000000000000000000000000000000000000081523060048201526001600160a01b038316906370a0823190602401602060405180830381865afa15801561088d573d5f803e3d5ffd5b505050506040513d601f19601f820116820180604052508101906108b1919061108c565b92915050565b919050565b5f6001600160a01b038416610911575f805f8085875af190508061090c576040517ff4b3b1bc00000000000000000000000000000000000000000000000000000000815260040160405180910390fd5b61050a565b6040517fa9059cbb0000000000000000000000000000000000000000000000000000000081526001600160a01b038416600482015282602482015260205f6044835f895af13d15601f3d1160015f51141617169150508061050a576040517ff27f64e400000000000000000000000000000000000000000000000000000000815260040160405180910390fd5b84515f9015610a5b578551602087015160408089015160608a015191517fd505accf0000000000000000000000000000000000000000000000000000000081526001600160a01b0388811660048301528781166024830152604482018a9052606482019590955260ff909316608484015260a483015260c48201529086169063d505accf9060e4015f604051808303815f87803b158015610a3d575f80fd5b505af1925050508015610a4e575060015b15610a5b57506001610479565b505f95945050505050565b5f610a7a6001600160a01b03841683610b7d565b905080515f14158015610a9e575080806020019051810190610a9c919061100e565b155b15610ae0576040517f5274afe70000000000000000000000000000000000000000000000000000000081526001600160a01b0384166004820152602401610640565b505050565b6001600160a01b03831615610ae0576040517f095ea7b30000000000000000000000000000000000000000000000000000000081526001600160a01b0383811660048301526024820183905284169063095ea7b3906044016020604051808303815f875af1158015610b59573d5f803e3d5ffd5b505050506040513d601f19601f8201168201806040525081019061050a919061100e565b6060610b8a83835f610b91565b9392505050565b606081471015610bd6576040517fcf47918100000000000000000000000000000000000000000000000000000000815247600482015260248101839052604401610640565b5f80856001600160a01b03168486604051610bf191906110a3565b5f6040518083038185875af1925050503d805f8114610c2b576040519150601f19603f3d011682016040523d82523d5f602084013e610c30565b606091505b5091509150610c40868383610c4a565b9695505050505050565b606082610c5f57610c5a82610cbf565b610b8a565b8151158015610c7657506001600160a01b0384163b155b15610cb8576040517f9996b3150000000000000000000000000000000000000000000000000000000081526001600160a01b0385166004820152602401610640565b5080610b8a565b805115610ccf5780518082602001fd5b6040517fd6bda27500000000000000000000000000000000000000000000000000000000815260040160405180910390fd5b50565b5f60a08284031215610d14575f80fd5b50919050565b5f805f805f805f6101e0888a031215610d31575f80fd5b87359650602088013595506040880135945060608801359350610d578960808a01610d04565b9250610d67896101208a01610d04565b91506101c088013567ffffffffffffffff811115610d83575f80fd5b88016060818b031215610d94575f80fd5b8091505092959891949750929550565b805177ffffffffffffffffffffffffffffffffffffffffffffffff811681146108b7575f80fd5b5f8060408385031215610ddc575f80fd5b610de583610da4565b9150610df360208401610da4565b90509250929050565b6040516080810167ffffffffffffffff81118282101715610e2b57634e487b7160e01b5f52604160045260245ffd5b60405290565b6001600160a01b0381168114610d01575f80fd5b805162ffffff811681146108b7575f80fd5b80516108b781610e31565b5f60c08284031215610e72575f80fd5b60405160c0810167ffffffffffffffff8282108183111715610ea257634e487b7160e01b5f52604160045260245ffd5b8160405284519150610eb382610e31565b9082526020840151908082168214610ec9575f80fd5b5060208201526040830151610edd81610e31565b6040820152610eee60608401610e45565b6060820152610eff60808401610e57565b6080820152610f1060a08401610e45565b60a08201529392505050565b5f81830360a0811215610f2d575f80fd5b6040516040810181811067ffffffffffffffff82111715610f5c57634e487b7160e01b5f52604160045260245ffd5b604052833581526080601f1983011215610f74575f80fd5b610f7c610dfc565b915060208401358252604084013560ff81168114610f98575f80fd5b806020840152506060840135604083015260808401356060830152816020820152809250505092915050565b5f808335601e19843603018112610fd9575f80fd5b83018035915067ffffffffffffffff821115610ff3575f80fd5b602001915036819003821315611007575f80fd5b9250929050565b5f6020828403121561101e575f80fd5b81518015158114610b8a575f80fd5b5f6020828403121561103d575f80fd5b8135610b8a81610e31565b818382375f9101908152919050565b602081525f82518060208401528060208501604085015e5f604082850101526040601f19601f83011684010191505092915050565b5f6020828403121561109c575f80fd5b5051919050565b5f82518060208501845e5f92019182525091905056fea2646970667358221220afe7dfc8b1b3a414062c565edafc490741b2f0575aafc2e23eb2c53254a939b764736f6c63430008190033",
  "devdoc": {
    "errors": {
      "AddressEmptyCode(address)": [
        {
          "details": "There's no code at `target` (it is not a contract)."
        }
      ],
      "FailedCall()": [
        {
          "details": "A call to an address target failed. The target may have reverted."
        }
      ],
      "InsufficientBalance(uint256,uint256)": [
        {
          "details": "The ETH balance of the account is not enough to perform the operation."
        }
      ],
      "SafeERC20FailedOperation(address)": [
        {
          "details": "An operation with an ERC-20 token failed."
        }
      ]
    },
    "kind": "dev",
    "methods": {},
    "version": 1
  },
  "userdoc": {
    "errors": {
      "ERC20TransferFailed()": [
        {
          "notice": "Thrown when an ERC20 transfer fails"
        }
      ],
      "NativeTransferFailed()": [
        {
          "notice": "Thrown when a native transfer fails"
        }
      ]
    },
    "kind": "user",
    "methods": {},
    "version": 1
  },
  "storageLayout": {
    "storage": [],
    "types": null
  }
}