{
  "address": "0xBd5f93e27744B07Ab9bB26c89f9AA7D6e3028B10",
  "abi": [
    {
      "inputs": [
        {
          "internalType": "contract IRebalancer",
          "name": "rebalancer_",
          "type": "address"
        }
      ],
      "stateMutability": "nonpayable",
      "type": "constructor"
    },
    {
      "inputs": [
        {
          "internalType": "address",
          "name": "target",
          "type": "address"
        }
      ],
      "name": "AddressEmptyCode",
      "type": "error"
    },
    {
      "inputs": [
        {
          "internalType": "address",
          "name": "implementation",
          "type": "address"
        }
      ],
      "name": "ERC1967InvalidImplementation",
      "type": "error"
    },
    {
      "inputs": [],
      "name": "ERC1967NonPayable",
      "type": "error"
    },
    {
      "inputs": [],
      "name": "FailedCall",
      "type": "error"
    },
    {
      "inputs": [],
      "name": "InvalidInitialization",
      "type": "error"
    },
    {
      "inputs": [],
      "name": "NotInitializing",
      "type": "error"
    },
    {
      "inputs": [
        {
          "internalType": "address",
          "name": "owner",
          "type": "address"
        }
      ],
      "name": "OwnableInvalidOwner",
      "type": "error"
    },
    {
      "inputs": [
        {
          "internalType": "address",
          "name": "account",
          "type": "address"
        }
      ],
      "name": "OwnableUnauthorizedAccount",
      "type": "error"
    },
    {
      "inputs": [],
      "name": "UUPSUnauthorizedCallContext",
      "type": "error"
    },
    {
      "inputs": [
        {
          "internalType": "bytes32",
          "name": "slot",
          "type": "bytes32"
        }
      ],
      "name": "UUPSUnsupportedProxiableUUID",
      "type": "error"
    },
    {
      "anonymous": false,
      "inputs": [
        {
          "indexed": false,
          "internalType": "uint64",
          "name": "version",
          "type": "uint64"
        }
      ],
      "name": "Initialized",
      "type": "event"
    },
    {
      "anonymous": false,
      "inputs": [
        {
          "indexed": true,
          "internalType": "address",
          "name": "previousOwner",
          "type": "address"
        },
        {
          "indexed": true,
          "internalType": "address",
          "name": "newOwner",
          "type": "address"
        }
      ],
      "name": "OwnershipTransferStarted",
      "type": "event"
    },
    {
      "anonymous": false,
      "inputs": [
        {
          "indexed": true,
          "internalType": "address",
          "name": "previousOwner",
          "type": "address"
        },
        {
          "indexed": true,
          "internalType": "address",
          "name": "newOwner",
          "type": "address"
        }
      ],
      "name": "OwnershipTransferred",
      "type": "event"
    },
    {
      "anonymous": false,
      "inputs": [
        {
          "indexed": true,
          "internalType": "address",
          "name": "implementation",
          "type": "address"
        }
      ],
      "name": "Upgraded",
      "type": "event"
    },
    {
      "inputs": [],
      "name": "UPGRADE_INTERFACE_VERSION",
      "outputs": [
        {
          "internalType": "string",
          "name": "",
          "type": "string"
        }
      ],
      "stateMutability": "view",
      "type": "function"
    },
    {
      "inputs": [],
      "name": "acceptOwnership",
      "outputs": [],
      "stateMutability": "nonpayable",
      "type": "function"
    },
    {
      "inputs": [
        {
          "internalType": "address",
          "name": "initialOwner",
          "type": "address"
        }
      ],
      "name": "initialize",
      "outputs": [],
      "stateMutability": "nonpayable",
      "type": "function"
    },
    {
      "inputs": [],
      "name": "owner",
      "outputs": [
        {
          "internalType": "address",
          "name": "",
          "type": "address"
        }
      ],
      "stateMutability": "view",
      "type": "function"
    },
    {
      "inputs": [
        {
          "internalType": "bytes32",
          "name": "key",
          "type": "bytes32"
        }
      ],
      "name": "pause",
      "outputs": [],
      "stateMutability": "nonpayable",
      "type": "function"
    },
    {
      "inputs": [],
      "name": "pendingOwner",
      "outputs": [
        {
          "internalType": "address",
          "name": "",
          "type": "address"
        }
      ],
      "stateMutability": "view",
      "type": "function"
    },
    {
      "inputs": [],
      "name": "proxiableUUID",
      "outputs": [
        {
          "internalType": "bytes32",
          "name": "",
          "type": "bytes32"
        }
      ],
      "stateMutability": "view",
      "type": "function"
    },
    {
      "inputs": [],
      "name": "rebalancer",
      "outputs": [
        {
          "internalType": "contract IRebalancer",
          "name": "",
          "type": "address"
        }
      ],
      "stateMutability": "view",
      "type": "function"
    },
    {
      "inputs": [],
      "name": "renounceOwnership",
      "outputs": [],
      "stateMutability": "nonpayable",
      "type": "function"
    },
    {
      "inputs": [
        {
          "internalType": "address",
          "name": "newOwner",
          "type": "address"
        }
      ],
      "name": "transferOwnership",
      "outputs": [],
      "stateMutability": "nonpayable",
      "type": "function"
    },
    {
      "inputs": [
        {
          "internalType": "bytes32",
          "name": "key",
          "type": "bytes32"
        },
        {
          "internalType": "uint256",
          "name": "oraclePrice",
          "type": "uint256"
        },
        {
          "internalType": "Tick",
          "name": "tickA",
          "type": "int24"
        },
        {
          "internalType": "Tick",
          "name": "tickB",
          "type": "int24"
        },
        {
          "internalType": "uint24",
          "name": "rate",
          "type": "uint24"
        }
      ],
      "name": "updatePosition",
      "outputs": [],
      "stateMutability": "nonpayable",
      "type": "function"
    },
    {
      "inputs": [
        {
          "internalType": "address",
          "name": "newImplementation",
          "type": "address"
        },
        {
          "internalType": "bytes",
          "name": "data",
          "type": "bytes"
        }
      ],
      "name": "upgradeToAndCall",
      "outputs": [],
      "stateMutability": "payable",
      "type": "function"
    }
  ],
  "transactionHash": "0x0e9fa9cf6a381ba895a7c45dd0f2a370062e5f9676b192e81206006ba64c449e",
  "args": [
    "0x4C32e01aF452ED75f3e46B8BC2953798D092D905"
  ],
  "numDeployments": 1,
  "solcInputHash": "92e50d746012d0d9aaa330f918bfe22d",
  "bytecode": "0x60c060405230608052348015610013575f80fd5b506040516113e73803806113e7833981016040819052610032916100dd565b338061005757604051631e4fbdf760e01b81525f600482015260240160405180910390fd5b61006081610072565b506001600160a01b031660a05261010a565b600180546001600160a01b031916905561008b8161008e565b50565b5f80546001600160a01b038381166001600160a01b0319831681178455604051919092169283917f8be0079c531659141344cd1fd0a4f28419497f9722a3daafe3b4186f6b6457e09190a35050565b5f602082840312156100ed575f80fd5b81516001600160a01b0381168114610103575f80fd5b9392505050565b60805160a0516112936101545f395f818160d80152818161034901528181610549015281816107b8015261089d01525f8181610989015281816109b20152610b3501526112935ff3fe6080604052600436106100c3575f3560e01c8063a0f1533111610071578063e30c39781161004c578063e30c397814610225578063ed56531a14610242578063f2fde38b14610261575f80fd5b8063a0f1533114610192578063ad3cb1cc146101b1578063c4d66de814610206575f80fd5b8063715018a6116100a1578063715018a61461014e57806379ba5097146101625780638da5cb5b14610176575f80fd5b806301d22ccd146100c75780634f1ef2861461011757806352d1902d1461012c575b5f80fd5b3480156100d2575f80fd5b506100fa7f000000000000000000000000000000000000000000000000000000000000000081565b6040516001600160a01b0390911681526020015b60405180910390f35b61012a610125366004610ef8565b610280565b005b348015610137575f80fd5b5061014061029f565b60405190815260200161010e565b348015610159575f80fd5b5061012a6102cd565b34801561016d575f80fd5b5061012a6102e0565b348015610181575f80fd5b505f546001600160a01b03166100fa565b34801561019d575f80fd5b5061012a6101ac366004610fb0565b610329565b3480156101bc575f80fd5b506101f96040518060400160405280600581526020017f352e302e3000000000000000000000000000000000000000000000000000000081525081565b60405161010e919061100e565b348015610211575f80fd5b5061012a610220366004611043565b61065f565b348015610230575f80fd5b506001546001600160a01b03166100fa565b34801561024d575f80fd5b5061012a61025c36600461105e565b61079a565b34801561026c575f80fd5b5061012a61027b366004611043565b610901565b61028861097e565b61029182610a35565b61029b8282610a3d565b5050565b5f6102a8610b2a565b507f360894a13ba1a3210667c828492db98dca3e2076cc3735a920a3ca505d382bbc90565b6102d5610b73565b6102de5f610b9f565b565b60015433906001600160a01b0316811461031d5760405163118cdaa760e01b81526001600160a01b03821660048201526024015b60405180910390fd5b61032681610b9f565b50565b610331610b73565b60405163f6c0092760e01b8152600481018690525f907f00000000000000000000000000000000000000000000000000000000000000006001600160a01b03169063f6c00927906024015f60405180830381865afa158015610395573d5f803e3d5ffd5b505050506040513d5f823e601f3d908101601f191682016040526103bc9190810190611124565b604001519050806001600160a01b031663241b71bb876040518263ffffffff1660e01b81526004016103f091815260200190565b602060405180830381865afa15801561040b573d5f803e3d5ffd5b505050506040513d601f19601f8201168201806040525081019061042f91906111f6565b156104a3576040517f2f4dae9f000000000000000000000000000000000000000000000000000000008152600481018790526001600160a01b03821690632f4dae9f906024015f604051808303815f87803b15801561048c575f80fd5b505af115801561049e573d5f803e3d5ffd5b505050505b6040517fa0f153310000000000000000000000000000000000000000000000000000000081526004810187905260248101869052600285810b604483015284900b606482015262ffffff831660848201526001600160a01b0382169063a0f153319060a4015f604051808303815f87803b15801561051f575f80fd5b505af1158015610531573d5f803e3d5ffd5b505060405163036045d960e31b8152600481018990527f00000000000000000000000000000000000000000000000000000000000000006001600160a01b03169250631b022ec891506024015f604051808303815f87803b158015610594575f80fd5b505af11580156105a6573d5f803e3d5ffd5b50505050806001600160a01b031663337cceb96040518163ffffffff1660e01b8152600401602060405180830381865afa1580156105e6573d5f803e3d5ffd5b505050506040513d601f19601f8201168201806040525081019061060a9190611215565b6001600160a01b031663338cdca16040518163ffffffff1660e01b81526004015f604051808303815f87803b158015610641575f80fd5b505af1158015610653573d5f803e3d5ffd5b50505050505050505050565b7ff0c57e16840df040f15088dc2f81fe391c3923bec73e23a9662efc9c229c6a00805468010000000000000000810460ff16159067ffffffffffffffff165f811580156106a95750825b90505f8267ffffffffffffffff1660011480156106c55750303b155b9050811580156106d3575080155b1561070a576040517ff92ee8a900000000000000000000000000000000000000000000000000000000815260040160405180910390fd5b845467ffffffffffffffff19166001178555831561073e57845468ff00000000000000001916680100000000000000001785555b61074786610b9f565b831561079257845468ff000000000000000019168555604051600181527fc7f505b2f371ae2175ee4913f4499e1f2633a7b5936321eed1cdaeb6115181d29060200160405180910390a15b505050505050565b6107a2610b73565b60405163f6c0092760e01b8152600481018290527f00000000000000000000000000000000000000000000000000000000000000006001600160a01b03169063f6c00927906024015f60405180830381865afa158015610804573d5f803e3d5ffd5b505050506040513d5f823e601f3d908101601f1916820160405261082b9190810190611124565b604001516001600160a01b031663ed56531a826040518263ffffffff1660e01b815260040161085c91815260200190565b5f604051808303815f87803b158015610873575f80fd5b505af1158015610885573d5f803e3d5ffd5b505060405163036045d960e31b8152600481018490527f00000000000000000000000000000000000000000000000000000000000000006001600160a01b03169250631b022ec891506024015f604051808303815f87803b1580156108e8575f80fd5b505af11580156108fa573d5f803e3d5ffd5b5050505050565b610909610b73565b600180546001600160a01b03831673ffffffffffffffffffffffffffffffffffffffff1990911681179091556109465f546001600160a01b031690565b6001600160a01b03167f38d16b8cac22d99fc7c124b9cd0de2d3fa1faef420bfe791d8c362d765e2270060405160405180910390a350565b306001600160a01b037f0000000000000000000000000000000000000000000000000000000000000000161480610a1757507f00000000000000000000000000000000000000000000000000000000000000006001600160a01b0316610a0b7f360894a13ba1a3210667c828492db98dca3e2076cc3735a920a3ca505d382bbc546001600160a01b031690565b6001600160a01b031614155b156102de5760405163703e46dd60e11b815260040160405180910390fd5b610326610b73565b816001600160a01b03166352d1902d6040518163ffffffff1660e01b8152600401602060405180830381865afa925050508015610a97575060408051601f3d908101601f19168201909252610a9491810190611230565b60015b610abf57604051634c9c8ce360e01b81526001600160a01b0383166004820152602401610314565b7f360894a13ba1a3210667c828492db98dca3e2076cc3735a920a3ca505d382bbc8114610b1b576040517faa1d49a400000000000000000000000000000000000000000000000000000000815260048101829052602401610314565b610b258383610bc5565b505050565b306001600160a01b037f000000000000000000000000000000000000000000000000000000000000000016146102de5760405163703e46dd60e11b815260040160405180910390fd5b5f546001600160a01b031633146102de5760405163118cdaa760e01b8152336004820152602401610314565b6001805473ffffffffffffffffffffffffffffffffffffffff1916905561032681610c1a565b610bce82610c76565b6040516001600160a01b038316907fbc7cd75a20ee27fd9adebab32041f755214dbc6bffa90cc0225b39da2e5c2d3b905f90a2805115610c1257610b258282610cf9565b61029b610d6b565b5f80546001600160a01b0383811673ffffffffffffffffffffffffffffffffffffffff19831681178455604051919092169283917f8be0079c531659141344cd1fd0a4f28419497f9722a3daafe3b4186f6b6457e09190a35050565b806001600160a01b03163b5f03610cab57604051634c9c8ce360e01b81526001600160a01b0382166004820152602401610314565b7f360894a13ba1a3210667c828492db98dca3e2076cc3735a920a3ca505d382bbc805473ffffffffffffffffffffffffffffffffffffffff19166001600160a01b0392909216919091179055565b60605f80846001600160a01b031684604051610d159190611247565b5f60405180830381855af49150503d805f8114610d4d576040519150601f19603f3d011682016040523d82523d5f602084013e610d52565b606091505b5091509150610d62858383610da3565b95945050505050565b34156102de576040517fb398979f00000000000000000000000000000000000000000000000000000000815260040160405180910390fd5b606082610db857610db382610e1b565b610e14565b8151158015610dcf57506001600160a01b0384163b155b15610e11576040517f9996b3150000000000000000000000000000000000000000000000000000000081526001600160a01b0385166004820152602401610314565b50805b9392505050565b805115610e2b5780518082602001fd5b6040517fd6bda27500000000000000000000000000000000000000000000000000000000815260040160405180910390fd5b6001600160a01b0381168114610326575f80fd5b7f4e487b71000000000000000000000000000000000000000000000000000000005f52604160045260245ffd5b60405160e0810167ffffffffffffffff81118282101715610ec157610ec1610e71565b60405290565b604051601f8201601f1916810167ffffffffffffffff81118282101715610ef057610ef0610e71565b604052919050565b5f8060408385031215610f09575f80fd5b8235610f1481610e5d565b915060208381013567ffffffffffffffff80821115610f31575f80fd5b818601915086601f830112610f44575f80fd5b813581811115610f5657610f56610e71565b610f68601f8201601f19168501610ec7565b91508082528784828501011115610f7d575f80fd5b80848401858401375f848284010152508093505050509250929050565b8035600281900b8114610fab575f80fd5b919050565b5f805f805f60a08688031215610fc4575f80fd5b8535945060208601359350610fdb60408701610f9a565b9250610fe960608701610f9a565b9150608086013562ffffff81168114611000575f80fd5b809150509295509295909350565b602081525f82518060208401528060208501604085015e5f604082850101526040601f19601f83011684010191505092915050565b5f60208284031215611053575f80fd5b8135610e1481610e5d565b5f6020828403121561106e575f80fd5b5035919050565b805177ffffffffffffffffffffffffffffffffffffffffffffffff81168114610fab575f80fd5b8051610fab81610e5d565b5f82601f8301126110b6575f80fd5b8151602067ffffffffffffffff8211156110d2576110d2610e71565b8160051b6110e1828201610ec7565b92835284810182019282810190878511156110fa575f80fd5b83870192505b8483101561111957825182529183019190830190611100565b979650505050505050565b5f60208284031215611134575f80fd5b815167ffffffffffffffff8082111561114b575f80fd5b9083019060e0828603121561115e575f80fd5b611166610e9e565b61116f83611075565b815261117d60208401611075565b602082015261118e6040840161109c565b6040820152606083015160608201526080830151608082015260a0830151828111156111b8575f80fd5b6111c4878286016110a7565b60a08301525060c0830151828111156111db575f80fd5b6111e7878286016110a7565b60c08301525095945050505050565b5f60208284031215611206575f80fd5b81518015158114610e14575f80fd5b5f60208284031215611225575f80fd5b8151610e1481610e5d565b5f60208284031215611240575f80fd5b5051919050565b5f82518060208501845e5f92019182525091905056fea2646970667358221220f98708c772cbfba5b02a02cc1f3c5ba1de1e1bed01a449c62cac8a039f472ebd64736f6c63430008190033",
  "devdoc": {
    "errors": {
      "AddressEmptyCode(address)": [
        {
          "details": "There's no code at `target` (it is not a contract)."
        }
      ],
      "ERC1967InvalidImplementation(address)": [
        {
          "details": "The `implementation` of the proxy is invalid."
        }
      ],
      "ERC1967NonPayable()": [
        {
          "details": "An upgrade function sees `msg.value > 0` that may be lost."
        }
      ],
      "FailedCall()": [
        {
          "details": "A call to an address target failed. The target may have reverted."
        }
      ],
      "InvalidInitialization()": [
        {
          "details": "The contract is already initialized."
        }
      ],
      "NotInitializing()": [
        {
          "details": "The contract is not initializing."
        }
      ],
      "OwnableInvalidOwner(address)": [
        {
          "details": "The owner is not a valid owner account. (eg. `address(0)`)"
        }
      ],
      "OwnableUnauthorizedAccount(address)": [
        {
          "details": "The caller account is not authorized to perform an operation."
        }
      ],
      "UUPSUnauthorizedCallContext()": [
        {
          "details": "The call is from an unauthorized context."
        }
      ],
      "UUPSUnsupportedProxiableUUID(bytes32)": [
        {
          "details": "The storage `slot` is unsupported as a UUID."
        }
      ]
    },
    "events": {
      "Initialized(uint64)": {
        "details": "Triggered when the contract has been initialized or reinitialized."
      },
      "Upgraded(address)": {
        "details": "Emitted when the implementation is upgraded."
      }
    },
    "kind": "dev",
    "methods": {
      "acceptOwnership()": {
        "details": "The new owner accepts the ownership transfer."
      },
      "owner()": {
        "details": "Returns the address of the current owner."
      },
      "pendingOwner()": {
        "details": "Returns the address of the pending owner."
      },
      "proxiableUUID()": {
        "details": "Implementation of the ERC-1822 {proxiableUUID} function. This returns the storage slot used by the implementation. It is used to validate the implementation's compatibility when performing an upgrade. IMPORTANT: A proxy pointing at a proxiable contract should not be considered proxiable itself, because this risks bricking a proxy that upgrades to it, by delegating to itself until out of gas. Thus it is critical that this function revert if invoked through a proxy. This is guaranteed by the `notDelegated` modifier."
      },
      "renounceOwnership()": {
        "details": "Leaves the contract without owner. It will not be possible to call `onlyOwner` functions. Can only be called by the current owner. NOTE: Renouncing ownership will leave the contract without an owner, thereby disabling any functionality that is only available to the owner."
      },
      "transferOwnership(address)": {
        "details": "Starts the ownership transfer of the contract to a new account. Replaces the pending transfer if there is one. Can only be called by the current owner."
      },
      "upgradeToAndCall(address,bytes)": {
        "custom:oz-upgrades-unsafe-allow-reachable": "delegatecall",
        "details": "Upgrade the implementation of the proxy to `newImplementation`, and subsequently execute the function call encoded in `data`. Calls {_authorizeUpgrade}. Emits an {Upgraded} event."
      }
    },
    "version": 1
  },
  "userdoc": {
    "kind": "user",
    "methods": {},
    "version": 1
  },
  "storageLayout": {
    "storage": [
      {
        "astId": 8,
        "contract": "src/Operator.sol:Operator",
        "label": "_owner",
        "offset": 0,
        "slot": "0",
        "type": "t_address"
      },
      {
        "astId": 156,
        "contract": "src/Operator.sol:Operator",
        "label": "_pendingOwner",
        "offset": 0,
        "slot": "1",
        "type": "t_address"
      }
    ],
    "types": {
      "t_address": {
        "encoding": "inplace",
        "label": "address",
        "numberOfBytes": "20"
      }
    }
  }
}