{
  "address": "0x4C32e01aF452ED75f3e46B8BC2953798D092D905",
  "abi": [
    {
      "inputs": [
        {
          "internalType": "contract IBookManager",
          "name": "bookManager_",
          "type": "address"
        },
        {
          "internalType": "address",
          "name": "initialOwner_",
          "type": "address"
        }
      ],
      "stateMutability": "nonpayable",
      "type": "constructor"
    },
    {
      "inputs": [
        {
          "internalType": "address",
          "name": "target",
          "type": "address"
        }
      ],
      "name": "AddressEmptyCode",
      "type": "error"
    },
    {
      "inputs": [],
      "name": "AlreadyOpened",
      "type": "error"
    },
    {
      "inputs": [],
      "name": "ERC20TransferFailed",
      "type": "error"
    },
    {
      "inputs": [],
      "name": "FailedCall",
      "type": "error"
    },
    {
      "inputs": [
        {
          "internalType": "uint256",
          "name": "balance",
          "type": "uint256"
        },
        {
          "internalType": "uint256",
          "name": "needed",
          "type": "uint256"
        }
      ],
      "name": "InsufficientBalance",
      "type": "error"
    },
    {
      "inputs": [],
      "name": "InvalidAmount",
      "type": "error"
    },
    {
      "inputs": [],
      "name": "InvalidBookPair",
      "type": "error"
    },
    {
      "inputs": [],
      "name": "InvalidHook",
      "type": "error"
    },
    {
      "inputs": [],
      "name": "InvalidLockAcquiredSender",
      "type": "error"
    },
    {
      "inputs": [],
      "name": "InvalidLockCaller",
      "type": "error"
    },
    {
      "inputs": [],
      "name": "InvalidMaker",
      "type": "error"
    },
    {
      "inputs": [],
      "name": "InvalidStrategy",
      "type": "error"
    },
    {
      "inputs": [],
      "name": "InvalidTick",
      "type": "error"
    },
    {
      "inputs": [],
      "name": "InvalidValue",
      "type": "error"
    },
    {
      "inputs": [],
      "name": "LockFailure",
      "type": "error"
    },
    {
      "inputs": [],
      "name": "NativeTransferFailed",
      "type": "error"
    },
    {
      "inputs": [],
      "name": "NotSelf",
      "type": "error"
    },
    {
      "inputs": [
        {
          "internalType": "address",
          "name": "owner",
          "type": "address"
        }
      ],
      "name": "OwnableInvalidOwner",
      "type": "error"
    },
    {
      "inputs": [
        {
          "internalType": "address",
          "name": "account",
          "type": "address"
        }
      ],
      "name": "OwnableUnauthorizedAccount",
      "type": "error"
    },
    {
      "inputs": [
        {
          "internalType": "uint8",
          "name": "bits",
          "type": "uint8"
        },
        {
          "internalType": "uint256",
          "name": "value",
          "type": "uint256"
        }
      ],
      "name": "SafeCastOverflowedUintDowncast",
      "type": "error"
    },
    {
      "inputs": [
        {
          "internalType": "address",
          "name": "token",
          "type": "address"
        }
      ],
      "name": "SafeERC20FailedOperation",
      "type": "error"
    },
    {
      "inputs": [],
      "name": "Slippage",
      "type": "error"
    },
    {
      "anonymous": false,
      "inputs": [
        {
          "indexed": true,
          "internalType": "address",
          "name": "owner",
          "type": "address"
        },
        {
          "indexed": true,
          "internalType": "address",
          "name": "spender",
          "type": "address"
        },
        {
          "indexed": true,
          "internalType": "uint256",
          "name": "id",
          "type": "uint256"
        },
        {
          "indexed": false,
          "internalType": "uint256",
          "name": "amount",
          "type": "uint256"
        }
      ],
      "name": "Approval",
      "type": "event"
    },
    {
      "anonymous": false,
      "inputs": [
        {
          "indexed": true,
          "internalType": "address",
          "name": "user",
          "type": "address"
        },
        {
          "indexed": true,
          "internalType": "bytes32",
          "name": "key",
          "type": "bytes32"
        },
        {
          "indexed": false,
          "internalType": "uint256",
          "name": "amountA",
          "type": "uint256"
        },
        {
          "indexed": false,
          "internalType": "uint256",
          "name": "amountB",
          "type": "uint256"
        },
        {
          "indexed": false,
          "internalType": "uint256",
          "name": "lpAmount",
          "type": "uint256"
        }
      ],
      "name": "Burn",
      "type": "event"
    },
    {
      "anonymous": false,
      "inputs": [
        {
          "indexed": true,
          "internalType": "bytes32",
          "name": "key",
          "type": "bytes32"
        },
        {
          "indexed": false,
          "internalType": "uint256",
          "name": "canceledAmountA",
          "type": "uint256"
        },
        {
          "indexed": false,
          "internalType": "uint256",
          "name": "canceledAmountB",
          "type": "uint256"
        }
      ],
      "name": "Cancel",
      "type": "event"
    },
    {
      "anonymous": false,
      "inputs": [
        {
          "indexed": true,
          "internalType": "bytes32",
          "name": "key",
          "type": "bytes32"
        },
        {
          "indexed": false,
          "internalType": "uint256",
          "name": "claimedAmountA",
          "type": "uint256"
        },
        {
          "indexed": false,
          "internalType": "uint256",
          "name": "claimedAmountB",
          "type": "uint256"
        }
      ],
      "name": "Claim",
      "type": "event"
    },
    {
      "anonymous": false,
      "inputs": [
        {
          "indexed": true,
          "internalType": "address",
          "name": "user",
          "type": "address"
        },
        {
          "indexed": true,
          "internalType": "bytes32",
          "name": "key",
          "type": "bytes32"
        },
        {
          "indexed": false,
          "internalType": "uint256",
          "name": "amountA",
          "type": "uint256"
        },
        {
          "indexed": false,
          "internalType": "uint256",
          "name": "amountB",
          "type": "uint256"
        },
        {
          "indexed": false,
          "internalType": "uint256",
          "name": "lpAmount",
          "type": "uint256"
        }
      ],
      "name": "Mint",
      "type": "event"
    },
    {
      "anonymous": false,
      "inputs": [
        {
          "indexed": true,
          "internalType": "bytes32",
          "name": "key",
          "type": "bytes32"
        },
        {
          "indexed": true,
          "internalType": "BookId",
          "name": "bookIdA",
          "type": "uint192"
        },
        {
          "indexed": true,
          "internalType": "BookId",
          "name": "bookIdB",
          "type": "uint192"
        },
        {
          "indexed": false,
          "internalType": "bytes32",
          "name": "salt",
          "type": "bytes32"
        },
        {
          "indexed": false,
          "internalType": "address",
          "name": "strategy",
          "type": "address"
        }
      ],
      "name": "Open",
      "type": "event"
    },
    {
      "anonymous": false,
      "inputs": [
        {
          "indexed": true,
          "internalType": "address",
          "name": "owner",
          "type": "address"
        },
        {
          "indexed": true,
          "internalType": "address",
          "name": "operator",
          "type": "address"
        },
        {
          "indexed": false,
          "internalType": "bool",
          "name": "approved",
          "type": "bool"
        }
      ],
      "name": "OperatorSet",
      "type": "event"
    },
    {
      "anonymous": false,
      "inputs": [
        {
          "indexed": true,
          "internalType": "address",
          "name": "previousOwner",
          "type": "address"
        },
        {
          "indexed": true,
          "internalType": "address",
          "name": "newOwner",
          "type": "address"
        }
      ],
      "name": "OwnershipTransferStarted",
      "type": "event"
    },
    {
      "anonymous": false,
      "inputs": [
        {
          "indexed": true,
          "internalType": "address",
          "name": "previousOwner",
          "type": "address"
        },
        {
          "indexed": true,
          "internalType": "address",
          "name": "newOwner",
          "type": "address"
        }
      ],
      "name": "OwnershipTransferred",
      "type": "event"
    },
    {
      "anonymous": false,
      "inputs": [
        {
          "indexed": true,
          "internalType": "bytes32",
          "name": "key",
          "type": "bytes32"
        }
      ],
      "name": "Rebalance",
      "type": "event"
    },
    {
      "anonymous": false,
      "inputs": [
        {
          "indexed": false,
          "internalType": "address",
          "name": "caller",
          "type": "address"
        },
        {
          "indexed": true,
          "internalType": "address",
          "name": "from",
          "type": "address"
        },
        {
          "indexed": true,
          "internalType": "address",
          "name": "to",
          "type": "address"
        },
        {
          "indexed": true,
          "internalType": "uint256",
          "name": "id",
          "type": "uint256"
        },
        {
          "indexed": false,
          "internalType": "uint256",
          "name": "amount",
          "type": "uint256"
        }
      ],
      "name": "Transfer",
      "type": "event"
    },
    {
      "inputs": [],
      "name": "RATE_PRECISION",
      "outputs": [
        {
          "internalType": "uint256",
          "name": "",
          "type": "uint256"
        }
      ],
      "stateMutability": "view",
      "type": "function"
    },
    {
      "inputs": [
        {
          "internalType": "bytes32",
          "name": "key",
          "type": "bytes32"
        },
        {
          "internalType": "address",
          "name": "user",
          "type": "address"
        },
        {
          "internalType": "uint256",
          "name": "burnAmount",
          "type": "uint256"
        }
      ],
      "name": "_burn",
      "outputs": [
        {
          "internalType": "uint256",
          "name": "withdrawalA",
          "type": "uint256"
        },
        {
          "internalType": "uint256",
          "name": "withdrawalB",
          "type": "uint256"
        }
      ],
      "stateMutability": "nonpayable",
      "type": "function"
    },
    {
      "inputs": [
        {
          "components": [
            {
              "internalType": "Currency",
              "name": "base",
              "type": "address"
            },
            {
              "internalType": "uint64",
              "name": "unitSize",
              "type": "uint64"
            },
            {
              "internalType": "Currency",
              "name": "quote",
              "type": "address"
            },
            {
              "internalType": "FeePolicy",
              "name": "makerPolicy",
              "type": "uint24"
            },
            {
              "internalType": "contract IHooks",
              "name": "hooks",
              "type": "address"
            },
            {
              "internalType": "FeePolicy",
              "name": "takerPolicy",
              "type": "uint24"
            }
          ],
          "internalType": "struct IBookManager.BookKey",
          "name": "bookKeyA",
          "type": "tuple"
        },
        {
          "components": [
            {
              "internalType": "Currency",
              "name": "base",
              "type": "address"
            },
            {
              "internalType": "uint64",
              "name": "unitSize",
              "type": "uint64"
            },
            {
              "internalType": "Currency",
              "name": "quote",
              "type": "address"
            },
            {
              "internalType": "FeePolicy",
              "name": "makerPolicy",
              "type": "uint24"
            },
            {
              "internalType": "contract IHooks",
              "name": "hooks",
              "type": "address"
            },
            {
              "internalType": "FeePolicy",
              "name": "takerPolicy",
              "type": "uint24"
            }
          ],
          "internalType": "struct IBookManager.BookKey",
          "name": "bookKeyB",
          "type": "tuple"
        },
        {
          "internalType": "bytes32",
          "name": "salt",
          "type": "bytes32"
        },
        {
          "internalType": "address",
          "name": "strategy",
          "type": "address"
        }
      ],
      "name": "_open",
      "outputs": [
        {
          "internalType": "bytes32",
          "name": "key",
          "type": "bytes32"
        }
      ],
      "stateMutability": "nonpayable",
      "type": "function"
    },
    {
      "inputs": [
        {
          "internalType": "bytes32",
          "name": "key",
          "type": "bytes32"
        }
      ],
      "name": "_rebalance",
      "outputs": [],
      "stateMutability": "nonpayable",
      "type": "function"
    },
    {
      "inputs": [],
      "name": "acceptOwnership",
      "outputs": [],
      "stateMutability": "nonpayable",
      "type": "function"
    },
    {
      "inputs": [
        {
          "internalType": "address",
          "name": "",
          "type": "address"
        },
        {
          "internalType": "address",
          "name": "",
          "type": "address"
        },
        {
          "internalType": "uint256",
          "name": "",
          "type": "uint256"
        }
      ],
      "name": "allowance",
      "outputs": [
        {
          "internalType": "uint256",
          "name": "",
          "type": "uint256"
        }
      ],
      "stateMutability": "view",
      "type": "function"
    },
    {
      "inputs": [
        {
          "internalType": "address",
          "name": "spender",
          "type": "address"
        },
        {
          "internalType": "uint256",
          "name": "id",
          "type": "uint256"
        },
        {
          "internalType": "uint256",
          "name": "amount",
          "type": "uint256"
        }
      ],
      "name": "approve",
      "outputs": [
        {
          "internalType": "bool",
          "name": "",
          "type": "bool"
        }
      ],
      "stateMutability": "nonpayable",
      "type": "function"
    },
    {
      "inputs": [
        {
          "internalType": "address",
          "name": "",
          "type": "address"
        },
        {
          "internalType": "uint256",
          "name": "",
          "type": "uint256"
        }
      ],
      "name": "balanceOf",
      "outputs": [
        {
          "internalType": "uint256",
          "name": "",
          "type": "uint256"
        }
      ],
      "stateMutability": "view",
      "type": "function"
    },
    {
      "inputs": [],
      "name": "bookManager",
      "outputs": [
        {
          "internalType": "contract IBookManager",
          "name": "",
          "type": "address"
        }
      ],
      "stateMutability": "view",
      "type": "function"
    },
    {
      "inputs": [
        {
          "internalType": "BookId",
          "name": "",
          "type": "uint192"
        }
      ],
      "name": "bookPair",
      "outputs": [
        {
          "internalType": "BookId",
          "name": "",
          "type": "uint192"
        }
      ],
      "stateMutability": "view",
      "type": "function"
    },
    {
      "inputs": [
        {
          "internalType": "bytes32",
          "name": "key",
          "type": "bytes32"
        },
        {
          "internalType": "uint256",
          "name": "amount",
          "type": "uint256"
        },
        {
          "internalType": "uint256",
          "name": "minAmountA",
          "type": "uint256"
        },
        {
          "internalType": "uint256",
          "name": "minAmountB",
          "type": "uint256"
        }
      ],
      "name": "burn",
      "outputs": [
        {
          "internalType": "uint256",
          "name": "withdrawalA",
          "type": "uint256"
        },
        {
          "internalType": "uint256",
          "name": "withdrawalB",
          "type": "uint256"
        }
      ],
      "stateMutability": "nonpayable",
      "type": "function"
    },
    {
      "inputs": [
        {
          "internalType": "uint256",
          "name": "",
          "type": "uint256"
        }
      ],
      "name": "decimals",
      "outputs": [
        {
          "internalType": "uint8",
          "name": "",
          "type": "uint8"
        }
      ],
      "stateMutability": "pure",
      "type": "function"
    },
    {
      "inputs": [
        {
          "internalType": "bytes32",
          "name": "key",
          "type": "bytes32"
        }
      ],
      "name": "getBookPairs",
      "outputs": [
        {
          "internalType": "BookId",
          "name": "",
          "type": "uint192"
        },
        {
          "internalType": "BookId",
          "name": "",
          "type": "uint192"
        }
      ],
      "stateMutability": "view",
      "type": "function"
    },
    {
      "inputs": [
        {
          "internalType": "bytes32",
          "name": "key",
          "type": "bytes32"
        }
      ],
      "name": "getLiquidity",
      "outputs": [
        {
          "components": [
            {
              "internalType": "uint256",
              "name": "reserve",
              "type": "uint256"
            },
            {
              "internalType": "uint256",
              "name": "claimable",
              "type": "uint256"
            },
            {
              "internalType": "uint256",
              "name": "cancelable",
              "type": "uint256"
            }
          ],
          "internalType": "struct IRebalancer.Liquidity",
          "name": "liquidityA",
          "type": "tuple"
        },
        {
          "components": [
            {
              "internalType": "uint256",
              "name": "reserve",
              "type": "uint256"
            },
            {
              "internalType": "uint256",
              "name": "claimable",
              "type": "uint256"
            },
            {
              "internalType": "uint256",
              "name": "cancelable",
              "type": "uint256"
            }
          ],
          "internalType": "struct IRebalancer.Liquidity",
          "name": "liquidityB",
          "type": "tuple"
        }
      ],
      "stateMutability": "view",
      "type": "function"
    },
    {
      "inputs": [
        {
          "internalType": "bytes32",
          "name": "key",
          "type": "bytes32"
        }
      ],
      "name": "getPool",
      "outputs": [
        {
          "components": [
            {
              "internalType": "BookId",
              "name": "bookIdA",
              "type": "uint192"
            },
            {
              "internalType": "BookId",
              "name": "bookIdB",
              "type": "uint192"
            },
            {
              "internalType": "contract IStrategy",
              "name": "strategy",
              "type": "address"
            },
            {
              "internalType": "uint256",
              "name": "reserveA",
              "type": "uint256"
            },
            {
              "internalType": "uint256",
              "name": "reserveB",
              "type": "uint256"
            },
            {
              "internalType": "OrderId[]",
              "name": "orderListA",
              "type": "uint256[]"
            },
            {
              "internalType": "OrderId[]",
              "name": "orderListB",
              "type": "uint256[]"
            }
          ],
          "internalType": "struct IRebalancer.Pool",
          "name": "",
          "type": "tuple"
        }
      ],
      "stateMutability": "view",
      "type": "function"
    },
    {
      "inputs": [
        {
          "internalType": "address",
          "name": "",
          "type": "address"
        },
        {
          "internalType": "address",
          "name": "",
          "type": "address"
        }
      ],
      "name": "isOperator",
      "outputs": [
        {
          "internalType": "bool",
          "name": "",
          "type": "bool"
        }
      ],
      "stateMutability": "view",
      "type": "function"
    },
    {
      "inputs": [
        {
          "internalType": "address",
          "name": "lockCaller",
          "type": "address"
        },
        {
          "internalType": "bytes",
          "name": "data",
          "type": "bytes"
        }
      ],
      "name": "lockAcquired",
      "outputs": [
        {
          "internalType": "bytes",
          "name": "",
          "type": "bytes"
        }
      ],
      "stateMutability": "nonpayable",
      "type": "function"
    },
    {
      "inputs": [
        {
          "internalType": "bytes32",
          "name": "key",
          "type": "bytes32"
        },
        {
          "internalType": "uint256",
          "name": "amountA",
          "type": "uint256"
        },
        {
          "internalType": "uint256",
          "name": "amountB",
          "type": "uint256"
        },
        {
          "internalType": "uint256",
          "name": "minLpAmount",
          "type": "uint256"
        }
      ],
      "name": "mint",
      "outputs": [
        {
          "internalType": "uint256",
          "name": "mintAmount",
          "type": "uint256"
        }
      ],
      "stateMutability": "payable",
      "type": "function"
    },
    {
      "inputs": [
        {
          "components": [
            {
              "internalType": "Currency",
              "name": "base",
              "type": "address"
            },
            {
              "internalType": "uint64",
              "name": "unitSize",
              "type": "uint64"
            },
            {
              "internalType": "Currency",
              "name": "quote",
              "type": "address"
            },
            {
              "internalType": "FeePolicy",
              "name": "makerPolicy",
              "type": "uint24"
            },
            {
              "internalType": "contract IHooks",
              "name": "hooks",
              "type": "address"
            },
            {
              "internalType": "FeePolicy",
              "name": "takerPolicy",
              "type": "uint24"
            }
          ],
          "internalType": "struct IBookManager.BookKey",
          "name": "bookKeyA",
          "type": "tuple"
        },
        {
          "components": [
            {
              "internalType": "Currency",
              "name": "base",
              "type": "address"
            },
            {
              "internalType": "uint64",
              "name": "unitSize",
              "type": "uint64"
            },
            {
              "internalType": "Currency",
              "name": "quote",
              "type": "address"
            },
            {
              "internalType": "FeePolicy",
              "name": "makerPolicy",
              "type": "uint24"
            },
            {
              "internalType": "contract IHooks",
              "name": "hooks",
              "type": "address"
            },
            {
              "internalType": "FeePolicy",
              "name": "takerPolicy",
              "type": "uint24"
            }
          ],
          "internalType": "struct IBookManager.BookKey",
          "name": "bookKeyB",
          "type": "tuple"
        },
        {
          "internalType": "bytes32",
          "name": "salt",
          "type": "bytes32"
        },
        {
          "internalType": "address",
          "name": "strategy",
          "type": "address"
        }
      ],
      "name": "open",
      "outputs": [
        {
          "internalType": "bytes32",
          "name": "",
          "type": "bytes32"
        }
      ],
      "stateMutability": "nonpayable",
      "type": "function"
    },
    {
      "inputs": [],
      "name": "owner",
      "outputs": [
        {
          "internalType": "address",
          "name": "",
          "type": "address"
        }
      ],
      "stateMutability": "view",
      "type": "function"
    },
    {
      "inputs": [],
      "name": "pendingOwner",
      "outputs": [
        {
          "internalType": "address",
          "name": "",
          "type": "address"
        }
      ],
      "stateMutability": "view",
      "type": "function"
    },
    {
      "inputs": [
        {
          "internalType": "bytes32",
          "name": "key",
          "type": "bytes32"
        }
      ],
      "name": "rebalance",
      "outputs": [],
      "stateMutability": "nonpayable",
      "type": "function"
    },
    {
      "inputs": [],
      "name": "renounceOwnership",
      "outputs": [],
      "stateMutability": "nonpayable",
      "type": "function"
    },
    {
      "inputs": [
        {
          "internalType": "address",
          "name": "operator",
          "type": "address"
        },
        {
          "internalType": "bool",
          "name": "approved",
          "type": "bool"
        }
      ],
      "name": "setOperator",
      "outputs": [
        {
          "internalType": "bool",
          "name": "",
          "type": "bool"
        }
      ],
      "stateMutability": "nonpayable",
      "type": "function"
    },
    {
      "inputs": [
        {
          "internalType": "bytes4",
          "name": "interfaceId",
          "type": "bytes4"
        }
      ],
      "name": "supportsInterface",
      "outputs": [
        {
          "internalType": "bool",
          "name": "",
          "type": "bool"
        }
      ],
      "stateMutability": "view",
      "type": "function"
    },
    {
      "inputs": [
        {
          "internalType": "uint256",
          "name": "",
          "type": "uint256"
        }
      ],
      "name": "totalSupply",
      "outputs": [
        {
          "internalType": "uint256",
          "name": "",
          "type": "uint256"
        }
      ],
      "stateMutability": "view",
      "type": "function"
    },
    {
      "inputs": [
        {
          "internalType": "address",
          "name": "receiver",
          "type": "address"
        },
        {
          "internalType": "uint256",
          "name": "id",
          "type": "uint256"
        },
        {
          "internalType": "uint256",
          "name": "amount",
          "type": "uint256"
        }
      ],
      "name": "transfer",
      "outputs": [
        {
          "internalType": "bool",
          "name": "",
          "type": "bool"
        }
      ],
      "stateMutability": "nonpayable",
      "type": "function"
    },
    {
      "inputs": [
        {
          "internalType": "address",
          "name": "sender",
          "type": "address"
        },
        {
          "internalType": "address",
          "name": "receiver",
          "type": "address"
        },
        {
          "internalType": "uint256",
          "name": "id",
          "type": "uint256"
        },
        {
          "internalType": "uint256",
          "name": "amount",
          "type": "uint256"
        }
      ],
      "name": "transferFrom",
      "outputs": [
        {
          "internalType": "bool",
          "name": "",
          "type": "bool"
        }
      ],
      "stateMutability": "nonpayable",
      "type": "function"
    },
    {
      "inputs": [
        {
          "internalType": "address",
          "name": "newOwner",
          "type": "address"
        }
      ],
      "name": "transferOwnership",
      "outputs": [],
      "stateMutability": "nonpayable",
      "type": "function"
    },
    {
      "stateMutability": "payable",
      "type": "receive"
    }
  ],
  "transactionHash": "0xde98da5909e229b05a1cf7de49d2d5f45bebd6347850e8af7c1e655dd97dffcd",
  "args": [
    "0x382CCccbD3b142D7DA063bF68cd0c89634767F76",
    "0xfb976Bae0b3Ef71843F1c6c63da7Df2e44B3836d"
  ],
  "numDeployments": 1,
  "solcInputHash": "5fe4f85ece4d0b1a3c8ce459272a7b17",
  "bytecode": "0x60a060405234801561000f575f80fd5b5060405161478838038061478883398101604081905261002e916100f7565b806001600160a01b03811661005c57604051631e4fbdf760e01b81525f600482015260240160405180910390fd5b61006581610078565b50506001600160a01b031660805261012f565b600180546001600160a01b031916905561009181610094565b50565b5f80546001600160a01b038381166001600160a01b0319831681178455604051919092169283917f8be0079c531659141344cd1fd0a4f28419497f9722a3daafe3b4186f6b6457e09190a35050565b6001600160a01b0381168114610091575f80fd5b5f8060408385031215610108575f80fd5b8251610113816100e3565b6020840151909250610124816100e3565b809150509250929050565b6080516145996101ef5f395f81816103380152818161074a015281816107e401528181610b03015281816110aa01528181611182015281816112cd015281816116810152818161170d0152818161178e0152818161181a01528181611b8601528181611d000152818161208101528181612197015281816124d501528181612611015281816126be01528181612778015281816127ef0152818161284701528181612bbb01528181612d9301528181612e730152612f0801526145995ff3fe6080604052600436106101bc575f3560e01c8063715018a6116100f2578063c630ed7d11610092578063f3cbc88c11610062578063f3cbc88c146105ec578063f6c009271461060b578063fa6793d514610637578063fe99049a14610664575f80fd5b8063c630ed7d14610531578063e27ff0ad14610591578063e30c3978146105b0578063f2fde38b146105cd575f80fd5b8063998ff4ef116100cd578063998ff4ef14610462578063a1d5f131146104ae578063b6363cf2146104cd578063bd85b03914610506575f80fd5b8063715018a61461041e57806379ba5097146104325780638da5cb5b14610446575f80fd5b80631b022ec81161015d5780633f47e662116101385780633f47e66214610372578063426a8493146103a4578063558a7297146103c3578063598af9e7146103e2575f80fd5b80631b022ec8146102f25780632b3ba681146103115780633f322bc914610327575f80fd5b8063095bcdb611610198578063095bcdb61461026057806309cb66c41461027f5780630a31b9531461029257806315c7afb4146102c6575f80fd5b8062fdd58e146101c757806301ffc9a714610210578063022dd4ef1461023f575f80fd5b366101c357005b5f80fd5b3480156101d2575f80fd5b506101fd6101e13660046137ca565b600360209081525f928352604080842090915290825290205481565b6040519081526020015b60405180910390f35b34801561021b575f80fd5b5061022f61022a3660046137f4565b610683565b6040519015158152602001610207565b34801561024a575f80fd5b5061025e61025936600461381b565b6106eb565b005b34801561026b575f80fd5b5061022f61027a366004613832565b610a18565b6101fd61028d366004613864565b610ad2565b34801561029d575f80fd5b506102b16102ac366004613864565b611022565b60408051928352602083019190915201610207565b3480156102d1575f80fd5b506102e56102e0366004613893565b611175565b604051610207919061393f565b3480156102fd575f80fd5b5061025e61030c36600461381b565b6112cb565b34801561031c575f80fd5b506101fd620f424081565b348015610332575f80fd5b5061035a7f000000000000000000000000000000000000000000000000000000000000000081565b6040516001600160a01b039091168152602001610207565b34801561037d575f80fd5b5061039261038c36600461381b565b50601290565b60405160ff9091168152602001610207565b3480156103af575f80fd5b5061022f6103be366004613832565b6113a2565b3480156103ce575f80fd5b5061022f6103dd36600461395e565b611406565b3480156103ed575f80fd5b506101fd6103fc366004613995565b600460209081525f938452604080852082529284528284209052825290205481565b348015610429575f80fd5b5061025e611475565b34801561043d575f80fd5b5061025e611488565b348015610451575f80fd5b505f546001600160a01b031661035a565b34801561046d575f80fd5b5061049661047c3660046139d3565b60076020525f90815260409020546001600160c01b031681565b6040516001600160c01b039091168152602001610207565b3480156104b9575f80fd5b506101fd6104c8366004613a0f565b6114ce565b3480156104d8575f80fd5b5061022f6104e7366004613a60565b600260209081525f928352604080842090915290825290205460ff1681565b348015610511575f80fd5b506101fd61052036600461381b565b60056020525f908152604090205481565b34801561053c575f80fd5b5061057161054b36600461381b565b5f90815260066020526040902080546001909101546001600160c01b0391821692911690565b604080516001600160c01b03938416815292909116602083015201610207565b34801561059c575f80fd5b506102b16105ab366004613a8c565b6119c7565b3480156105bb575f80fd5b506001546001600160a01b031661035a565b3480156105d8575f80fd5b5061025e6105e7366004613ab0565b611c80565b3480156105f7575f80fd5b506101fd610606366004613a0f565b611cfd565b348015610616575f80fd5b5061062a61062536600461381b565b611df1565b6040516102079190613b05565b348015610642575f80fd5b5061065661065136600461381b565b611f52565b604051610207929190613b86565b34801561066f575f80fd5b5061022f61067e366004613bbf565b61227b565b5f7f01ffc9a7000000000000000000000000000000000000000000000000000000006001600160e01b0319831614806106e557507f0f632fb3000000000000000000000000000000000000000000000000000000006001600160e01b03198316145b92915050565b33301461070b576040516314e1dbf760e11b815260040160405180910390fd5b5f81815260066020526040808220600381015460048083015483549451639b22917d60e01b81526001600160c01b0390951691850191909152919390927f00000000000000000000000000000000000000000000000000000000000000006001600160a01b031690639b22917d9060240160c060405180830381865afa158015610797573d5f803e3d5ffd5b505050506040513d601f19601f820116820180604052508101906107bb9190613cb8565b6001850154604051639b22917d60e01b81526001600160c01b0390911660048201529091505f907f00000000000000000000000000000000000000000000000000000000000000006001600160a01b031690639b22917d9060240160c060405180830381865afa158015610831573d5f803e3d5ffd5b505050506040513d601f19601f820116820180604052508101906108559190613cb8565b60028601546040517f3b93fabc000000000000000000000000000000000000000000000000000000008152600481018990529192506001600160a01b031690633b93fabc906024015f60405180830381865afa9250505080156108d957506040513d5f823e601f3d908101601f191682016040526108d69190810190613df9565b60015b6108f3576108ea86866001806123ec565b505050506109e8565b815115801561090157508051155b15610910575050505050505050565b61091d88886001806123ec565b5050505061092f848389600501612498565b61093d838289600601612498565b60028701546040517fedffdaaf0000000000000000000000000000000000000000000000000000000081526001600160a01b039091169063edffdaaf9061098e9033908c9087908790600401613ea0565b5f604051808303815f87803b1580156109a5575f80fd5b505af11580156109b7573d5f803e3d5ffd5b50506040518a92507f37f8042257f6b4d65b9614deb7792e5b374db2fdcd1983bf8a1247a8a788af5c91505f90a250505b6109f68260400151856125f0565b60038601558151610a0790846125f0565b856004018190555050505050505b50565b335f908152600360209081526040808320858452909152812080548391908390610a43908490613ef8565b90915550506001600160a01b0384165f90815260036020908152604080832086845290915281208054849290610a7a908490613f0b565b909155505060408051338082526020820185905285926001600160a01b038816927f1b3d7edb2e9c0b0e7c525b20aaaef0f5940d2ed71663c7d39266ecafac72885991015b60405180910390a45060015b9392505050565b5f8481526006602052604080822080549151639b22917d60e01b81526001600160c01b0390921660048301529082907f00000000000000000000000000000000000000000000000000000000000000006001600160a01b031690639b22917d9060240160c060405180830381865afa158015610b50573d5f803e3d5ffd5b505050506040513d601f19601f82011682018060405250810190610b749190613cb8565b5f88815260056020526040812054919250819003610d3157861580610b97575085155b15610bce576040517f2c5211c600000000000000000000000000000000000000000000000000000000815260040160405180910390fd5b60408201515f906001600160a01b031615610c625782604001516001600160a01b031663313ce5676040518163ffffffff1660e01b8152600401602060405180830381865afa158015610c23573d5f803e3d5ffd5b505050506040513d601f19601f82011682018060405250810190610c479190613f1e565b610c52906012613f3e565b610c5d90600a614037565b610c65565b60015b83519091505f906001600160a01b031615610cf857835f01516001600160a01b031663313ce5676040518163ffffffff1660e01b8152600401602060405180830381865afa158015610cb9573d5f803e3d5ffd5b505050506040513d601f19601f82011682018060405250810190610cdd9190613f1e565b610ce8906012613f3e565b610cf390600a614037565b610cfb565b60015b90505f610d08838b614045565b90505f610d15838b614045565b9050808211610d245780610d26565b815b975050505050610e33565b5f80610d3c8a611f52565b915091505f82604001518360200151845f0151610d599190613f0b565b610d639190613f0b565b90505f82604001518360200151845f0151610d7e9190613f0b565b610d889190613f0b565b905081158015610d96575080155b15610da9575f9950899a508a9750610e2e565b815f03610dc557610dbb8a86836128d0565b97505f9a50610e2e565b805f03610de157610dd78b86846128d0565b97505f9950610e2e565b5f610ded8c87856128d0565b90505f610dfb8c88856128d0565b905080821115610e1a57809950610e13848b896128eb565b9c50610e2b565b819950610e28838b896128eb565b9b505b50505b505050505b84841015610e54576040516307dd37f760e41b815260040160405180910390fd5b604082015134906001600160a01b0316610e915787341015610e8957604051632a9ffab760e21b815260040160405180910390fd5b879003610eab565b6040830151610eab906001600160a01b031633308b61290e565b82516001600160a01b0316610ee35786341015610edb57604051632a9ffab760e21b815260040160405180910390fd5b869003610efa565b8251610efa906001600160a01b031633308a61290e565b87846003015f828254610f0d9190613f0b565b9250508190555086846004015f828254610f279190613f0b565b90915550610f389050338a87612981565b60028401546040517fa3a36f55000000000000000000000000000000000000000000000000000000008152336004820152602481018b905260448101879052606481018490526001600160a01b039091169063a3a36f55906084015f604051808303815f87803b158015610faa575f80fd5b505af1158015610fbc573d5f803e3d5ffd5b5050604080518b8152602081018b90529081018890528b92503391507f1d43dbd7e59f8c9371169f5c49c01e100227d9ee5f5fe54665cf10e35042bb729060600160405180910390a38015611016576110165f33836129b3565b50505050949350505050565b6040805160248101869052336044820152606480820186905282518083039091018152608490910182526020810180516001600160e01b03167fe27ff0ad0000000000000000000000000000000000000000000000000000000017905290517f9ca179980000000000000000000000000000000000000000000000000000000081525f9182917f00000000000000000000000000000000000000000000000000000000000000006001600160a01b031691639ca17998916110e791309160040161405c565b5f604051808303815f875af1158015611102573d5f803e3d5ffd5b505050506040513d5f823e601f3d908101601f19168201604052611129919081019061407d565b80602001905181019061113c919061410c565b90925090508382108061114e57508281105b1561116c576040516307dd37f760e41b815260040160405180910390fd5b94509492505050565b6060336001600160a01b037f000000000000000000000000000000000000000000000000000000000000000016146111d9576040517f4bd37f4300000000000000000000000000000000000000000000000000000000815260040160405180910390fd5b6001600160a01b038416301461121b576040517f66a7598c00000000000000000000000000000000000000000000000000000000815260040160405180910390fd5b5f80306001600160a01b0316858560405161123792919061412e565b5f604051808303815f865af19150503d805f8114611270576040519150601f19603f3d011682016040523d82523d5f602084013e611275565b606091505b50915091508115611289579150610acb9050565b80515f036112c3576040517fa40afa3800000000000000000000000000000000000000000000000000000000815260040160405180910390fd5b805160208201fd5b7f00000000000000000000000000000000000000000000000000000000000000006001600160a01b0316639ca179983063022dd4ef60e01b8460405160240161131691815260200190565b60408051601f198184030181529181526020820180516001600160e01b03166001600160e01b03199485161790525160e085901b909216825261135c929160040161405c565b5f604051808303815f875af1158015611377573d5f803e3d5ffd5b505050506040513d5f823e601f3d908101601f1916820160405261139e919081019061407d565b5050565b335f8181526004602090815260408083206001600160a01b03881680855290835281842087855290925280832085905551919285927fb3fd5071835887567a0671151121894ddccc2842f1d10bedad13e0d17cace9a790610abf9087815260200190565b335f8181526002602090815260408083206001600160a01b038716808552908352818420805460ff191687151590811790915591519182529293917fceb576d9f15e4e200fdb5096d64d5dfd667e16def20c1eefd14256d8e3faa267910160405180910390a350600192915050565b61147d612a95565b6114865f612ac1565b565b60015433906001600160a01b031681146114c55760405163118cdaa760e01b81526001600160a01b03821660048201526024015b60405180910390fd5b610a1581612ac1565b5f3330146114ef576040516314e1dbf760e11b815260040160405180910390fd5b6115206114ff6020860186613ab0565b61150f6060880160408901613ab0565b6001600160a01b0391821691161490565b8015611547575061154761153a6060860160408701613ab0565b61150f6020880188613ab0565b61157d576040517f27a4015200000000000000000000000000000000000000000000000000000000815260040160405180910390fd5b5f61158e60a0870160808801613ab0565b6001600160a01b03161415806115bc57505f6115b060a0860160808701613ab0565b6001600160a01b031614155b156115f3576040517f9c9d882300000000000000000000000000000000000000000000000000000000815260040160405180910390fd5b6001600160a01b038216611633576040517f4e236e9a00000000000000000000000000000000000000000000000000000000815260040160405180910390fd5b5f61164b6116463688900388018861413d565b612ae7565b90505f6116606116463688900388018861413d565b604051632ad7b51960e11b81526001600160c01b03841660048201529091507f00000000000000000000000000000000000000000000000000000000000000006001600160a01b0316906355af6a3290602401602060405180830381865afa1580156116ce573d5f803e3d5ffd5b505050506040513d601f19601f820116820180604052508101906116f291906141bc565b6117705760405163fefc7c5160e01b81526001600160a01b037f0000000000000000000000000000000000000000000000000000000000000000169063fefc7c5190611742908a90600401614276565b5f604051808303815f87803b158015611759575f80fd5b505af115801561176b573d5f803e3d5ffd5b505050505b604051632ad7b51960e11b81526001600160c01b03821660048201527f00000000000000000000000000000000000000000000000000000000000000006001600160a01b0316906355af6a3290602401602060405180830381865afa1580156117db573d5f803e3d5ffd5b505050506040513d601f19601f820116820180604052508101906117ff91906141bc565b61187d5760405163fefc7c5160e01b81526001600160a01b037f0000000000000000000000000000000000000000000000000000000000000000169063fefc7c519061184f908990600401614276565b5f604051808303815f87803b158015611866575f80fd5b505af1158015611878573d5f803e3d5ffd5b505050505b611888828287612b22565b5f818152600660205260409020600201549093506001600160a01b0316156118dc576040517f1da42b2600000000000000000000000000000000000000000000000000000000815260040160405180910390fd5b5f83815260066020908152604080832080546001600160c01b038781167fffffffffffffffff0000000000000000000000000000000000000000000000009283168117845560018401805492891692841683179055600290930180546001600160a01b038c1673ffffffffffffffffffffffffffffffffffffffff199091168117909155838752600786528487208054841683179055818752958490208054909216831790915582518a8152938401949094529186917f66d8f0c63665a9bd1357e5d422d5f538805b225f260974cb408a66635040ec6c910160405180910390a45050949350505050565b5f803330146119e9576040516314e1dbf760e11b815260040160405180910390fd5b5f85815260066020908152604080832060059092528220549091808080611a128b878b886123ec565b60038a015460048b015494985092965090945092509085878c611a358786613f0b565b611a3f9190614045565b611a499190614297565b611a539190613f0b565b995084878c611a628685613f0b565b611a6c9190614045565b611a769190614297565b611a809190613f0b565b9850611a8d8c8e8d612b8e565b60028801546040517fdb7c74b6000000000000000000000000000000000000000000000000000000008152336004820152602481018f9052604481018d9052606481018990526001600160a01b039091169063db7c74b6906084015f604051808303815f87803b158015611aff575f80fd5b505af1158015611b11573d5f803e3d5ffd5b5050604080518d8152602081018d90529081018e90528f92506001600160a01b038f1691507f974da0fadf774cec6d550cb40d607dc3a0b7dee97aa1cd03a2fa3f6603b943ab9060600160405180910390a38754604051639b22917d60e01b81526001600160c01b0390911660048201525f907f00000000000000000000000000000000000000000000000000000000000000006001600160a01b031690639b22917d9060240160c060405180830381865afa158015611bd3573d5f803e3d5ffd5b505050506040513d601f19601f82011682018060405250810190611bf79190613cb8565b90508a611c088260400151856125f0565b611c129190613ef8565b60038a015580518a90611c2590846125f0565b611c2f9190613ef8565b60048a01558a15611c53576040810151611c53906001600160a01b03168e8d6129b3565b8915611c6f578051611c6f906001600160a01b03168e8c6129b3565b505050505050505050935093915050565b611c88612a95565b600180546001600160a01b03831673ffffffffffffffffffffffffffffffffffffffff199091168117909155611cc55f546001600160a01b031690565b6001600160a01b03167f38d16b8cac22d99fc7c124b9cd0de2d3fa1faef420bfe791d8c362d765e2270060405160405180910390a350565b5f7f00000000000000000000000000000000000000000000000000000000000000006001600160a01b0316639ca179983063a1d5f13160e01b88888888604051602401611d4d94939291906142b6565b60408051601f198184030181529181526020820180516001600160e01b03166001600160e01b03199485161790525160e085901b9092168252611d93929160040161405c565b5f604051808303815f875af1158015611dae573d5f803e3d5ffd5b505050506040513d5f823e601f3d908101601f19168201604052611dd5919081019061407d565b806020019051810190611de891906142f2565b95945050505050565b611e476040518060e001604052805f6001600160c01b031681526020015f6001600160c01b031681526020015f6001600160a01b031681526020015f81526020015f815260200160608152602001606081525090565b5f82815260066020908152604091829020825160e08101845281546001600160c01b0390811682526001830154168184015260028201546001600160a01b03168185015260038201546060820152600482015460808201526005820180548551818602810186019096528086529194929360a08601939290830182828015611eec57602002820191905f5260205f20905b815481526020019060010190808311611ed8575b5050505050815260200160068201805480602002602001604051908101604052809291908181526020018280548015611f4257602002820191905f5260205f20905b815481526020019060010190808311611f2e575b5050505050815250509050919050565b611f7360405180606001604052805f81526020015f81526020015f81525090565b611f9460405180606001604052805f81526020015f81526020015f81525090565b5f8381526006602090815260408083206003810154865260048101548552600581018054835181860281018601909452808452919493909190830182828015611ffa57602002820191905f5260205f20905b815481526020019060010190808311611fe6575b505050505090505f8260060180548060200260200160405190810160405280929190818152602001828054801561204e57602002820191905f5260205f20905b81548152602001906001019080831161203a575b505050505090505f8251111561216a578254604051639b22917d60e01b81526001600160c01b0390911660048201525f907f00000000000000000000000000000000000000000000000000000000000000006001600160a01b031690639b22917d9060240160c060405180830381865afa1580156120ce573d5f803e3d5ffd5b505050506040513d601f19601f820116820180604052508101906120f29190613cb8565b90505f5b8351811015612167575f8061212d8460600151856020015188868151811061212057612120614309565b6020026020010151612bb6565b9150915081896040018181516121439190613f0b565b90525060208801805182919061215a908390613f0b565b90525050506001016120f6565b50505b805115612273576001830154604051639b22917d60e01b81526001600160c01b0390911660048201525f907f00000000000000000000000000000000000000000000000000000000000000006001600160a01b031690639b22917d9060240160c060405180830381865afa1580156121e4573d5f803e3d5ffd5b505050506040513d601f19601f820116820180604052508101906122089190613cb8565b90505f5b8251811015612270575f806122368460600151856020015187868151811061212057612120614309565b91509150808960200181815161224c9190613f0b565b905250604088018051839190612263908390613f0b565b905250505060010161220c565b50505b505050915091565b5f336001600160a01b038616148015906122b857506001600160a01b0385165f90815260026020908152604080832033845290915290205460ff16155b15612328576001600160a01b0385165f90815260046020908152604080832033845282528083208684529091529020545f198114612326576122fa8382613ef8565b6001600160a01b0387165f90815260046020908152604080832033845282528083208884529091529020555b505b6001600160a01b0385165f9081526003602090815260408083208684529091528120805484929061235a908490613ef8565b90915550506001600160a01b0384165f90815260036020908152604080832086845290915281208054849290612391908490613f0b565b9091555050604080513381526020810184905284916001600160a01b0380881692908916917f1b3d7edb2e9c0b0e7c525b20aaaef0f5940d2ed71663c7d39266ecafac728859910160405180910390a4506001949350505050565b5f805f806123fe876005018787612d15565b9094509050612411600688018787612d15565b604080518281526020810185905292955090935089917f1c29b938e5c165e4f17dcbaf854af84a6c529c3f0face137b12bda74606cca9e910160405180910390a2604080518581526020810185905289917f5721685080049ebad55f69ed0f4bf84a11d57cd2050e67986deab2323a9b2103910160405180910390a2945094509450949050565b5f5b82518110156125ea578281815181106124b5576124b5614309565b60200260200101516020015167ffffffffffffffff165f03156125e2575f7f00000000000000000000000000000000000000000000000000000000000000006001600160a01b0316631dbef488604051806080016040528088815260200187868151811061252557612525614309565b60200260200101515f015160020b815260200187868151811061254a5761254a614309565b60200260200101516020015167ffffffffffffffff1681526020015f6001600160a01b03168152506040518263ffffffff1660e01b815260040161258e919061431d565b60408051808303815f875af11580156125a9573d5f803e3d5ffd5b505050506040513d601f19601f820116820180604052508101906125cd919061410c565b5083546001810185555f858152602090200155505b60010161249a565b50505050565b604051636a256b2960e01b81526001600160a01b0383811660048301525f917f000000000000000000000000000000000000000000000000000000000000000090911690636a256b29906024016020604051808303815f875af1158015612659573d5f803e3d5ffd5b505050506040513d601f19601f8201168201806040525081019061267d91906142f2565b506040517f9611cf6c0000000000000000000000000000000000000000000000000000000081523060048201526001600160a01b0384811660248301525f917f000000000000000000000000000000000000000000000000000000000000000090911690639611cf6c90604401602060405180830381865afa158015612705573d5f803e3d5ffd5b505050506040513d601f19601f8201168201806040525081019061272991906142f2565b90505f8113156127e2576040517fd9caed120000000000000000000000000000000000000000000000000000000081526001600160a01b038581166004830152306024830152604482018390527f0000000000000000000000000000000000000000000000000000000000000000169063d9caed12906064015f604051808303815f87803b1580156127b9575f80fd5b505af11580156127cb573d5f803e3d5ffd5b5050505080836127db9190613f0b565b92506128c8565b5f8112156128c8576128287f0000000000000000000000000000000000000000000000000000000000000000612817836143d3565b6001600160a01b03871691906129b3565b604051636a256b2960e01b81526001600160a01b0385811660048301527f00000000000000000000000000000000000000000000000000000000000000001690636a256b29906024016020604051808303815f875af115801561288d573d5f803e3d5ffd5b505050506040513d601f19601f820116820180604052508101906128b191906142f2565b506128bb816143d3565b6128c59084613ef8565b92505b509092915050565b5f825f1904841183021582026128e4575f80fd5b5091020490565b5f825f1904841183021582026128ff575f80fd5b50910281810615159190040190565b604080516001600160a01b0385811660248301528416604482015260648082018490528251808303909101815260849091019091526020810180516001600160e01b03167f23b872dd000000000000000000000000000000000000000000000000000000001790526125ea90859061303c565b61298c8383836130bb565b5f82815260056020526040812080548392906129a9908490613f0b565b9091555050505050565b5f6001600160a01b038416612a08575f805f8085875af1905080612a03576040517ff4b3b1bc00000000000000000000000000000000000000000000000000000000815260040160405180910390fd5b6125ea565b6040517fa9059cbb0000000000000000000000000000000000000000000000000000000081526001600160a01b038416600482015282602482015260205f6044835f895af13d15601f3d1160015f5114161716915050806125ea576040517ff27f64e400000000000000000000000000000000000000000000000000000000815260040160405180910390fd5b5f546001600160a01b031633146114865760405163118cdaa760e01b81523360048201526024016114bc565b6001805473ffffffffffffffffffffffffffffffffffffffff19169055610a1581613140565b5f8082604051602001612afa9190614409565b60408051601f1981840301815291905280516020909101206001600160c01b03169392505050565b5f826001600160c01b0316846001600160c01b03161115612b41579192915b6040805167ffffffffffffffff1986831b811660208301529185901b9091166038820152605081018390526070016040516020818303038152906040528051906020012090509392505050565b612b9983838361319c565b5f82815260056020526040812080548392906129a9908490613ef8565b5f805f7f00000000000000000000000000000000000000000000000000000000000000006001600160a01b031663d09ef241856040518263ffffffff1660e01b8152600401612c0791815260200190565b606060405180830381865afa158015612c22573d5f803e3d5ffd5b505050506040513d601f19601f82011682018060405250810190612c469190614470565b90508467ffffffffffffffff16816020015167ffffffffffffffff16612c6c9190614045565b9250612caf8567ffffffffffffffff16826040015167ffffffffffffffff16612c959190614045565b5f612ca58760281c62ffffff1690565b60020b9190613218565b9150612cc08662ffffff1660171c90565b15612ceb575f612cd762ffffff8816856001613242565b9050612ce381856144e0565b935050612d0c565b5f612cfc62ffffff88168483613242565b9050612d088184614507565b9250505b50935093915050565b5f805f85805480602002602001604051908101604052809291908181526020018280548015612d6157602002820191905f5260205f20905b815481526020019060010190808311612d4d575b505050505090505f5b8151811015613029575f828281518110612d8657612d86614309565b602002602001015190505f7f00000000000000000000000000000000000000000000000000000000000000006001600160a01b031663d09ef241836040518263ffffffff1660e01b8152600401612ddf91815260200190565b606060405180830381865afa158015612dfa573d5f803e3d5ffd5b505050506040513d601f19601f82011682018060405250810190612e1e9190614470565b604081015190915067ffffffffffffffff1615612ef257604080517f38926b6d0000000000000000000000000000000000000000000000000000000081526004810184905260248101919091525f60448201527f00000000000000000000000000000000000000000000000000000000000000006001600160a01b0316906338926b6d906064016020604051808303815f875af1158015612ec1573d5f803e3d5ffd5b505050506040513d601f19601f82011682018060405250810190612ee591906142f2565b612eef9086613f0b565b94505b602081015167ffffffffffffffff161561301f577f00000000000000000000000000000000000000000000000000000000000000006001600160a01b03166314d6a9eb6040518060400160405280858152602001612f8c8b8d876020015167ffffffffffffffff16612f649190614045565b612f6e9190614297565b866020015167ffffffffffffffff16612f879190613ef8565b6132c2565b67ffffffffffffffff9081169091526040516001600160e01b031960e085901b16815282516004820152602090920151166024820152606060448201525f60648201526084016020604051808303815f875af1158015612fee573d5f803e3d5ffd5b505050506040513d601f19601f8201168201806040525081019061301291906142f2565b61301c9087613f0b565b95505b5050600101612d6a565b50848403612d0c57505f90945593915050565b5f6130506001600160a01b03841683613315565b905080515f1415801561307457508080602001905181019061307291906141bc565b155b156130b6576040517f5274afe70000000000000000000000000000000000000000000000000000000081526001600160a01b03841660048201526024016114bc565b505050565b6001600160a01b0383165f908152600360209081526040808320858452909152812080548392906130ed908490613f0b565b9091555050604080513381526020810183905283916001600160a01b038616915f917f1b3d7edb2e9c0b0e7c525b20aaaef0f5940d2ed71663c7d39266ecafac72885991015b60405180910390a4505050565b5f80546001600160a01b0383811673ffffffffffffffffffffffffffffffffffffffff19831681178455604051919092169283917f8be0079c531659141344cd1fd0a4f28419497f9722a3daafe3b4186f6b6457e09190a35050565b6001600160a01b0383165f908152600360209081526040808320858452909152812080548392906131ce908490613ef8565b9091555050604080513381526020810183905283915f916001600160a01b038716917f1b3d7edb2e9c0b0e7c525b20aaaef0f5940d2ed71663c7d39266ecafac7288599101613133565b5f61323a606084901b61322d8660020b613322565b8082061515851691040190565b949350505050565b5f6207a11f19627fffff851601600281900b8212828161326457825f03613266565b825b62ffffff1690505f61329f61327b8389614045565b620f424088613291578581830615151691040190565b808206151586151691040190565b9050826132b4576132af816143d3565b6132b6565b805b98975050505050505050565b5f67ffffffffffffffff82111561331157604080517f6dfcc6500000000000000000000000000000000000000000000000000000000081526004810191909152602481018390526044016114bc565b5090565b6060610acb83835f6135ea565b5f61332c826136a3565b815f600282900b811361333f5781613348565b6133488261452d565b62ffffff811691506001161561336c576bfff97272373d413259a46990925061337d565b6c0100000000000000000000000092505b600281161561339c5760606bfff2e50f5f656932ef12357c8402901c92505b60048116156133bb5760606bffe5caca7e10e4e61c3624ea8402901c92505b60088116156133da5760606bffcb9843d60f6159c9db58838402901c92505b60108116156133f95760606bff973b41fa98c081472e68968402901c92505b60208116156134185760606bff2ea16466c96a3843ec78b38402901c92505b60408116156134375760606bfe5dee046a99a2a811c461f18402901c92505b60808116156134565760606bfcbe86c7900a88aedcffc83b8402901c92505b6101008116156134765760606bf987a7253ac413176f2b074c8402901c92505b6102008116156134965760606bf3392b0822b70005940c7a398402901c92505b6104008116156134b65760606be7159475a2c29b7443b29c7f8402901c92505b6108008116156134d65760606bd097f3bdfd2022b8845ad8f78402901c92505b6110008116156134f65760606ba9f746462d870fdf8a65dc1f8402901c92505b6120008116156135165760606b70d869a156d2a1b890bb3df68402901c92505b6140008116156135365760606b31be135f97d08fd9812315058402901c92505b6180008116156135565760606b09aa508b5b7a84e1c677de548402901c92505b620100008116156135765760606a5d6af8dedb81196699c3298402901c92505b62020000811615613595576060692216e584f5fa1ea926048402901c92505b620400008116156135b257606067048a170391f7dc428402901c92505b5f8260020b13156135e3576135e0837801000000000000000000000000000000000000000000000000614297565b92505b5050919050565b60608147101561362f576040517fcf479181000000000000000000000000000000000000000000000000000000008152476004820152602481018390526044016114bc565b5f80856001600160a01b0316848660405161364a919061454d565b5f6040518083038185875af1925050503d805f8114613684576040519150601f19603f3d011682016040523d82523d5f602084013e613689565b606091505b50915091506136998683836136ff565b9695505050505050565b6207ffff600282900b13806136c857506136bf6207ffff61452d565b60020b8160020b125b15610a15576040517fce8ef7fc00000000000000000000000000000000000000000000000000000000815260040160405180910390fd5b6060826137145761370f82613774565b610acb565b815115801561372b57506001600160a01b0384163b155b1561376d576040517f9996b3150000000000000000000000000000000000000000000000000000000081526001600160a01b03851660048201526024016114bc565b5080610acb565b8051156137845780518082602001fd5b6040517fd6bda27500000000000000000000000000000000000000000000000000000000815260040160405180910390fd5b6001600160a01b0381168114610a15575f80fd5b5f80604083850312156137db575f80fd5b82356137e6816137b6565b946020939093013593505050565b5f60208284031215613804575f80fd5b81356001600160e01b031981168114610acb575f80fd5b5f6020828403121561382b575f80fd5b5035919050565b5f805f60608486031215613844575f80fd5b833561384f816137b6565b95602085013595506040909401359392505050565b5f805f8060808587031215613877575f80fd5b5050823594602084013594506040840135936060013592509050565b5f805f604084860312156138a5575f80fd5b83356138b0816137b6565b9250602084013567ffffffffffffffff808211156138cc575f80fd5b818601915086601f8301126138df575f80fd5b8135818111156138ed575f80fd5b8760208285010111156138fe575f80fd5b6020830194508093505050509250925092565b5f81518084528060208401602086015e5f602082860101526020601f19601f83011685010191505092915050565b602081525f610acb6020830184613911565b8015158114610a15575f80fd5b5f806040838503121561396f575f80fd5b823561397a816137b6565b9150602083013561398a81613951565b809150509250929050565b5f805f606084860312156139a7575f80fd5b83356139b2816137b6565b925060208401356139c2816137b6565b929592945050506040919091013590565b5f602082840312156139e3575f80fd5b81356001600160c01b0381168114610acb575f80fd5b5f60c08284031215613a09575f80fd5b50919050565b5f805f806101c08587031215613a23575f80fd5b613a2d86866139f9565b9350613a3c8660c087016139f9565b925061018085013591506101a0850135613a55816137b6565b939692955090935050565b5f8060408385031215613a71575f80fd5b8235613a7c816137b6565b9150602083013561398a816137b6565b5f805f60608486031215613a9e575f80fd5b8335925060208401356139c2816137b6565b5f60208284031215613ac0575f80fd5b8135610acb816137b6565b5f815180845260208085019450602084015f5b83811015613afa57815187529582019590820190600101613ade565b509495945050505050565b602081525f6001600160c01b03808451166020840152806020850151166040840152506001600160a01b03604084015116606083015260608301516080830152608083015160a083015260a083015160e060c0840152613b69610100840182613acb565b905060c0840151601f198483030160e0850152611de88282613acb565b8251815260208084015181830152604080850151818401528351606084015290830151608083015282015160a082015260c08101610acb565b5f805f8060808587031215613bd2575f80fd5b8435613bdd816137b6565b93506020850135613bed816137b6565b93969395505050506040820135916060013590565b634e487b7160e01b5f52604160045260245ffd5b60405160c0810167ffffffffffffffff81118282101715613c3957613c39613c02565b60405290565b6040805190810167ffffffffffffffff81118282101715613c3957613c39613c02565b604051601f8201601f1916810167ffffffffffffffff81118282101715613c8b57613c8b613c02565b604052919050565b67ffffffffffffffff81168114610a15575f80fd5b62ffffff81168114610a15575f80fd5b5f60c08284031215613cc8575f80fd5b613cd0613c16565b8251613cdb816137b6565b81526020830151613ceb81613c93565b60208201526040830151613cfe816137b6565b60408201526060830151613d1181613ca8565b60608201526080830151613d24816137b6565b608082015260a0830151613d3781613ca8565b60a08201529392505050565b5f82601f830112613d52575f80fd5b8151602067ffffffffffffffff821115613d6e57613d6e613c02565b613d7c818360051b01613c62565b82815260069290921b84018101918181019086841115613d9a575f80fd5b8286015b84811015613dee5760408189031215613db5575f80fd5b613dbd613c3f565b81518060020b8114613dcd575f80fd5b815281850151613ddc81613c93565b81860152835291830191604001613d9e565b509695505050505050565b5f8060408385031215613e0a575f80fd5b825167ffffffffffffffff80821115613e21575f80fd5b613e2d86838701613d43565b93506020850151915080821115613e42575f80fd5b50613e4f85828601613d43565b9150509250929050565b5f815180845260208085019450602084015f5b83811015613afa578151805160020b885283015167ffffffffffffffff168388015260409096019590820190600101613e6c565b6001600160a01b0385168152836020820152608060408201525f613ec76080830185613e59565b8281036060840152613ed98185613e59565b979650505050505050565b634e487b7160e01b5f52601160045260245ffd5b818103818111156106e5576106e5613ee4565b808201808211156106e5576106e5613ee4565b5f60208284031215613f2e575f80fd5b815160ff81168114610acb575f80fd5b60ff82811682821603908111156106e5576106e5613ee4565b600181815b80851115613f9157815f1904821115613f7757613f77613ee4565b80851615613f8457918102915b93841c9390800290613f5c565b509250929050565b5f82613fa7575060016106e5565b81613fb357505f6106e5565b8160018114613fc95760028114613fd357613fef565b60019150506106e5565b60ff841115613fe457613fe4613ee4565b50506001821b6106e5565b5060208310610133831016604e8410600b8410161715614012575081810a6106e5565b61401c8383613f57565b805f190482111561402f5761402f613ee4565b029392505050565b5f610acb60ff841683613f99565b80820281158282048414176106e5576106e5613ee4565b6001600160a01b0383168152604060208201525f61323a6040830184613911565b5f602080838503121561408e575f80fd5b825167ffffffffffffffff808211156140a5575f80fd5b818501915085601f8301126140b8575f80fd5b8151818111156140ca576140ca613c02565b6140dc601f8201601f19168501613c62565b915080825286848285010111156140f1575f80fd5b808484018584015e5f90820190930192909252509392505050565b5f806040838503121561411d575f80fd5b505080516020909101519092909150565b818382375f9101908152919050565b5f60c0828403121561414d575f80fd5b614155613c16565b8235614160816137b6565b8152602083013561417081613c93565b60208201526040830135614183816137b6565b6040820152606083013561419681613ca8565b606082015260808301356141a9816137b6565b608082015260a0830135613d3781613ca8565b5f602082840312156141cc575f80fd5b8151610acb81613951565b80356141e2816137b6565b6001600160a01b0390811683526020820135906141fe82613c93565b67ffffffffffffffff821660208501526040830135915061421e826137b6565b908116604084015260608201359061423582613ca8565b62ffffff9182166060850152608083013591614250836137b6565b918116608085015260a08301359161426783613ca8565b80831660a08601525050505050565b61428081836141d7565b60e060c082018190525f9082015261010001919050565b5f826142b157634e487b7160e01b5f52601260045260245ffd5b500490565b6101c081016142c582876141d7565b6142d260c08301866141d7565b836101808301526001600160a01b0383166101a083015295945050505050565b5f60208284031215614302575f80fd5b5051919050565b634e487b7160e01b5f52603260045260245ffd5b5f6101406143858385516001600160a01b0380825116835267ffffffffffffffff6020830151166020840152806040830151166040840152606082015162ffffff80821660608601528260808501511660808601528060a08501511660a08601525050505050565b602084015160020b60c0840152604084015167ffffffffffffffff1660e08401526060909301516001600160a01b03166101008301525061012081018290525f918101919091526101600190565b5f7f8000000000000000000000000000000000000000000000000000000000000000820361440357614403613ee4565b505f0390565b60c081016106e582846001600160a01b0380825116835267ffffffffffffffff6020830151166020840152806040830151166040840152606082015162ffffff80821660608601528260808501511660808601528060a08501511660a08601525050505050565b5f60608284031215614480575f80fd5b6040516060810181811067ffffffffffffffff821117156144a3576144a3613c02565b60405282516144b1816137b6565b815260208301516144c181613c93565b602082015260408301516144d481613c93565b60408201529392505050565b8082018281125f8312801582168215821617156144ff576144ff613ee4565b505092915050565b8181035f83128015838313168383128216171561452657614526613ee4565b5092915050565b5f8160020b627fffff19810361454557614545613ee4565b5f0392915050565b5f82518060208501845e5f92019182525091905056fea2646970667358221220594864951e0acbaac636d621dd30b6daacf38018a6c342f78c30b18983a28d6964736f6c63430008190033",
  "devdoc": {
    "errors": {
      "AddressEmptyCode(address)": [
        {
          "details": "There's no code at `target` (it is not a contract)."
        }
      ],
      "FailedCall()": [
        {
          "details": "A call to an address target failed. The target may have reverted."
        }
      ],
      "InsufficientBalance(uint256,uint256)": [
        {
          "details": "The ETH balance of the account is not enough to perform the operation."
        }
      ],
      "OwnableInvalidOwner(address)": [
        {
          "details": "The owner is not a valid owner account. (eg. `address(0)`)"
        }
      ],
      "OwnableUnauthorizedAccount(address)": [
        {
          "details": "The caller account is not authorized to perform an operation."
        }
      ],
      "SafeCastOverflowedUintDowncast(uint8,uint256)": [
        {
          "details": "Value doesn't fit in an uint of `bits` size."
        }
      ],
      "SafeERC20FailedOperation(address)": [
        {
          "details": "An operation with an ERC-20 token failed."
        }
      ]
    },
    "kind": "dev",
    "methods": {
      "acceptOwnership()": {
        "details": "The new owner accepts the ownership transfer."
      },
      "burn(bytes32,uint256,uint256,uint256)": {
        "params": {
          "amount": "The amount of liquidity tokens to burn.",
          "key": "The key of the pool.",
          "minAmountA": "The amount of the first token to receive.",
          "minAmountB": "The minimum amount of the second token to receive."
        },
        "returns": {
          "withdrawalA": "The amounts of the first and second tokens to receive."
        }
      },
      "getBookPairs(bytes32)": {
        "params": {
          "key": "The key of the pool."
        },
        "returns": {
          "_0": "The book ID for the first book.",
          "_1": "The book ID for the second book."
        }
      },
      "getLiquidity(bytes32)": {
        "params": {
          "key": "The key of the pool."
        },
        "returns": {
          "liquidityA": "The liquidity for the first token.",
          "liquidityB": "The liquidity for the second token."
        }
      },
      "getPool(bytes32)": {
        "params": {
          "key": "The key of the pool."
        },
        "returns": {
          "_0": "The pool."
        }
      },
      "lockAcquired(address,bytes)": {
        "params": {
          "data": "The data that was passed to the call to lock"
        },
        "returns": {
          "_0": "Any data that you want to be returned from the lock call"
        }
      },
      "mint(bytes32,uint256,uint256,uint256)": {
        "params": {
          "amountA": "The amount of the first token.",
          "amountB": "The amount of the second token.",
          "key": "The key of the pool.",
          "minLpAmount": "The minimum amount of liquidity tokens to mint."
        },
        "returns": {
          "mintAmount": "The amount of liquidity tokens minted."
        }
      },
      "open((address,uint64,address,uint24,address,uint24),(address,uint64,address,uint24,address,uint24),bytes32,address)": {
        "params": {
          "bookKeyA": "The book key for the first book.",
          "bookKeyB": "The book key for the second book.",
          "salt": "The salt value.",
          "strategy": "The address of the strategy."
        },
        "returns": {
          "_0": "The key of the opened pool."
        }
      },
      "owner()": {
        "details": "Returns the address of the current owner."
      },
      "pendingOwner()": {
        "details": "Returns the address of the pending owner."
      },
      "rebalance(bytes32)": {
        "params": {
          "key": "The key of the pool."
        }
      },
      "renounceOwnership()": {
        "details": "Leaves the contract without owner. It will not be possible to call `onlyOwner` functions. Can only be called by the current owner. NOTE: Renouncing ownership will leave the contract without an owner, thereby disabling any functionality that is only available to the owner."
      },
      "transferOwnership(address)": {
        "details": "Starts the ownership transfer of the contract to a new account. Replaces the pending transfer if there is one. Can only be called by the current owner."
      }
    },
    "stateVariables": {
      "bookPair": {
        "params": {
          "bookId": "The book ID."
        },
        "return": "The book pair.",
        "returns": {
          "_0": "The book pair."
        }
      }
    },
    "version": 1
  },
  "userdoc": {
    "errors": {
      "ERC20TransferFailed()": [
        {
          "notice": "Thrown when an ERC20 transfer fails"
        }
      ],
      "NativeTransferFailed()": [
        {
          "notice": "Thrown when a native transfer fails"
        }
      ]
    },
    "kind": "user",
    "methods": {
      "bookPair(uint192)": {
        "notice": "Retrieves the book pair for a specified book ID."
      },
      "burn(bytes32,uint256,uint256,uint256)": {
        "notice": "Burns liquidity for the specified key."
      },
      "getBookPairs(bytes32)": {
        "notice": "Retrieves the book pairs for a specified key."
      },
      "getLiquidity(bytes32)": {
        "notice": "Retrieves the liquidity for a specified key."
      },
      "getPool(bytes32)": {
        "notice": "Retrieves the pool for a specified key."
      },
      "lockAcquired(address,bytes)": {
        "notice": "Called by the book manager on `msg.sender` when a lock is acquired"
      },
      "mint(bytes32,uint256,uint256,uint256)": {
        "notice": "Mints liquidity for the specified key."
      },
      "open((address,uint64,address,uint24,address,uint24),(address,uint64,address,uint24,address,uint24),bytes32,address)": {
        "notice": "Opens a new pool with the specified parameters."
      },
      "rebalance(bytes32)": {
        "notice": "Rebalances the pool for the specified key."
      }
    },
    "version": 1
  },
  "storageLayout": {
    "storage": [
      {
        "astId": 8,
        "contract": "src/Rebalancer.sol:Rebalancer",
        "label": "_owner",
        "offset": 0,
        "slot": "0",
        "type": "t_address"
      },
      {
        "astId": 156,
        "contract": "src/Rebalancer.sol:Rebalancer",
        "label": "_pendingOwner",
        "offset": 0,
        "slot": "1",
        "type": "t_address"
      },
      {
        "astId": 4970,
        "contract": "src/Rebalancer.sol:Rebalancer",
        "label": "isOperator",
        "offset": 0,
        "slot": "2",
        "type": "t_mapping(t_address,t_mapping(t_address,t_bool))"
      },
      {
        "astId": 4976,
        "contract": "src/Rebalancer.sol:Rebalancer",
        "label": "balanceOf",
        "offset": 0,
        "slot": "3",
        "type": "t_mapping(t_address,t_mapping(t_uint256,t_uint256))"
      },
      {
        "astId": 4984,
        "contract": "src/Rebalancer.sol:Rebalancer",
        "label": "allowance",
        "offset": 0,
        "slot": "4",
        "type": "t_mapping(t_address,t_mapping(t_address,t_mapping(t_uint256,t_uint256)))"
      },
      {
        "astId": 8030,
        "contract": "src/Rebalancer.sol:Rebalancer",
        "label": "totalSupply",
        "offset": 0,
        "slot": "5",
        "type": "t_mapping(t_uint256,t_uint256)"
      },
      {
        "astId": 5905,
        "contract": "src/Rebalancer.sol:Rebalancer",
        "label": "_pools",
        "offset": 0,
        "slot": "6",
        "type": "t_mapping(t_bytes32,t_struct(Pool)7768_storage)"
      },
      {
        "astId": 5911,
        "contract": "src/Rebalancer.sol:Rebalancer",
        "label": "bookPair",
        "offset": 0,
        "slot": "7",
        "type": "t_mapping(t_userDefinedValueType(BookId)3824,t_userDefinedValueType(BookId)3824)"
      }
    ],
    "types": {
      "t_address": {
        "encoding": "inplace",
        "label": "address",
        "numberOfBytes": "20"
      },
      "t_array(t_userDefinedValueType(OrderId)4259)dyn_storage": {
        "base": "t_userDefinedValueType(OrderId)4259",
        "encoding": "dynamic_array",
        "label": "OrderId[]",
        "numberOfBytes": "32"
      },
      "t_bool": {
        "encoding": "inplace",
        "label": "bool",
        "numberOfBytes": "1"
      },
      "t_bytes32": {
        "encoding": "inplace",
        "label": "bytes32",
        "numberOfBytes": "32"
      },
      "t_contract(IStrategy)8020": {
        "encoding": "inplace",
        "label": "contract IStrategy",
        "numberOfBytes": "20"
      },
      "t_mapping(t_address,t_bool)": {
        "encoding": "mapping",
        "key": "t_address",
        "label": "mapping(address => bool)",
        "numberOfBytes": "32",
        "value": "t_bool"
      },
      "t_mapping(t_address,t_mapping(t_address,t_bool))": {
        "encoding": "mapping",
        "key": "t_address",
        "label": "mapping(address => mapping(address => bool))",
        "numberOfBytes": "32",
        "value": "t_mapping(t_address,t_bool)"
      },
      "t_mapping(t_address,t_mapping(t_address,t_mapping(t_uint256,t_uint256)))": {
        "encoding": "mapping",
        "key": "t_address",
        "label": "mapping(address => mapping(address => mapping(uint256 => uint256)))",
        "numberOfBytes": "32",
        "value": "t_mapping(t_address,t_mapping(t_uint256,t_uint256))"
      },
      "t_mapping(t_address,t_mapping(t_uint256,t_uint256))": {
        "encoding": "mapping",
        "key": "t_address",
        "label": "mapping(address => mapping(uint256 => uint256))",
        "numberOfBytes": "32",
        "value": "t_mapping(t_uint256,t_uint256)"
      },
      "t_mapping(t_bytes32,t_struct(Pool)7768_storage)": {
        "encoding": "mapping",
        "key": "t_bytes32",
        "label": "mapping(bytes32 => struct IRebalancer.Pool)",
        "numberOfBytes": "32",
        "value": "t_struct(Pool)7768_storage"
      },
      "t_mapping(t_uint256,t_uint256)": {
        "encoding": "mapping",
        "key": "t_uint256",
        "label": "mapping(uint256 => uint256)",
        "numberOfBytes": "32",
        "value": "t_uint256"
      },
      "t_mapping(t_userDefinedValueType(BookId)3824,t_userDefinedValueType(BookId)3824)": {
        "encoding": "mapping",
        "key": "t_userDefinedValueType(BookId)3824",
        "label": "mapping(BookId => BookId)",
        "numberOfBytes": "32",
        "value": "t_userDefinedValueType(BookId)3824"
      },
      "t_struct(Pool)7768_storage": {
        "encoding": "inplace",
        "label": "struct IRebalancer.Pool",
        "members": [
          {
            "astId": 7749,
            "contract": "src/Rebalancer.sol:Rebalancer",
            "label": "bookIdA",
            "offset": 0,
            "slot": "0",
            "type": "t_userDefinedValueType(BookId)3824"
          },
          {
            "astId": 7752,
            "contract": "src/Rebalancer.sol:Rebalancer",
            "label": "bookIdB",
            "offset": 0,
            "slot": "1",
            "type": "t_userDefinedValueType(BookId)3824"
          },
          {
            "astId": 7755,
            "contract": "src/Rebalancer.sol:Rebalancer",
            "label": "strategy",
            "offset": 0,
            "slot": "2",
            "type": "t_contract(IStrategy)8020"
          },
          {
            "astId": 7757,
            "contract": "src/Rebalancer.sol:Rebalancer",
            "label": "reserveA",
            "offset": 0,
            "slot": "3",
            "type": "t_uint256"
          },
          {
            "astId": 7759,
            "contract": "src/Rebalancer.sol:Rebalancer",
            "label": "reserveB",
            "offset": 0,
            "slot": "4",
            "type": "t_uint256"
          },
          {
            "astId": 7763,
            "contract": "src/Rebalancer.sol:Rebalancer",
            "label": "orderListA",
            "offset": 0,
            "slot": "5",
            "type": "t_array(t_userDefinedValueType(OrderId)4259)dyn_storage"
          },
          {
            "astId": 7767,
            "contract": "src/Rebalancer.sol:Rebalancer",
            "label": "orderListB",
            "offset": 0,
            "slot": "6",
            "type": "t_array(t_userDefinedValueType(OrderId)4259)dyn_storage"
          }
        ],
        "numberOfBytes": "224"
      },
      "t_uint256": {
        "encoding": "inplace",
        "label": "uint256",
        "numberOfBytes": "32"
      },
      "t_userDefinedValueType(BookId)3824": {
        "encoding": "inplace",
        "label": "BookId",
        "numberOfBytes": "24"
      },
      "t_userDefinedValueType(OrderId)4259": {
        "encoding": "inplace",
        "label": "OrderId",
        "numberOfBytes": "32"
      }
    }
  }
}