{
  "address": "0x7a526046c6eAE6879bcB72E6022f72c15A824063",
  "abi": [
    {
      "inputs": [
        {
          "internalType": "contract IBookManager",
          "name": "bookManager_",
          "type": "address"
        },
        {
          "internalType": "address",
          "name": "initialOwner_",
          "type": "address"
        }
      ],
      "stateMutability": "nonpayable",
      "type": "constructor"
    },
    {
      "inputs": [],
      "name": "AlreadyOpened",
      "type": "error"
    },
    {
      "inputs": [],
      "name": "ERC20TransferFailed",
      "type": "error"
    },
    {
      "inputs": [],
      "name": "InvalidAmount",
      "type": "error"
    },
    {
      "inputs": [],
      "name": "InvalidBookPair",
      "type": "error"
    },
    {
      "inputs": [],
      "name": "InvalidHook",
      "type": "error"
    },
    {
      "inputs": [],
      "name": "InvalidLockAcquiredSender",
      "type": "error"
    },
    {
      "inputs": [],
      "name": "InvalidLockCaller",
      "type": "error"
    },
    {
      "inputs": [],
      "name": "InvalidMaker",
      "type": "error"
    },
    {
      "inputs": [],
      "name": "InvalidStrategy",
      "type": "error"
    },
    {
      "inputs": [],
      "name": "InvalidTick",
      "type": "error"
    },
    {
      "inputs": [],
      "name": "InvalidValue",
      "type": "error"
    },
    {
      "inputs": [],
      "name": "LockFailure",
      "type": "error"
    },
    {
      "inputs": [],
      "name": "NativeTransferFailed",
      "type": "error"
    },
    {
      "inputs": [],
      "name": "NotSelf",
      "type": "error"
    },
    {
      "inputs": [
        {
          "internalType": "address",
          "name": "owner",
          "type": "address"
        }
      ],
      "name": "OwnableInvalidOwner",
      "type": "error"
    },
    {
      "inputs": [
        {
          "internalType": "address",
          "name": "account",
          "type": "address"
        }
      ],
      "name": "OwnableUnauthorizedAccount",
      "type": "error"
    },
    {
      "inputs": [
        {
          "internalType": "uint8",
          "name": "bits",
          "type": "uint8"
        },
        {
          "internalType": "uint256",
          "name": "value",
          "type": "uint256"
        }
      ],
      "name": "SafeCastOverflowedUintDowncast",
      "type": "error"
    },
    {
      "inputs": [
        {
          "internalType": "address",
          "name": "token",
          "type": "address"
        }
      ],
      "name": "SafeERC20FailedOperation",
      "type": "error"
    },
    {
      "inputs": [],
      "name": "Slippage",
      "type": "error"
    },
    {
      "anonymous": false,
      "inputs": [
        {
          "indexed": true,
          "internalType": "address",
          "name": "owner",
          "type": "address"
        },
        {
          "indexed": true,
          "internalType": "address",
          "name": "spender",
          "type": "address"
        },
        {
          "indexed": true,
          "internalType": "uint256",
          "name": "id",
          "type": "uint256"
        },
        {
          "indexed": false,
          "internalType": "uint256",
          "name": "amount",
          "type": "uint256"
        }
      ],
      "name": "Approval",
      "type": "event"
    },
    {
      "anonymous": false,
      "inputs": [
        {
          "indexed": true,
          "internalType": "address",
          "name": "user",
          "type": "address"
        },
        {
          "indexed": true,
          "internalType": "bytes32",
          "name": "key",
          "type": "bytes32"
        },
        {
          "indexed": false,
          "internalType": "uint256",
          "name": "amountA",
          "type": "uint256"
        },
        {
          "indexed": false,
          "internalType": "uint256",
          "name": "amountB",
          "type": "uint256"
        },
        {
          "indexed": false,
          "internalType": "uint256",
          "name": "lpAmount",
          "type": "uint256"
        }
      ],
      "name": "Burn",
      "type": "event"
    },
    {
      "anonymous": false,
      "inputs": [
        {
          "indexed": true,
          "internalType": "bytes32",
          "name": "key",
          "type": "bytes32"
        },
        {
          "indexed": false,
          "internalType": "uint256",
          "name": "canceledAmountA",
          "type": "uint256"
        },
        {
          "indexed": false,
          "internalType": "uint256",
          "name": "canceledAmountB",
          "type": "uint256"
        }
      ],
      "name": "Cancel",
      "type": "event"
    },
    {
      "anonymous": false,
      "inputs": [
        {
          "indexed": true,
          "internalType": "bytes32",
          "name": "key",
          "type": "bytes32"
        },
        {
          "indexed": false,
          "internalType": "uint256",
          "name": "claimedAmountA",
          "type": "uint256"
        },
        {
          "indexed": false,
          "internalType": "uint256",
          "name": "claimedAmountB",
          "type": "uint256"
        }
      ],
      "name": "Claim",
      "type": "event"
    },
    {
      "anonymous": false,
      "inputs": [
        {
          "indexed": true,
          "internalType": "address",
          "name": "user",
          "type": "address"
        },
        {
          "indexed": true,
          "internalType": "bytes32",
          "name": "key",
          "type": "bytes32"
        },
        {
          "indexed": false,
          "internalType": "uint256",
          "name": "amountA",
          "type": "uint256"
        },
        {
          "indexed": false,
          "internalType": "uint256",
          "name": "amountB",
          "type": "uint256"
        },
        {
          "indexed": false,
          "internalType": "uint256",
          "name": "lpAmount",
          "type": "uint256"
        }
      ],
      "name": "Mint",
      "type": "event"
    },
    {
      "anonymous": false,
      "inputs": [
        {
          "indexed": true,
          "internalType": "bytes32",
          "name": "key",
          "type": "bytes32"
        },
        {
          "indexed": true,
          "internalType": "BookId",
          "name": "bookIdA",
          "type": "uint192"
        },
        {
          "indexed": true,
          "internalType": "BookId",
          "name": "bookIdB",
          "type": "uint192"
        },
        {
          "indexed": false,
          "internalType": "bytes32",
          "name": "salt",
          "type": "bytes32"
        },
        {
          "indexed": false,
          "internalType": "address",
          "name": "strategy",
          "type": "address"
        }
      ],
      "name": "Open",
      "type": "event"
    },
    {
      "anonymous": false,
      "inputs": [
        {
          "indexed": true,
          "internalType": "address",
          "name": "owner",
          "type": "address"
        },
        {
          "indexed": true,
          "internalType": "address",
          "name": "operator",
          "type": "address"
        },
        {
          "indexed": false,
          "internalType": "bool",
          "name": "approved",
          "type": "bool"
        }
      ],
      "name": "OperatorSet",
      "type": "event"
    },
    {
      "anonymous": false,
      "inputs": [
        {
          "indexed": true,
          "internalType": "address",
          "name": "previousOwner",
          "type": "address"
        },
        {
          "indexed": true,
          "internalType": "address",
          "name": "newOwner",
          "type": "address"
        }
      ],
      "name": "OwnershipTransferStarted",
      "type": "event"
    },
    {
      "anonymous": false,
      "inputs": [
        {
          "indexed": true,
          "internalType": "address",
          "name": "previousOwner",
          "type": "address"
        },
        {
          "indexed": true,
          "internalType": "address",
          "name": "newOwner",
          "type": "address"
        }
      ],
      "name": "OwnershipTransferred",
      "type": "event"
    },
    {
      "anonymous": false,
      "inputs": [
        {
          "indexed": true,
          "internalType": "bytes32",
          "name": "key",
          "type": "bytes32"
        }
      ],
      "name": "Rebalance",
      "type": "event"
    },
    {
      "anonymous": false,
      "inputs": [
        {
          "indexed": false,
          "internalType": "address",
          "name": "caller",
          "type": "address"
        },
        {
          "indexed": true,
          "internalType": "address",
          "name": "from",
          "type": "address"
        },
        {
          "indexed": true,
          "internalType": "address",
          "name": "to",
          "type": "address"
        },
        {
          "indexed": true,
          "internalType": "uint256",
          "name": "id",
          "type": "uint256"
        },
        {
          "indexed": false,
          "internalType": "uint256",
          "name": "amount",
          "type": "uint256"
        }
      ],
      "name": "Transfer",
      "type": "event"
    },
    {
      "inputs": [],
      "name": "RATE_PRECISION",
      "outputs": [
        {
          "internalType": "uint256",
          "name": "",
          "type": "uint256"
        }
      ],
      "stateMutability": "view",
      "type": "function"
    },
    {
      "inputs": [
        {
          "internalType": "bytes32",
          "name": "key",
          "type": "bytes32"
        },
        {
          "internalType": "address",
          "name": "user",
          "type": "address"
        },
        {
          "internalType": "uint256",
          "name": "burnAmount",
          "type": "uint256"
        }
      ],
      "name": "_burn",
      "outputs": [
        {
          "internalType": "uint256",
          "name": "withdrawalA",
          "type": "uint256"
        },
        {
          "internalType": "uint256",
          "name": "withdrawalB",
          "type": "uint256"
        }
      ],
      "stateMutability": "nonpayable",
      "type": "function"
    },
    {
      "inputs": [
        {
          "components": [
            {
              "internalType": "Currency",
              "name": "base",
              "type": "address"
            },
            {
              "internalType": "uint64",
              "name": "unitSize",
              "type": "uint64"
            },
            {
              "internalType": "Currency",
              "name": "quote",
              "type": "address"
            },
            {
              "internalType": "FeePolicy",
              "name": "makerPolicy",
              "type": "uint24"
            },
            {
              "internalType": "contract IHooks",
              "name": "hooks",
              "type": "address"
            },
            {
              "internalType": "FeePolicy",
              "name": "takerPolicy",
              "type": "uint24"
            }
          ],
          "internalType": "struct IBookManager.BookKey",
          "name": "bookKeyA",
          "type": "tuple"
        },
        {
          "components": [
            {
              "internalType": "Currency",
              "name": "base",
              "type": "address"
            },
            {
              "internalType": "uint64",
              "name": "unitSize",
              "type": "uint64"
            },
            {
              "internalType": "Currency",
              "name": "quote",
              "type": "address"
            },
            {
              "internalType": "FeePolicy",
              "name": "makerPolicy",
              "type": "uint24"
            },
            {
              "internalType": "contract IHooks",
              "name": "hooks",
              "type": "address"
            },
            {
              "internalType": "FeePolicy",
              "name": "takerPolicy",
              "type": "uint24"
            }
          ],
          "internalType": "struct IBookManager.BookKey",
          "name": "bookKeyB",
          "type": "tuple"
        },
        {
          "internalType": "bytes32",
          "name": "salt",
          "type": "bytes32"
        },
        {
          "internalType": "address",
          "name": "strategy",
          "type": "address"
        }
      ],
      "name": "_open",
      "outputs": [
        {
          "internalType": "bytes32",
          "name": "key",
          "type": "bytes32"
        }
      ],
      "stateMutability": "nonpayable",
      "type": "function"
    },
    {
      "inputs": [
        {
          "internalType": "bytes32",
          "name": "key",
          "type": "bytes32"
        }
      ],
      "name": "_rebalance",
      "outputs": [],
      "stateMutability": "nonpayable",
      "type": "function"
    },
    {
      "inputs": [],
      "name": "acceptOwnership",
      "outputs": [],
      "stateMutability": "nonpayable",
      "type": "function"
    },
    {
      "inputs": [
        {
          "internalType": "address",
          "name": "",
          "type": "address"
        },
        {
          "internalType": "address",
          "name": "",
          "type": "address"
        },
        {
          "internalType": "uint256",
          "name": "",
          "type": "uint256"
        }
      ],
      "name": "allowance",
      "outputs": [
        {
          "internalType": "uint256",
          "name": "",
          "type": "uint256"
        }
      ],
      "stateMutability": "view",
      "type": "function"
    },
    {
      "inputs": [
        {
          "internalType": "address",
          "name": "spender",
          "type": "address"
        },
        {
          "internalType": "uint256",
          "name": "id",
          "type": "uint256"
        },
        {
          "internalType": "uint256",
          "name": "amount",
          "type": "uint256"
        }
      ],
      "name": "approve",
      "outputs": [
        {
          "internalType": "bool",
          "name": "",
          "type": "bool"
        }
      ],
      "stateMutability": "nonpayable",
      "type": "function"
    },
    {
      "inputs": [
        {
          "internalType": "address",
          "name": "",
          "type": "address"
        },
        {
          "internalType": "uint256",
          "name": "",
          "type": "uint256"
        }
      ],
      "name": "balanceOf",
      "outputs": [
        {
          "internalType": "uint256",
          "name": "",
          "type": "uint256"
        }
      ],
      "stateMutability": "view",
      "type": "function"
    },
    {
      "inputs": [],
      "name": "bookManager",
      "outputs": [
        {
          "internalType": "contract IBookManager",
          "name": "",
          "type": "address"
        }
      ],
      "stateMutability": "view",
      "type": "function"
    },
    {
      "inputs": [
        {
          "internalType": "BookId",
          "name": "",
          "type": "uint192"
        }
      ],
      "name": "bookPair",
      "outputs": [
        {
          "internalType": "BookId",
          "name": "",
          "type": "uint192"
        }
      ],
      "stateMutability": "view",
      "type": "function"
    },
    {
      "inputs": [
        {
          "internalType": "bytes32",
          "name": "key",
          "type": "bytes32"
        },
        {
          "internalType": "uint256",
          "name": "amount",
          "type": "uint256"
        },
        {
          "internalType": "uint256",
          "name": "minAmountA",
          "type": "uint256"
        },
        {
          "internalType": "uint256",
          "name": "minAmountB",
          "type": "uint256"
        }
      ],
      "name": "burn",
      "outputs": [
        {
          "internalType": "uint256",
          "name": "withdrawalA",
          "type": "uint256"
        },
        {
          "internalType": "uint256",
          "name": "withdrawalB",
          "type": "uint256"
        }
      ],
      "stateMutability": "nonpayable",
      "type": "function"
    },
    {
      "inputs": [
        {
          "internalType": "uint256",
          "name": "",
          "type": "uint256"
        }
      ],
      "name": "decimals",
      "outputs": [
        {
          "internalType": "uint8",
          "name": "",
          "type": "uint8"
        }
      ],
      "stateMutability": "pure",
      "type": "function"
    },
    {
      "inputs": [
        {
          "internalType": "bytes32",
          "name": "key",
          "type": "bytes32"
        }
      ],
      "name": "getBookPairs",
      "outputs": [
        {
          "internalType": "BookId",
          "name": "",
          "type": "uint192"
        },
        {
          "internalType": "BookId",
          "name": "",
          "type": "uint192"
        }
      ],
      "stateMutability": "view",
      "type": "function"
    },
    {
      "inputs": [
        {
          "internalType": "bytes32",
          "name": "key",
          "type": "bytes32"
        }
      ],
      "name": "getLiquidity",
      "outputs": [
        {
          "components": [
            {
              "internalType": "uint256",
              "name": "reserve",
              "type": "uint256"
            },
            {
              "internalType": "uint256",
              "name": "claimable",
              "type": "uint256"
            },
            {
              "internalType": "uint256",
              "name": "cancelable",
              "type": "uint256"
            }
          ],
          "internalType": "struct IRebalancer.Liquidity",
          "name": "liquidityA",
          "type": "tuple"
        },
        {
          "components": [
            {
              "internalType": "uint256",
              "name": "reserve",
              "type": "uint256"
            },
            {
              "internalType": "uint256",
              "name": "claimable",
              "type": "uint256"
            },
            {
              "internalType": "uint256",
              "name": "cancelable",
              "type": "uint256"
            }
          ],
          "internalType": "struct IRebalancer.Liquidity",
          "name": "liquidityB",
          "type": "tuple"
        }
      ],
      "stateMutability": "view",
      "type": "function"
    },
    {
      "inputs": [
        {
          "internalType": "bytes32",
          "name": "key",
          "type": "bytes32"
        }
      ],
      "name": "getPool",
      "outputs": [
        {
          "components": [
            {
              "internalType": "BookId",
              "name": "bookIdA",
              "type": "uint192"
            },
            {
              "internalType": "BookId",
              "name": "bookIdB",
              "type": "uint192"
            },
            {
              "internalType": "contract IStrategy",
              "name": "strategy",
              "type": "address"
            },
            {
              "internalType": "uint256",
              "name": "reserveA",
              "type": "uint256"
            },
            {
              "internalType": "uint256",
              "name": "reserveB",
              "type": "uint256"
            },
            {
              "internalType": "OrderId[]",
              "name": "orderListA",
              "type": "uint256[]"
            },
            {
              "internalType": "OrderId[]",
              "name": "orderListB",
              "type": "uint256[]"
            }
          ],
          "internalType": "struct IRebalancer.Pool",
          "name": "",
          "type": "tuple"
        }
      ],
      "stateMutability": "view",
      "type": "function"
    },
    {
      "inputs": [
        {
          "internalType": "address",
          "name": "",
          "type": "address"
        },
        {
          "internalType": "address",
          "name": "",
          "type": "address"
        }
      ],
      "name": "isOperator",
      "outputs": [
        {
          "internalType": "bool",
          "name": "",
          "type": "bool"
        }
      ],
      "stateMutability": "view",
      "type": "function"
    },
    {
      "inputs": [
        {
          "internalType": "address",
          "name": "lockCaller",
          "type": "address"
        },
        {
          "internalType": "bytes",
          "name": "data",
          "type": "bytes"
        }
      ],
      "name": "lockAcquired",
      "outputs": [
        {
          "internalType": "bytes",
          "name": "",
          "type": "bytes"
        }
      ],
      "stateMutability": "nonpayable",
      "type": "function"
    },
    {
      "inputs": [
        {
          "internalType": "bytes32",
          "name": "key",
          "type": "bytes32"
        },
        {
          "internalType": "uint256",
          "name": "amountA",
          "type": "uint256"
        },
        {
          "internalType": "uint256",
          "name": "amountB",
          "type": "uint256"
        },
        {
          "internalType": "uint256",
          "name": "minLpAmount",
          "type": "uint256"
        }
      ],
      "name": "mint",
      "outputs": [
        {
          "internalType": "uint256",
          "name": "mintAmount",
          "type": "uint256"
        }
      ],
      "stateMutability": "payable",
      "type": "function"
    },
    {
      "inputs": [
        {
          "components": [
            {
              "internalType": "Currency",
              "name": "base",
              "type": "address"
            },
            {
              "internalType": "uint64",
              "name": "unitSize",
              "type": "uint64"
            },
            {
              "internalType": "Currency",
              "name": "quote",
              "type": "address"
            },
            {
              "internalType": "FeePolicy",
              "name": "makerPolicy",
              "type": "uint24"
            },
            {
              "internalType": "contract IHooks",
              "name": "hooks",
              "type": "address"
            },
            {
              "internalType": "FeePolicy",
              "name": "takerPolicy",
              "type": "uint24"
            }
          ],
          "internalType": "struct IBookManager.BookKey",
          "name": "bookKeyA",
          "type": "tuple"
        },
        {
          "components": [
            {
              "internalType": "Currency",
              "name": "base",
              "type": "address"
            },
            {
              "internalType": "uint64",
              "name": "unitSize",
              "type": "uint64"
            },
            {
              "internalType": "Currency",
              "name": "quote",
              "type": "address"
            },
            {
              "internalType": "FeePolicy",
              "name": "makerPolicy",
              "type": "uint24"
            },
            {
              "internalType": "contract IHooks",
              "name": "hooks",
              "type": "address"
            },
            {
              "internalType": "FeePolicy",
              "name": "takerPolicy",
              "type": "uint24"
            }
          ],
          "internalType": "struct IBookManager.BookKey",
          "name": "bookKeyB",
          "type": "tuple"
        },
        {
          "internalType": "bytes32",
          "name": "salt",
          "type": "bytes32"
        },
        {
          "internalType": "address",
          "name": "strategy",
          "type": "address"
        }
      ],
      "name": "open",
      "outputs": [
        {
          "internalType": "bytes32",
          "name": "",
          "type": "bytes32"
        }
      ],
      "stateMutability": "nonpayable",
      "type": "function"
    },
    {
      "inputs": [],
      "name": "owner",
      "outputs": [
        {
          "internalType": "address",
          "name": "",
          "type": "address"
        }
      ],
      "stateMutability": "view",
      "type": "function"
    },
    {
      "inputs": [],
      "name": "pendingOwner",
      "outputs": [
        {
          "internalType": "address",
          "name": "",
          "type": "address"
        }
      ],
      "stateMutability": "view",
      "type": "function"
    },
    {
      "inputs": [
        {
          "internalType": "bytes32",
          "name": "key",
          "type": "bytes32"
        }
      ],
      "name": "rebalance",
      "outputs": [],
      "stateMutability": "nonpayable",
      "type": "function"
    },
    {
      "inputs": [],
      "name": "renounceOwnership",
      "outputs": [],
      "stateMutability": "nonpayable",
      "type": "function"
    },
    {
      "inputs": [
        {
          "internalType": "address",
          "name": "operator",
          "type": "address"
        },
        {
          "internalType": "bool",
          "name": "approved",
          "type": "bool"
        }
      ],
      "name": "setOperator",
      "outputs": [
        {
          "internalType": "bool",
          "name": "",
          "type": "bool"
        }
      ],
      "stateMutability": "nonpayable",
      "type": "function"
    },
    {
      "inputs": [
        {
          "internalType": "bytes4",
          "name": "interfaceId",
          "type": "bytes4"
        }
      ],
      "name": "supportsInterface",
      "outputs": [
        {
          "internalType": "bool",
          "name": "",
          "type": "bool"
        }
      ],
      "stateMutability": "view",
      "type": "function"
    },
    {
      "inputs": [
        {
          "internalType": "uint256",
          "name": "",
          "type": "uint256"
        }
      ],
      "name": "totalSupply",
      "outputs": [
        {
          "internalType": "uint256",
          "name": "",
          "type": "uint256"
        }
      ],
      "stateMutability": "view",
      "type": "function"
    },
    {
      "inputs": [
        {
          "internalType": "address",
          "name": "receiver",
          "type": "address"
        },
        {
          "internalType": "uint256",
          "name": "id",
          "type": "uint256"
        },
        {
          "internalType": "uint256",
          "name": "amount",
          "type": "uint256"
        }
      ],
      "name": "transfer",
      "outputs": [
        {
          "internalType": "bool",
          "name": "",
          "type": "bool"
        }
      ],
      "stateMutability": "nonpayable",
      "type": "function"
    },
    {
      "inputs": [
        {
          "internalType": "address",
          "name": "sender",
          "type": "address"
        },
        {
          "internalType": "address",
          "name": "receiver",
          "type": "address"
        },
        {
          "internalType": "uint256",
          "name": "id",
          "type": "uint256"
        },
        {
          "internalType": "uint256",
          "name": "amount",
          "type": "uint256"
        }
      ],
      "name": "transferFrom",
      "outputs": [
        {
          "internalType": "bool",
          "name": "",
          "type": "bool"
        }
      ],
      "stateMutability": "nonpayable",
      "type": "function"
    },
    {
      "inputs": [
        {
          "internalType": "address",
          "name": "newOwner",
          "type": "address"
        }
      ],
      "name": "transferOwnership",
      "outputs": [],
      "stateMutability": "nonpayable",
      "type": "function"
    },
    {
      "stateMutability": "payable",
      "type": "receive"
    }
  ],
  "transactionHash": "0xcb8f84f6e56e3357527b891ee4704764f3dfc660bc699d83a8575688cd694459",
  "args": [
    "0xE25611C8aa0A7cEA49fE099d26bf56f720d57874",
    "0x8381c90a455c162E0aCA3cBE80e7cE5D590C7703"
  ],
  "numDeployments": 1,
  "solcInputHash": "a9113cc96213bfd433fd0c3d0980290b",
  "bytecode": "0x60a060405234801561001057600080fd5b506040516147c53803806147c583398101604081905261002f916100fb565b806001600160a01b03811661005e57604051631e4fbdf760e01b81526000600482015260240160405180910390fd5b6100678161007a565b50506001600160a01b0316608052610135565b600180546001600160a01b031916905561009381610096565b50565b600080546001600160a01b038381166001600160a01b0319831681178455604051919092169283917f8be0079c531659141344cd1fd0a4f28419497f9722a3daafe3b4186f6b6457e09190a35050565b6001600160a01b038116811461009357600080fd5b6000806040838503121561010e57600080fd5b8251610119816100e6565b602084015190925061012a816100e6565b809150509250929050565b6080516145cd6101f86000396000818161034c015281816107790152818161081601528181610b420152818161110a015281816111e701528181611338015281816117110152818161179f01528181611825015281816118b301528181611c2e01528181611dac0152818161214a01528181612265015281816125b3015281816126f6015281816127a701528181612864015281816128e10152818161293901528181612cc301528181612ea701528181612f8a015261302201526145cd6000f3fe6080604052600436106101c55760003560e01c8063715018a6116100f7578063c630ed7d11610095578063f3cbc88c11610064578063f3cbc88c14610615578063f6c0092714610635578063fa6793d514610662578063fe99049a1461069057600080fd5b8063c630ed7d14610555578063e27ff0ad146105b7578063e30c3978146105d7578063f2fde38b146105f557600080fd5b8063998ff4ef116100d1578063998ff4ef1461047f578063a1d5f131146104cd578063b6363cf2146104ed578063bd85b0391461052857600080fd5b8063715018a61461043757806379ba50971461044c5780638da5cb5b1461046157600080fd5b80631b022ec8116101645780633f47e6621161013e5780633f47e66214610386578063426a8493146103b9578063558a7297146103d9578063598af9e7146103f957600080fd5b80631b022ec8146103035780632b3ba681146103235780633f322bc91461033a57600080fd5b8063095bcdb6116101a0578063095bcdb61461026e57806309cb66c41461028e5780630a31b953146102a157806315c7afb4146102d657600080fd5b8062fdd58e146101d157806301ffc9a71461021c578063022dd4ef1461024c57600080fd5b366101cc57005b600080fd5b3480156101dd57600080fd5b506102096101ec366004613785565b600360209081526000928352604080842090915290825290205481565b6040519081526020015b60405180910390f35b34801561022857600080fd5b5061023c6102373660046137b1565b6106b0565b6040519015158152602001610213565b34801561025857600080fd5b5061026c6102673660046137db565b610719565b005b34801561027a57600080fd5b5061023c6102893660046137f4565b610a54565b61020961029c366004613829565b610b10565b3480156102ad57600080fd5b506102c16102bc366004613829565b611081565b60408051928352602083019190915201610213565b3480156102e257600080fd5b506102f66102f136600461385b565b6111da565b6040516102139190613930565b34801561030f57600080fd5b5061026c61031e3660046137db565b611336565b34801561032f57600080fd5b50610209620f424081565b34801561034657600080fd5b5061036e7f000000000000000000000000000000000000000000000000000000000000000081565b6040516001600160a01b039091168152602001610213565b34801561039257600080fd5b506103a76103a13660046137db565b50601290565b60405160ff9091168152602001610213565b3480156103c557600080fd5b5061023c6103d43660046137f4565b611412565b3480156103e557600080fd5b5061023c6103f4366004613951565b611477565b34801561040557600080fd5b5061020961041436600461398a565b600460209081526000938452604080852082529284528284209052825290205481565b34801561044357600080fd5b5061026c6114e7565b34801561045857600080fd5b5061026c6114fb565b34801561046d57600080fd5b506000546001600160a01b031661036e565b34801561048b57600080fd5b506104b561049a3660046139cb565b6007602052600090815260409020546001600160c01b031681565b6040516001600160c01b039091168152602001610213565b3480156104d957600080fd5b506102096104e8366004613a0c565b611541565b3480156104f957600080fd5b5061023c610508366004613a60565b600260209081526000928352604080842090915290825290205460ff1681565b34801561053457600080fd5b506102096105433660046137db565b60056020526000908152604090205481565b34801561056157600080fd5b506105976105703660046137db565b600090815260066020526040902080546001909101546001600160c01b0391821692911690565b604080516001600160c01b03938416815292909116602083015201610213565b3480156105c357600080fd5b506102c16105d2366004613a8e565b611a67565b3480156105e357600080fd5b506001546001600160a01b031661036e565b34801561060157600080fd5b5061026c610610366004613ab5565b611d2a565b34801561062157600080fd5b50610209610630366004613a0c565b611da8565b34801561064157600080fd5b506106556106503660046137db565b611ea2565b6040516102139190613b0e565b34801561066e57600080fd5b5061068261067d3660046137db565b61200d565b604051610213929190613b90565b34801561069c57600080fd5b5061023c6106ab366004613bc9565b61234d565b60007f01ffc9a7000000000000000000000000000000000000000000000000000000006001600160e01b03198316148061071357507f0f632fb3000000000000000000000000000000000000000000000000000000006001600160e01b03198316145b92915050565b333014610739576040516314e1dbf760e11b815260040160405180910390fd5b600081815260066020526040808220600381015460048083015483549451639b22917d60e01b81526001600160c01b0390951691850191909152919390927f00000000000000000000000000000000000000000000000000000000000000006001600160a01b031690639b22917d9060240160c060405180830381865afa1580156107c8573d6000803e3d6000fd5b505050506040513d601f19601f820116820180604052508101906107ec9190613cc9565b6001850154604051639b22917d60e01b81526001600160c01b0390911660048201529091506000907f00000000000000000000000000000000000000000000000000000000000000006001600160a01b031690639b22917d9060240160c060405180830381865afa158015610865573d6000803e3d6000fd5b505050506040513d601f19601f820116820180604052508101906108899190613cc9565b60028601546040517f3b93fabc000000000000000000000000000000000000000000000000000000008152600481018990529192506001600160a01b031690633b93fabc90602401600060405180830381865afa92505050801561090f57506040513d6000823e601f3d908101601f1916820160405261090c9190810190613e13565b60015b6109295761092086866001806124c5565b50505050610a24565b815115801561093757508051155b15610946575050505050505050565b61095388886001806124c5565b50505050610965848389600501612573565b610973838289600601612573565b60028701546040517fedffdaaf0000000000000000000000000000000000000000000000000000000081526001600160a01b039091169063edffdaaf906109c49033908c9087908790600401613ec0565b600060405180830381600087803b1580156109de57600080fd5b505af11580156109f2573d6000803e3d6000fd5b50506040518a92507f37f8042257f6b4d65b9614deb7792e5b374db2fdcd1983bf8a1247a8a788af5c9150600090a250505b610a328260400151856126d4565b60038601558151610a4390846126d4565b856004018190555050505050505b50565b336000908152600360209081526040808320858452909152812080548391908390610a80908490613f1b565b90915550506001600160a01b038416600090815260036020908152604080832086845290915281208054849290610ab8908490613f2e565b909155505060408051338082526020820185905285926001600160a01b038816927f1b3d7edb2e9c0b0e7c525b20aaaef0f5940d2ed71663c7d39266ecafac72885991015b60405180910390a45060015b9392505050565b60008481526006602052604080822080549151639b22917d60e01b81526001600160c01b0390921660048301529082907f00000000000000000000000000000000000000000000000000000000000000006001600160a01b031690639b22917d9060240160c060405180830381865afa158015610b91573d6000803e3d6000fd5b505050506040513d601f19601f82011682018060405250810190610bb59190613cc9565b600088815260056020526040812054919250819003610d7c57861580610bd9575085155b15610c10576040517f2c5211c600000000000000000000000000000000000000000000000000000000815260040160405180910390fd5b60408201516000906001600160a01b031615610ca75782604001516001600160a01b031663313ce5676040518163ffffffff1660e01b8152600401602060405180830381865afa158015610c68573d6000803e3d6000fd5b505050506040513d601f19601f82011682018060405250810190610c8c9190613f41565b610c97906012613f64565b610ca290600a614061565b610caa565b60015b83519091506000906001600160a01b031615610d415783600001516001600160a01b031663313ce5676040518163ffffffff1660e01b8152600401602060405180830381865afa158015610d02573d6000803e3d6000fd5b505050506040513d601f19601f82011682018060405250810190610d269190613f41565b610d31906012613f64565b610d3c90600a614061565b610d44565b60015b90506000610d52838b614070565b90506000610d60838b614070565b9050808211610d6f5780610d71565b815b975050505050610e8a565b600080610d888a61200d565b915091506000826040015183602001518460000151610da79190613f2e565b610db19190613f2e565b90506000826040015183602001518460000151610dce9190613f2e565b610dd89190613f2e565b905081158015610de6575080155b15610dfa5760009950899a508a9750610e85565b81600003610e1857610e0d8a86836129c5565b975060009a50610e85565b80600003610e3657610e2b8b86846129c5565b975060009950610e85565b6000610e438c87856129c5565b90506000610e528c88856129c5565b905080821115610e7157809950610e6a848b896129e3565b9c50610e82565b819950610e7f838b896129e3565b9b505b50505b505050505b84841015610eab576040516307dd37f760e41b815260040160405180910390fd5b604082015134906001600160a01b0316610ee85787341015610ee057604051632a9ffab760e21b815260040160405180910390fd5b879003610f02565b6040830151610f02906001600160a01b031633308b612a09565b82516001600160a01b0316610f3a5786341015610f3257604051632a9ffab760e21b815260040160405180910390fd5b869003610f51565b8251610f51906001600160a01b031633308a612a09565b87846003016000828254610f659190613f2e565b9250508190555086846004016000828254610f809190613f2e565b90915550610f919050338a87612a7c565b60028401546040517fa3a36f55000000000000000000000000000000000000000000000000000000008152336004820152602481018b905260448101879052606481018490526001600160a01b039091169063a3a36f5590608401600060405180830381600087803b15801561100657600080fd5b505af115801561101a573d6000803e3d6000fd5b5050604080518b8152602081018b90529081018890528b92503391507f1d43dbd7e59f8c9371169f5c49c01e100227d9ee5f5fe54665cf10e35042bb729060600160405180910390a380156110755761107560003383612aaf565b50505050949350505050565b6040805160248101869052336044820152606480820186905282518083039091018152608490910182526020810180516001600160e01b03167fe27ff0ad0000000000000000000000000000000000000000000000000000000017905290517f9ca1799800000000000000000000000000000000000000000000000000000000815260009182917f00000000000000000000000000000000000000000000000000000000000000006001600160a01b031691639ca1799891611147913091600401614087565b6000604051808303816000875af1158015611166573d6000803e3d6000fd5b505050506040513d6000823e601f3d908101601f1916820160405261118e91908101906140a9565b8060200190518101906111a1919061413d565b9092509050838210806111b357508281105b156111d1576040516307dd37f760e41b815260040160405180910390fd5b94509492505050565b6060336001600160a01b037f0000000000000000000000000000000000000000000000000000000000000000161461123e576040517f4bd37f4300000000000000000000000000000000000000000000000000000000815260040160405180910390fd5b6001600160a01b0384163014611280576040517f66a7598c00000000000000000000000000000000000000000000000000000000815260040160405180910390fd5b600080306001600160a01b0316858560405161129d929190614161565b6000604051808303816000865af19150503d80600081146112da576040519150601f19603f3d011682016040523d82523d6000602084013e6112df565b606091505b509150915081156112f3579150610b099050565b805160000361132e576040517fa40afa3800000000000000000000000000000000000000000000000000000000815260040160405180910390fd5b805160208201fd5b7f00000000000000000000000000000000000000000000000000000000000000006001600160a01b0316639ca179983063022dd4ef60e01b8460405160240161138191815260200190565b60408051601f198184030181529181526020820180516001600160e01b03166001600160e01b03199485161790525160e085901b90921682526113c79291600401614087565b6000604051808303816000875af11580156113e6573d6000803e3d6000fd5b505050506040513d6000823e601f3d908101601f1916820160405261140e91908101906140a9565b5050565b3360008181526004602090815260408083206001600160a01b03881680855290835281842087855290925280832085905551919285927fb3fd5071835887567a0671151121894ddccc2842f1d10bedad13e0d17cace9a790610afd9087815260200190565b3360008181526002602090815260408083206001600160a01b038716808552908352818420805460ff191687151590811790915591519182529293917fceb576d9f15e4e200fdb5096d64d5dfd667e16def20c1eefd14256d8e3faa267910160405180910390a350600192915050565b6114ef612b97565b6114f96000612bc4565b565b60015433906001600160a01b031681146115385760405163118cdaa760e01b81526001600160a01b03821660048201526024015b60405180910390fd5b610a5181612bc4565b6000333014611563576040516314e1dbf760e11b815260040160405180910390fd5b6115946115736020860186613ab5565b6115836060880160408901613ab5565b6001600160a01b0391821691161490565b80156115bb57506115bb6115ae6060860160408701613ab5565b6115836020880188613ab5565b15806115d257506115d26115736020870187613ab5565b15611609576040517f27a4015200000000000000000000000000000000000000000000000000000000815260040160405180910390fd5b600061161b60a0870160808801613ab5565b6001600160a01b031614158061164a5750600061163e60a0860160808701613ab5565b6001600160a01b031614155b15611681576040517f9c9d882300000000000000000000000000000000000000000000000000000000815260040160405180910390fd5b6001600160a01b0382166116c1576040517f4e236e9a00000000000000000000000000000000000000000000000000000000815260040160405180910390fd5b60006116da6116d536889003880188614171565b612bea565b905060006116f06116d536889003880188614171565b604051632ad7b51960e11b81526001600160c01b03841660048201529091507f00000000000000000000000000000000000000000000000000000000000000006001600160a01b0316906355af6a3290602401602060405180830381865afa158015611760573d6000803e3d6000fd5b505050506040513d601f19601f8201168201806040525081019061178491906141f2565b6118075760405163fefc7c5160e01b81526001600160a01b037f0000000000000000000000000000000000000000000000000000000000000000169063fefc7c51906117d4908a906004016142ae565b600060405180830381600087803b1580156117ee57600080fd5b505af1158015611802573d6000803e3d6000fd5b505050505b604051632ad7b51960e11b81526001600160c01b03821660048201527f00000000000000000000000000000000000000000000000000000000000000006001600160a01b0316906355af6a3290602401602060405180830381865afa158015611874573d6000803e3d6000fd5b505050506040513d601f19601f8201168201806040525081019061189891906141f2565b61191b5760405163fefc7c5160e01b81526001600160a01b037f0000000000000000000000000000000000000000000000000000000000000000169063fefc7c51906118e89089906004016142ae565b600060405180830381600087803b15801561190257600080fd5b505af1158015611916573d6000803e3d6000fd5b505050505b611926828287612c26565b6000818152600660205260409020600201549093506001600160a01b03161561197b576040517f1da42b2600000000000000000000000000000000000000000000000000000000815260040160405180910390fd5b600083815260066020908152604080832080546001600160c01b038781167fffffffffffffffff0000000000000000000000000000000000000000000000009283168117845560018401805492891692841683179055600290930180546001600160a01b038c1673ffffffffffffffffffffffffffffffffffffffff199091168117909155838752600786528487208054841683179055818752958490208054909216831790915582518a8152938401949094529186917f66d8f0c63665a9bd1357e5d422d5f538805b225f260974cb408a66635040ec6c910160405180910390a45050949350505050565b600080333014611a8a576040516314e1dbf760e11b815260040160405180910390fd5b600085815260066020908152604080832060059092528220549091808080611ab48b878b886124c5565b60038a015460048b015494985092965090945092509085878c611ad78786613f2e565b611ae19190614070565b611aeb91906142d0565b611af59190613f2e565b995084878c611b048685613f2e565b611b0e9190614070565b611b1891906142d0565b611b229190613f2e565b9850611b2f8c8e8d612c93565b60028801546040517fdb7c74b6000000000000000000000000000000000000000000000000000000008152336004820152602481018f9052604481018d9052606481018990526001600160a01b039091169063db7c74b690608401600060405180830381600087803b158015611ba457600080fd5b505af1158015611bb8573d6000803e3d6000fd5b5050604080518d8152602081018d90529081018e90528f92506001600160a01b038f1691507f974da0fadf774cec6d550cb40d607dc3a0b7dee97aa1cd03a2fa3f6603b943ab9060600160405180910390a38754604051639b22917d60e01b81526001600160c01b0390911660048201526000907f00000000000000000000000000000000000000000000000000000000000000006001600160a01b031690639b22917d9060240160c060405180830381865afa158015611c7d573d6000803e3d6000fd5b505050506040513d601f19601f82011682018060405250810190611ca19190613cc9565b90508a611cb28260400151856126d4565b611cbc9190613f1b565b60038a015580518a90611ccf90846126d4565b611cd99190613f1b565b60048a01558a15611cfd576040810151611cfd906001600160a01b03168e8d612aaf565b8915611d19578051611d19906001600160a01b03168e8c612aaf565b505050505050505050935093915050565b611d32612b97565b600180546001600160a01b03831673ffffffffffffffffffffffffffffffffffffffff199091168117909155611d706000546001600160a01b031690565b6001600160a01b03167f38d16b8cac22d99fc7c124b9cd0de2d3fa1faef420bfe791d8c362d765e2270060405160405180910390a350565b60007f00000000000000000000000000000000000000000000000000000000000000006001600160a01b0316639ca179983063a1d5f13160e01b88888888604051602401611df994939291906142f2565b60408051601f198184030181529181526020820180516001600160e01b03166001600160e01b03199485161790525160e085901b9092168252611e3f9291600401614087565b6000604051808303816000875af1158015611e5e573d6000803e3d6000fd5b505050506040513d6000823e601f3d908101601f19168201604052611e8691908101906140a9565b806020019051810190611e99919061432e565b95945050505050565b611efd6040518060e0016040528060006001600160c01b0316815260200160006001600160c01b0316815260200160006001600160a01b03168152602001600081526020016000815260200160608152602001606081525090565b600082815260066020908152604091829020825160e08101845281546001600160c01b0390811682526001830154168184015260028201546001600160a01b03168185015260038201546060820152600482015460808201526005820180548551818602810186019096528086529194929360a08601939290830182828015611fa557602002820191906000526020600020905b815481526020019060010190808311611f91575b5050505050815260200160068201805480602002602001604051908101604052809291908181526020018280548015611ffd57602002820191906000526020600020905b815481526020019060010190808311611fe9575b5050505050815250509050919050565b61203160405180606001604052806000815260200160008152602001600081525090565b61205560405180606001604052806000815260200160008152602001600081525090565b600083815260066020908152604080832060038101548652600481015485526005810180548351818602810186019094528084529194939091908301828280156120be57602002820191906000526020600020905b8154815260200190600101908083116120aa575b5050505050905060008260060180548060200260200160405190810160405280929190818152602001828054801561211557602002820191906000526020600020905b815481526020019060010190808311612101575b50505050509050600082511115612237578254604051639b22917d60e01b81526001600160c01b0390911660048201526000907f00000000000000000000000000000000000000000000000000000000000000006001600160a01b031690639b22917d9060240160c060405180830381865afa158015612199573d6000803e3d6000fd5b505050506040513d601f19601f820116820180604052508101906121bd9190613cc9565b905060005b8351811015612234576000806121fa846060015185602001518886815181106121ed576121ed614347565b6020026020010151612cbc565b9150915081896040018181516122109190613f2e565b905250602088018051829190612227908390613f2e565b90525050506001016121c2565b50505b805115612345576001830154604051639b22917d60e01b81526001600160c01b0390911660048201526000907f00000000000000000000000000000000000000000000000000000000000000006001600160a01b031690639b22917d9060240160c060405180830381865afa1580156122b4573d6000803e3d6000fd5b505050506040513d601f19601f820116820180604052508101906122d89190613cc9565b905060005b825181101561234257600080612308846060015185602001518786815181106121ed576121ed614347565b91509150808960200181815161231e9190613f2e565b905250604088018051839190612335908390613f2e565b90525050506001016122dd565b50505b505050915091565b6000336001600160a01b0386161480159061238c57506001600160a01b038516600090815260026020908152604080832033845290915290205460ff16155b156123ff576001600160a01b0385166000908152600460209081526040808320338452825280832086845290915290205460001981146123fd576123d08382613f1b565b6001600160a01b038716600090815260046020908152604080832033845282528083208884529091529020555b505b6001600160a01b038516600090815260036020908152604080832086845290915281208054849290612432908490613f1b565b90915550506001600160a01b03841660009081526003602090815260408083208684529091528120805484929061246a908490613f2e565b9091555050604080513381526020810184905284916001600160a01b0380881692908916917f1b3d7edb2e9c0b0e7c525b20aaaef0f5940d2ed71663c7d39266ecafac728859910160405180910390a4506001949350505050565b6000806000806124d9876005018787612e22565b90945090506124ec600688018787612e22565b604080518281526020810185905292955090935089917f1c29b938e5c165e4f17dcbaf854af84a6c529c3f0face137b12bda74606cca9e910160405180910390a2604080518581526020810185905289917f5721685080049ebad55f69ed0f4bf84a11d57cd2050e67986deab2323a9b2103910160405180910390a2945094509450949050565b60005b82518110156126ce5782818151811061259157612591614347565b60200260200101516020015167ffffffffffffffff16600003156126c65760007f00000000000000000000000000000000000000000000000000000000000000006001600160a01b0316631dbef488604051806080016040528088815260200187868151811061260357612603614347565b60200260200101516000015160020b815260200187868151811061262957612629614347565b60200260200101516020015167ffffffffffffffff16815260200160006001600160a01b03168152506040518263ffffffff1660e01b815260040161266e919061435d565b60408051808303816000875af115801561268c573d6000803e3d6000fd5b505050506040513d601f19601f820116820180604052508101906126b0919061413d565b5083546001810185556000858152602090200155505b600101612576565b50505050565b604051636a256b2960e01b81526001600160a01b0383811660048301526000917f000000000000000000000000000000000000000000000000000000000000000090911690636a256b29906024016020604051808303816000875af1158015612741573d6000803e3d6000fd5b505050506040513d601f19601f82011682018060405250810190612765919061432e565b506040517f9611cf6c0000000000000000000000000000000000000000000000000000000081523060048201526001600160a01b0384811660248301526000917f000000000000000000000000000000000000000000000000000000000000000090911690639611cf6c90604401602060405180830381865afa1580156127f0573d6000803e3d6000fd5b505050506040513d601f19601f82011682018060405250810190612814919061432e565b905060008113156128d3576040517fd9caed120000000000000000000000000000000000000000000000000000000081526001600160a01b038581166004830152306024830152604482018390527f0000000000000000000000000000000000000000000000000000000000000000169063d9caed1290606401600060405180830381600087803b1580156128a857600080fd5b505af11580156128bc573d6000803e3d6000fd5b5050505080836128cc9190613f2e565b92506129bd565b60008112156129bd5761291a7f000000000000000000000000000000000000000000000000000000000000000061290983614415565b6001600160a01b0387169190612aaf565b604051636a256b2960e01b81526001600160a01b0385811660048301527f00000000000000000000000000000000000000000000000000000000000000001690636a256b29906024016020604051808303816000875af1158015612982573d6000803e3d6000fd5b505050506040513d601f19601f820116820180604052508101906129a6919061432e565b506129b081614415565b6129ba9084613f1b565b92505b509092915050565b60008260001904841183021582026129dc57600080fd5b5091020490565b60008260001904841183021582026129fa57600080fd5b50910281810615159190040190565b604080516001600160a01b0385811660248301528416604482015260648082018490528251808303909101815260849091019091526020810180516001600160e01b03167f23b872dd000000000000000000000000000000000000000000000000000000001790526126ce90859061315b565b612a878383836131e5565b60008281526005602052604081208054839290612aa5908490613f2e565b9091555050505050565b60006001600160a01b038416612b075760008060008085875af1905080612b02576040517ff4b3b1bc00000000000000000000000000000000000000000000000000000000815260040160405180910390fd5b6126ce565b6040517fa9059cbb0000000000000000000000000000000000000000000000000000000081526001600160a01b0384166004820152826024820152602060006044836000895af13d15601f3d11600160005114161716915050806126ce576040517ff27f64e400000000000000000000000000000000000000000000000000000000815260040160405180910390fd5b6000546001600160a01b031633146114f95760405163118cdaa760e01b815233600482015260240161152f565b6001805473ffffffffffffffffffffffffffffffffffffffff19169055610a518161326c565b60008082604051602001612bfe919061444d565b60408051601f1981840301815291905280516020909101206001600160c01b03169392505050565b6000826001600160c01b0316846001600160c01b03161115612c46579192915b6040805167ffffffffffffffff1986831b811660208301529185901b9091166038820152605081018390526070016040516020818303038152906040528051906020012090509392505050565b612c9e8383836132c9565b60008281526005602052604081208054839290612aa5908490613f1b565b60008060007f00000000000000000000000000000000000000000000000000000000000000006001600160a01b031663d09ef241856040518263ffffffff1660e01b8152600401612d0f91815260200190565b606060405180830381865afa158015612d2c573d6000803e3d6000fd5b505050506040513d601f19601f82011682018060405250810190612d5091906144b4565b90508467ffffffffffffffff16816020015167ffffffffffffffff16612d769190614070565b9250612dba8567ffffffffffffffff16826040015167ffffffffffffffff16612d9f9190614070565b6000612db08760281c62ffffff1690565b60020b9190613347565b9150612dcb8662ffffff1660171c90565b15612df7576000612de362ffffff8816856001613372565b9050612def8185614526565b935050612e19565b6000612e0962ffffff88168483613372565b9050612e15818461454e565b9250505b50935093915050565b600080600085805480602002602001604051908101604052809291908181526020018280548015612e7257602002820191906000526020600020905b815481526020019060010190808311612e5e575b5050505050905060005b8151811015613147576000828281518110612e9957612e99614347565b6020026020010151905060007f00000000000000000000000000000000000000000000000000000000000000006001600160a01b031663d09ef241836040518263ffffffff1660e01b8152600401612ef391815260200190565b606060405180830381865afa158015612f10573d6000803e3d6000fd5b505050506040513d601f19601f82011682018060405250810190612f3491906144b4565b604081015190915067ffffffffffffffff161561300c57604080517f38926b6d000000000000000000000000000000000000000000000000000000008152600481018490526024810191909152600060448201527f00000000000000000000000000000000000000000000000000000000000000006001600160a01b0316906338926b6d906064016020604051808303816000875af1158015612fdb573d6000803e3d6000fd5b505050506040513d601f19601f82011682018060405250810190612fff919061432e565b6130099086613f2e565b94505b602081015167ffffffffffffffff161561313d577f00000000000000000000000000000000000000000000000000000000000000006001600160a01b03166314d6a9eb60405180604001604052808581526020016130a68b8d876020015167ffffffffffffffff1661307e9190614070565b61308891906142d0565b866020015167ffffffffffffffff166130a19190613f1b565b6133f5565b67ffffffffffffffff9081169091526040516001600160e01b031960e085901b1681528251600482015260209092015116602482015260606044820152600060648201526084016020604051808303816000875af115801561310c573d6000803e3d6000fd5b505050506040513d601f19601f82011682018060405250810190613130919061432e565b61313a9087613f2e565b95505b5050600101612e7c565b50848403612e195750600090945593915050565b600080602060008451602086016000885af18061317e576040513d6000823e3d81fd5b50506000513d915081156131965780600114156131a3565b6001600160a01b0384163b155b156126ce576040517f5274afe70000000000000000000000000000000000000000000000000000000081526001600160a01b038516600482015260240161152f565b6001600160a01b038316600090815260036020908152604080832085845290915281208054839290613218908490613f2e565b9091555050604080513381526020810183905283916001600160a01b038616916000917f1b3d7edb2e9c0b0e7c525b20aaaef0f5940d2ed71663c7d39266ecafac72885991015b60405180910390a4505050565b600080546001600160a01b0383811673ffffffffffffffffffffffffffffffffffffffff19831681178455604051919092169283917f8be0079c531659141344cd1fd0a4f28419497f9722a3daafe3b4186f6b6457e09190a35050565b6001600160a01b0383166000908152600360209081526040808320858452909152812080548392906132fc908490613f1b565b9091555050604080513381526020810183905283916000916001600160a01b038716917f1b3d7edb2e9c0b0e7c525b20aaaef0f5940d2ed71663c7d39266ecafac728859910161325f565b600061336a606084901b61335d8660020b613449565b8082061515851691040190565b949350505050565b60006207a11f19627fffff851601600281900b821282816133965782600003613398565b825b62ffffff16905060006133d26133ae8389614070565b620f4240886133c4578581830615151691040190565b808206151586151691040190565b9050826133e7576133e281614415565b6133e9565b805b98975050505050505050565b600067ffffffffffffffff82111561344557604080517f6dfcc65000000000000000000000000000000000000000000000000000000000815260048101919091526024810183905260440161152f565b5090565b600061345482613714565b816000600282900b81136134685781613471565b61347182614575565b62ffffff8116915060011615613495576bfff97272373d413259a4699092506134a6565b6c0100000000000000000000000092505b60028116156134c55760606bfff2e50f5f656932ef12357c8402901c92505b60048116156134e45760606bffe5caca7e10e4e61c3624ea8402901c92505b60088116156135035760606bffcb9843d60f6159c9db58838402901c92505b60108116156135225760606bff973b41fa98c081472e68968402901c92505b60208116156135415760606bff2ea16466c96a3843ec78b38402901c92505b60408116156135605760606bfe5dee046a99a2a811c461f18402901c92505b608081161561357f5760606bfcbe86c7900a88aedcffc83b8402901c92505b61010081161561359f5760606bf987a7253ac413176f2b074c8402901c92505b6102008116156135bf5760606bf3392b0822b70005940c7a398402901c92505b6104008116156135df5760606be7159475a2c29b7443b29c7f8402901c92505b6108008116156135ff5760606bd097f3bdfd2022b8845ad8f78402901c92505b61100081161561361f5760606ba9f746462d870fdf8a65dc1f8402901c92505b61200081161561363f5760606b70d869a156d2a1b890bb3df68402901c92505b61400081161561365f5760606b31be135f97d08fd9812315058402901c92505b61800081161561367f5760606b09aa508b5b7a84e1c677de548402901c92505b6201000081161561369f5760606a5d6af8dedb81196699c3298402901c92505b620200008116156136be576060692216e584f5fa1ea926048402901c92505b620400008116156136db57606067048a170391f7dc428402901c92505b60008260020b131561370d5761370a8378010000000000000000000000000000000000000000000000006142d0565b92505b5050919050565b6207ffff600282900b138061373957506137306207ffff614575565b60020b8160020b125b15610a51576040517fce8ef7fc00000000000000000000000000000000000000000000000000000000815260040160405180910390fd5b6001600160a01b0381168114610a5157600080fd5b6000806040838503121561379857600080fd5b82356137a381613770565b946020939093013593505050565b6000602082840312156137c357600080fd5b81356001600160e01b031981168114610b0957600080fd5b6000602082840312156137ed57600080fd5b5035919050565b60008060006060848603121561380957600080fd5b833561381481613770565b95602085013595506040909401359392505050565b6000806000806080858703121561383f57600080fd5b5050823594602084013594506040840135936060013592509050565b60008060006040848603121561387057600080fd5b833561387b81613770565b9250602084013567ffffffffffffffff8082111561389857600080fd5b818601915086601f8301126138ac57600080fd5b8135818111156138bb57600080fd5b8760208285010111156138cd57600080fd5b6020830194508093505050509250925092565b60005b838110156138fb5781810151838201526020016138e3565b50506000910152565b6000815180845261391c8160208601602086016138e0565b601f01601f19169290920160200192915050565b602081526000610b096020830184613904565b8015158114610a5157600080fd5b6000806040838503121561396457600080fd5b823561396f81613770565b9150602083013561397f81613943565b809150509250929050565b60008060006060848603121561399f57600080fd5b83356139aa81613770565b925060208401356139ba81613770565b929592945050506040919091013590565b6000602082840312156139dd57600080fd5b81356001600160c01b0381168114610b0957600080fd5b600060c08284031215613a0657600080fd5b50919050565b6000806000806101c08587031215613a2357600080fd5b613a2d86866139f4565b9350613a3c8660c087016139f4565b925061018085013591506101a0850135613a5581613770565b939692955090935050565b60008060408385031215613a7357600080fd5b8235613a7e81613770565b9150602083013561397f81613770565b600080600060608486031215613aa357600080fd5b8335925060208401356139ba81613770565b600060208284031215613ac757600080fd5b8135610b0981613770565b60008151808452602080850194506020840160005b83811015613b0357815187529582019590820190600101613ae7565b509495945050505050565b6020815260006001600160c01b03808451166020840152806020850151166040840152506001600160a01b03604084015116606083015260608301516080830152608083015160a083015260a083015160e060c0840152613b73610100840182613ad2565b905060c0840151601f198483030160e0850152611e998282613ad2565b8251815260208084015181830152604080850151818401528351606084015290830151608083015282015160a082015260c08101610b09565b60008060008060808587031215613bdf57600080fd5b8435613bea81613770565b93506020850135613bfa81613770565b93969395505050506040820135916060013590565b634e487b7160e01b600052604160045260246000fd5b60405160c0810167ffffffffffffffff81118282101715613c4857613c48613c0f565b60405290565b6040805190810167ffffffffffffffff81118282101715613c4857613c48613c0f565b604051601f8201601f1916810167ffffffffffffffff81118282101715613c9a57613c9a613c0f565b604052919050565b67ffffffffffffffff81168114610a5157600080fd5b62ffffff81168114610a5157600080fd5b600060c08284031215613cdb57600080fd5b613ce3613c25565b8251613cee81613770565b81526020830151613cfe81613ca2565b60208201526040830151613d1181613770565b60408201526060830151613d2481613cb8565b60608201526080830151613d3781613770565b608082015260a0830151613d4a81613cb8565b60a08201529392505050565b600082601f830112613d6757600080fd5b8151602067ffffffffffffffff821115613d8357613d83613c0f565b613d91818360051b01613c71565b82815260069290921b84018101918181019086841115613db057600080fd5b8286015b84811015613e085760408189031215613dcd5760008081fd5b613dd5613c4e565b81518060020b8114613de75760008081fd5b815281850151613df681613ca2565b81860152835291830191604001613db4565b509695505050505050565b60008060408385031215613e2657600080fd5b825167ffffffffffffffff80821115613e3e57600080fd5b613e4a86838701613d56565b93506020850151915080821115613e6057600080fd5b50613e6d85828601613d56565b9150509250929050565b60008151808452602080850194506020840160005b83811015613b03578151805160020b885283015167ffffffffffffffff168388015260409096019590820190600101613e8c565b6001600160a01b0385168152836020820152608060408201526000613ee86080830185613e77565b8281036060840152613efa8185613e77565b979650505050505050565b634e487b7160e01b600052601160045260246000fd5b8181038181111561071357610713613f05565b8082018082111561071357610713613f05565b600060208284031215613f5357600080fd5b815160ff81168114610b0957600080fd5b60ff828116828216039081111561071357610713613f05565b600181815b80851115613fb8578160001904821115613f9e57613f9e613f05565b80851615613fab57918102915b93841c9390800290613f82565b509250929050565b600082613fcf57506001610713565b81613fdc57506000610713565b8160018114613ff25760028114613ffc57614018565b6001915050610713565b60ff84111561400d5761400d613f05565b50506001821b610713565b5060208310610133831016604e8410600b841016171561403b575081810a610713565b6140458383613f7d565b806000190482111561405957614059613f05565b029392505050565b6000610b0960ff841683613fc0565b808202811582820484141761071357610713613f05565b6001600160a01b038316815260406020820152600061336a6040830184613904565b6000602082840312156140bb57600080fd5b815167ffffffffffffffff808211156140d357600080fd5b818401915084601f8301126140e757600080fd5b8151818111156140f9576140f9613c0f565b61410c601f8201601f1916602001613c71565b915080825285602082850101111561412357600080fd5b6141348160208401602086016138e0565b50949350505050565b6000806040838503121561415057600080fd5b505080516020909101519092909150565b8183823760009101908152919050565b600060c0828403121561418357600080fd5b61418b613c25565b823561419681613770565b815260208301356141a681613ca2565b602082015260408301356141b981613770565b604082015260608301356141cc81613cb8565b606082015260808301356141df81613770565b608082015260a0830135613d4a81613cb8565b60006020828403121561420457600080fd5b8151610b0981613943565b803561421a81613770565b6001600160a01b03908116835260208201359061423682613ca2565b67ffffffffffffffff821660208501526040830135915061425682613770565b908116604084015260608201359061426d82613cb8565b62ffffff918216606085015260808301359161428883613770565b918116608085015260a08301359161429f83613cb8565b80831660a08601525050505050565b6142b8818361420f565b60e060c0820181905260009082015261010001919050565b6000826142ed57634e487b7160e01b600052601260045260246000fd5b500490565b6101c08101614301828761420f565b61430e60c083018661420f565b836101808301526001600160a01b0383166101a083015295945050505050565b60006020828403121561434057600080fd5b5051919050565b634e487b7160e01b600052603260045260246000fd5b60006101406143c68385516001600160a01b0380825116835267ffffffffffffffff6020830151166020840152806040830151166040840152606082015162ffffff80821660608601528260808501511660808601528060a08501511660a08601525050505050565b602084015160020b60c0840152604084015167ffffffffffffffff1660e08401526060909301516001600160a01b03166101008301525061012081018290526000918101919091526101600190565b60007f8000000000000000000000000000000000000000000000000000000000000000820361444657614446613f05565b5060000390565b60c0810161071382846001600160a01b0380825116835267ffffffffffffffff6020830151166020840152806040830151166040840152606082015162ffffff80821660608601528260808501511660808601528060a08501511660a08601525050505050565b6000606082840312156144c657600080fd5b6040516060810181811067ffffffffffffffff821117156144e9576144e9613c0f565b60405282516144f781613770565b8152602083015161450781613ca2565b6020820152604083015161451a81613ca2565b60408201529392505050565b808201828112600083128015821682158216171561454657614546613f05565b505092915050565b818103600083128015838313168383128216171561456e5761456e613f05565b5092915050565b60008160020b627fffff19810361458e5761458e613f05565b6000039291505056fea264697066735822122041545aff34c0f651f9febeb27d1a8575c7cf3507d0d6e44629f98035c3c9379664736f6c63430008190033",
  "devdoc": {
    "errors": {
      "OwnableInvalidOwner(address)": [
        {
          "details": "The owner is not a valid owner account. (eg. `address(0)`)"
        }
      ],
      "OwnableUnauthorizedAccount(address)": [
        {
          "details": "The caller account is not authorized to perform an operation."
        }
      ],
      "SafeCastOverflowedUintDowncast(uint8,uint256)": [
        {
          "details": "Value doesn't fit in an uint of `bits` size."
        }
      ],
      "SafeERC20FailedOperation(address)": [
        {
          "details": "An operation with an ERC-20 token failed."
        }
      ]
    },
    "kind": "dev",
    "methods": {
      "acceptOwnership()": {
        "details": "The new owner accepts the ownership transfer."
      },
      "burn(bytes32,uint256,uint256,uint256)": {
        "params": {
          "amount": "The amount of liquidity tokens to burn.",
          "key": "The key of the pool.",
          "minAmountA": "The amount of the first token to receive.",
          "minAmountB": "The minimum amount of the second token to receive."
        },
        "returns": {
          "withdrawalA": "The amounts of the first and second tokens to receive."
        }
      },
      "getBookPairs(bytes32)": {
        "params": {
          "key": "The key of the pool."
        },
        "returns": {
          "_0": "The book ID for the first book.",
          "_1": "The book ID for the second book."
        }
      },
      "getLiquidity(bytes32)": {
        "params": {
          "key": "The key of the pool."
        },
        "returns": {
          "liquidityA": "The liquidity for the first token.",
          "liquidityB": "The liquidity for the second token."
        }
      },
      "getPool(bytes32)": {
        "params": {
          "key": "The key of the pool."
        },
        "returns": {
          "_0": "The pool."
        }
      },
      "lockAcquired(address,bytes)": {
        "params": {
          "data": "The data that was passed to the call to lock"
        },
        "returns": {
          "_0": "Any data that you want to be returned from the lock call"
        }
      },
      "mint(bytes32,uint256,uint256,uint256)": {
        "params": {
          "amountA": "The amount of the first token.",
          "amountB": "The amount of the second token.",
          "key": "The key of the pool.",
          "minLpAmount": "The minimum amount of liquidity tokens to mint."
        },
        "returns": {
          "mintAmount": "The amount of liquidity tokens minted."
        }
      },
      "open((address,uint64,address,uint24,address,uint24),(address,uint64,address,uint24,address,uint24),bytes32,address)": {
        "params": {
          "bookKeyA": "The book key for the first book.",
          "bookKeyB": "The book key for the second book.",
          "salt": "The salt value.",
          "strategy": "The address of the strategy."
        },
        "returns": {
          "_0": "The key of the opened pool."
        }
      },
      "owner()": {
        "details": "Returns the address of the current owner."
      },
      "pendingOwner()": {
        "details": "Returns the address of the pending owner."
      },
      "rebalance(bytes32)": {
        "params": {
          "key": "The key of the pool."
        }
      },
      "renounceOwnership()": {
        "details": "Leaves the contract without owner. It will not be possible to call `onlyOwner` functions. Can only be called by the current owner. NOTE: Renouncing ownership will leave the contract without an owner, thereby disabling any functionality that is only available to the owner."
      },
      "transferOwnership(address)": {
        "details": "Starts the ownership transfer of the contract to a new account. Replaces the pending transfer if there is one. Can only be called by the current owner. Setting `newOwner` to the zero address is allowed; this can be used to cancel an initiated ownership transfer."
      }
    },
    "stateVariables": {
      "bookPair": {
        "params": {
          "bookId": "The book ID."
        },
        "return": "The book pair.",
        "returns": {
          "_0": "The book pair."
        }
      }
    },
    "version": 1
  },
  "userdoc": {
    "errors": {
      "ERC20TransferFailed()": [
        {
          "notice": "Thrown when an ERC20 transfer fails"
        }
      ],
      "NativeTransferFailed()": [
        {
          "notice": "Thrown when a native transfer fails"
        }
      ]
    },
    "kind": "user",
    "methods": {
      "bookPair(uint192)": {
        "notice": "Retrieves the book pair for a specified book ID."
      },
      "burn(bytes32,uint256,uint256,uint256)": {
        "notice": "Burns liquidity for the specified key."
      },
      "getBookPairs(bytes32)": {
        "notice": "Retrieves the book pairs for a specified key."
      },
      "getLiquidity(bytes32)": {
        "notice": "Retrieves the liquidity for a specified key."
      },
      "getPool(bytes32)": {
        "notice": "Retrieves the pool for a specified key."
      },
      "lockAcquired(address,bytes)": {
        "notice": "Called by the book manager on `msg.sender` when a lock is acquired"
      },
      "mint(bytes32,uint256,uint256,uint256)": {
        "notice": "Mints liquidity for the specified key."
      },
      "open((address,uint64,address,uint24,address,uint24),(address,uint64,address,uint24,address,uint24),bytes32,address)": {
        "notice": "Opens a new pool with the specified parameters."
      },
      "rebalance(bytes32)": {
        "notice": "Rebalances the pool for the specified key."
      }
    },
    "version": 1
  },
  "storageLayout": {
    "storage": [
      {
        "astId": 8,
        "contract": "src/Rebalancer.sol:Rebalancer",
        "label": "_owner",
        "offset": 0,
        "slot": "0",
        "type": "t_address"
      },
      {
        "astId": 156,
        "contract": "src/Rebalancer.sol:Rebalancer",
        "label": "_pendingOwner",
        "offset": 0,
        "slot": "1",
        "type": "t_address"
      },
      {
        "astId": 8666,
        "contract": "src/Rebalancer.sol:Rebalancer",
        "label": "isOperator",
        "offset": 0,
        "slot": "2",
        "type": "t_mapping(t_address,t_mapping(t_address,t_bool))"
      },
      {
        "astId": 8672,
        "contract": "src/Rebalancer.sol:Rebalancer",
        "label": "balanceOf",
        "offset": 0,
        "slot": "3",
        "type": "t_mapping(t_address,t_mapping(t_uint256,t_uint256))"
      },
      {
        "astId": 8680,
        "contract": "src/Rebalancer.sol:Rebalancer",
        "label": "allowance",
        "offset": 0,
        "slot": "4",
        "type": "t_mapping(t_address,t_mapping(t_address,t_mapping(t_uint256,t_uint256)))"
      },
      {
        "astId": 14817,
        "contract": "src/Rebalancer.sol:Rebalancer",
        "label": "totalSupply",
        "offset": 0,
        "slot": "5",
        "type": "t_mapping(t_uint256,t_uint256)"
      },
      {
        "astId": 9842,
        "contract": "src/Rebalancer.sol:Rebalancer",
        "label": "_pools",
        "offset": 0,
        "slot": "6",
        "type": "t_mapping(t_bytes32,t_struct(Pool)14362_storage)"
      },
      {
        "astId": 9848,
        "contract": "src/Rebalancer.sol:Rebalancer",
        "label": "bookPair",
        "offset": 0,
        "slot": "7",
        "type": "t_mapping(t_userDefinedValueType(BookId)7520,t_userDefinedValueType(BookId)7520)"
      }
    ],
    "types": {
      "t_address": {
        "encoding": "inplace",
        "label": "address",
        "numberOfBytes": "20"
      },
      "t_array(t_userDefinedValueType(OrderId)7955)dyn_storage": {
        "base": "t_userDefinedValueType(OrderId)7955",
        "encoding": "dynamic_array",
        "label": "OrderId[]",
        "numberOfBytes": "32"
      },
      "t_bool": {
        "encoding": "inplace",
        "label": "bool",
        "numberOfBytes": "1"
      },
      "t_bytes32": {
        "encoding": "inplace",
        "label": "bytes32",
        "numberOfBytes": "32"
      },
      "t_contract(IStrategy)14807": {
        "encoding": "inplace",
        "label": "contract IStrategy",
        "numberOfBytes": "20"
      },
      "t_mapping(t_address,t_bool)": {
        "encoding": "mapping",
        "key": "t_address",
        "label": "mapping(address => bool)",
        "numberOfBytes": "32",
        "value": "t_bool"
      },
      "t_mapping(t_address,t_mapping(t_address,t_bool))": {
        "encoding": "mapping",
        "key": "t_address",
        "label": "mapping(address => mapping(address => bool))",
        "numberOfBytes": "32",
        "value": "t_mapping(t_address,t_bool)"
      },
      "t_mapping(t_address,t_mapping(t_address,t_mapping(t_uint256,t_uint256)))": {
        "encoding": "mapping",
        "key": "t_address",
        "label": "mapping(address => mapping(address => mapping(uint256 => uint256)))",
        "numberOfBytes": "32",
        "value": "t_mapping(t_address,t_mapping(t_uint256,t_uint256))"
      },
      "t_mapping(t_address,t_mapping(t_uint256,t_uint256))": {
        "encoding": "mapping",
        "key": "t_address",
        "label": "mapping(address => mapping(uint256 => uint256))",
        "numberOfBytes": "32",
        "value": "t_mapping(t_uint256,t_uint256)"
      },
      "t_mapping(t_bytes32,t_struct(Pool)14362_storage)": {
        "encoding": "mapping",
        "key": "t_bytes32",
        "label": "mapping(bytes32 => struct IRebalancer.Pool)",
        "numberOfBytes": "32",
        "value": "t_struct(Pool)14362_storage"
      },
      "t_mapping(t_uint256,t_uint256)": {
        "encoding": "mapping",
        "key": "t_uint256",
        "label": "mapping(uint256 => uint256)",
        "numberOfBytes": "32",
        "value": "t_uint256"
      },
      "t_mapping(t_userDefinedValueType(BookId)7520,t_userDefinedValueType(BookId)7520)": {
        "encoding": "mapping",
        "key": "t_userDefinedValueType(BookId)7520",
        "label": "mapping(BookId => BookId)",
        "numberOfBytes": "32",
        "value": "t_userDefinedValueType(BookId)7520"
      },
      "t_struct(Pool)14362_storage": {
        "encoding": "inplace",
        "label": "struct IRebalancer.Pool",
        "members": [
          {
            "astId": 14343,
            "contract": "src/Rebalancer.sol:Rebalancer",
            "label": "bookIdA",
            "offset": 0,
            "slot": "0",
            "type": "t_userDefinedValueType(BookId)7520"
          },
          {
            "astId": 14346,
            "contract": "src/Rebalancer.sol:Rebalancer",
            "label": "bookIdB",
            "offset": 0,
            "slot": "1",
            "type": "t_userDefinedValueType(BookId)7520"
          },
          {
            "astId": 14349,
            "contract": "src/Rebalancer.sol:Rebalancer",
            "label": "strategy",
            "offset": 0,
            "slot": "2",
            "type": "t_contract(IStrategy)14807"
          },
          {
            "astId": 14351,
            "contract": "src/Rebalancer.sol:Rebalancer",
            "label": "reserveA",
            "offset": 0,
            "slot": "3",
            "type": "t_uint256"
          },
          {
            "astId": 14353,
            "contract": "src/Rebalancer.sol:Rebalancer",
            "label": "reserveB",
            "offset": 0,
            "slot": "4",
            "type": "t_uint256"
          },
          {
            "astId": 14357,
            "contract": "src/Rebalancer.sol:Rebalancer",
            "label": "orderListA",
            "offset": 0,
            "slot": "5",
            "type": "t_array(t_userDefinedValueType(OrderId)7955)dyn_storage"
          },
          {
            "astId": 14361,
            "contract": "src/Rebalancer.sol:Rebalancer",
            "label": "orderListB",
            "offset": 0,
            "slot": "6",
            "type": "t_array(t_userDefinedValueType(OrderId)7955)dyn_storage"
          }
        ],
        "numberOfBytes": "224"
      },
      "t_uint256": {
        "encoding": "inplace",
        "label": "uint256",
        "numberOfBytes": "32"
      },
      "t_userDefinedValueType(BookId)7520": {
        "encoding": "inplace",
        "label": "BookId",
        "numberOfBytes": "24"
      },
      "t_userDefinedValueType(OrderId)7955": {
        "encoding": "inplace",
        "label": "OrderId",
        "numberOfBytes": "32"
      }
    }
  }
}